S015000048656C6C6F426C696E6B52544F532E733337B3
S3150800000000100020450C0008DF660008DF660008BF
S31508000010DF660008DF660008DF660008DF6600089E
S31508000020DF660008DF660008DF6600085102000880
S31508000030DF660008DF660008E1010008C9690008F4
S31508000040DF660008DF660008DF660008DF6600086E
S31508000050DF660008DF660008DF660008DF6600085E
S31508000060DF6600082D0C00082D660008DF6600080C
S31508000070DF660008DF660008DF660008DF6600083E
S31508000080DF660008DF660008DF660008DF6600082E
S31508000090DF66000811150008DF660008DF6600083D
S315080000A0DF660008311600080D160008DF6600082E
S315080000B0DF660008DF660008DF660008DF660008FE
S315080000C0DF660008DF660008DF660008DF660008EE
S315080000D0DF660008DF660008DF660008DF660008DE
S315080000E0DF660008DF660008DF660008DF660008CE
S315080000F0DF660008DF660008DF660008DF660008BE
S31508000100DF660008DF660008DF660008DF660008AD
S31508000110DF660008DF660008DF660008DF6600089D
S31508000120DF660008DF660008DF660008DF6600088D
S31508000130DF660008DF660008DF660008DF6600087D
S31508000140DF660008DF660008DF66000871690008D8
S31508000150DF660008DF660008DF660008DF6600085D
S31508000160DF660008DF660008DF660008DF6600084D
S315080001700B4A1168086806C881F30B88022181F3C7
S315080001801488203080F30988BFF36F8F4FF0000082
S3150800019080F31188104700BFAFF30080AFF30080EB
S315080001A0B825002000000000000000000000000044
S315080001B007480068006880F3088862B661B6BFF32E
S315080001C04F8FBFF36F8F02DF00BF00BFAFF3008012
S315080001D008ED00E00000000000000000000000003C
S315080001E0EFF309801EF0100F08BF20ED108AEFF319
S315080001F00B82734620E9FC0F114A116808604FF01C
S31508000200300080F31188BFF34F8FBFF36F8F04F070
S315080002101DFF4FF0000080F31188094A116808682D
S31508000220B0E8FC0F13F0100F08BFB0EC108A82F389
S315080002300B8880F309881847AFF30080AFF3008076
S31508000240B8250020000000000000000000000000A3
S315080002501EF0040F0CBFEFF30880EFF30980044982
S31508000260084700BFAFF30080AFF30080AFF300800C
S31508000270E958000810B5054C237833B9044B13B177
S31508000280044800E000BF0123237010BD941000202D
S3150800029000000000F479000808B5034B1BB10349B8
S315080002A0034800E000BF08BD0000000098100020C9
S315080002B0F4790008A3F5803A704700BF174B002B66
S315080002C008BF134B9D46FFF7F5FF00218B460F46E7
S315080002D01348144A121A06F034FD0E4B002B00D0B0
S315080002E098470D4B002B00D09847002000210400AA
S315080002F00D000D48002802D00C4800E000BF05F0AC
S3150800030009FE2000290006F06FF905F0EFFD00BF91
S315080003100000080000000000000000000010002097
S315080003209410002020530020000000000000000068
S315080003302DE9F347594C4FF0FF31206804F06CFA69
S31508000340574F584A5849594805F008FE57483D68D6
S3150800035006F0FFFC55490246284606F092FA0023A5
S3150800036020681A46194604F07FF80025DFF85491EC
S31508000370DFF83081DFF850A1D9F8000004F054FB0B
S31508000380064600286AD00DF107011422D9F80000A4
S3150800039004F0C0F99DF807304FF0FF31032B2068B1
S315080003A01AD0042B36D0022B4ED104F035FA424629
S315080003B03F493E4805F0D2FD3C483D6806F0C9FC79
S315080003C03A490246284606F05CFA002320681A468F
S315080003D0194604F049F818E004F01EFA4246354971
S315080003E0324805F0BBFD31483D6806F0B2FC2F499E
S315080003F00246284606F045FA002320681A4619469A
S3150800040004F032F82C4806F097F90025642003F02A
S3150800041053FDB1E704F000FA42462849234805F09F
S315080004209DFD22483D6806F094FC20490246284670
S3150800043006F027FA002320681A46194604F014F82D
S315080004401D4806F07CF9E0E704F0E6F942469DF817
S3150800045007301B49154805F081FDADE741F28833A1
S3150800046064359D42D2D94FF0FF31206804F0D4F9A3
S31508000470424651460D4805F071FD0C483D6806F0A8
S3150800048068FC0A490246284606F0FBF93346324616
S315080004903146206803F0E8FF3546B7E7B410002078
S315080004A00010002049720008D46F00086E2B002047
S315080004B0EA6F000810700008A0720008387000087B
S315080004C061700008C0170020937000082DE9F347F3
S315080004D03D4C4FF0FF31206804F09EF93B4F3C4AF3
S315080004E03C493D4805F03AFD3B483D6806F031FC7D
S315080004F039490246284606F0C4F9002320681A46F8
S31508000500194603F0B1FF0026DFF8D890DFF8C0805F
S31508000510DFF8D4A0D9F8000004F086FA054690B3AF
S315080005200DF107011422D9F8000004F0F3F89DF83C
S3150800053007304FF0FF31012B20681AD104F06CF90F
S3150800054042462649244805F009FD23483D6806F039
S3150800055000FC21490246284606F093F90023206844
S315080005601A46194603F080FF0026642003F0A4FC0F
S31508000570D0E704F051F942469DF807301849164865
S3150800058005F0ECFCE1E741F2883364369E42ECD98B
S315080005904FF0FF31206804F03FF9424651460E48B5
S315080005A005F0DCFC0C483E6806F0D3FB0A49024617
S315080005B0304606F066F92B462A462946206803F097
S315080005C053FF2E46D1E700BFB410002000100020CC
S315080005D03F720008D46F00086E2B0020EA6F0008EF
S315080005E0617000085811002093700008F0B585B0B6
S315080005F02E49012006F0C6FA00242D4B0121186069
S315080006002C4A2D4B00944FF4807003F07BFE2B4B45
S31508000610012118602A4A2B4B00944FF4807003F08E
S3150800062071FE294B01211860284A294B00944FF482
S31508000630807003F067FE1827264BA0221860264B09
S3150800064026490293264B274801930097234604F030
S315080006504FFB254BA0220293244B2549CDE9007375
S3150800066006462346234804F043FB234B05460293DC
S31508000670224BA022CDE9007321492346214804F0E4
S3150800068037FB04461EB9B9211F4806F031F81DB9D3
S31508000690BA211D4806F02CF834B9BB211A4805B012
S315080006A0BDE8F04006F024B805B0F0BDB81000204B
S315080006B0B4100020563000203C1400208C14002072
S315080006C0562F00200811002058110020563100200E
S315080006D070170020C017002010170020A57000080A
S315080006E090140020B1080008DC1300205C110020DB
S315080006F0AF700008CD040008441A0020C417002073
S31508000700BA70000831030008C67000082DE9F341E5
S315080007105B4D5C4C4FF0FF31286804F07DF85A4E6B
S315080007205A49204605F01AFC2046376806F011FBA0
S3150800073021460246384606F0A4F80023544F1A46C6
S315080007401946286803F090FE4FF0FF31286804F038
S3150800075063F83946204605F001FC2046D6F80080A5
S3150800076006F0F7FA21460246404606F08AF80023C4
S3150800077028681A46194603F077FE4FF0FF312868B5
S3150800078004F04AF84349204605F0E8FB2046D6F827
S31508000790008006F0DEFA21460246404606F071F869
S315080007A0002328681A46194603F05EFE4FF0FF310B
S315080007B0286804F031F83849204605F0CFFB204672
S315080007C0D6F8008006F0C5FA21460246404606F0ED
S315080007D058F8002328681A46194603F045FE4FF0D4
S315080007E0FF31286804F018F82C4A2D4B00922D4941
S315080007F0204605F0B3FB2046D6F8008006F0A9FA95
S3150800080021460246404606F03CF8002328681A4668
S31508000810194603F029FE4FF0FF31286803F0FCFF64
S31508000820214A2249204605F099FB2046D6F8008041
S3150800083006F08FFA21460246404606F022F80023C3
S3150800084028681A46194603F00FFE4FF0FF3128684C
S3150800085003F0E2FF3946204605F080FB204636685D
S3150800086006F077FA21460246304606F00AF80023D3
S315080008701A461946286802B0BDE8F04103F0F4BDEF
S31508000880B41000206E2B002000100020CF70000846
S31508000890D67000081E71000866710008B07100085D
S315080008A0AE710008B2710008DE710008E97100082F
S315080008B02DE9F04F85B05A4DFFF728FF4FF0FF316D
S315080008C0286803F0A9FFDFF88081564A5649574839
S315080008D005F044FB5548D8F8004006F03AFA534963
S315080008E00246204605F0CDFF002300241A46194685
S315080008F0286803F0B9FD27462646DFF850A1DFF839
S315080009002491DFF84CB1DAF80000643704F08CF86B
S3150800091000284ED00DF10F011422DAF8000003F07A
S31508000920F9FE9DF80F304FF0FF31013B012B286887
S3150800093035D803F071FF4A463D493C4805F00EFBA1
S315080009403A48D8F8004006F004FA384902462046E4
S3150800095005F097FF002328681A46194603F084FD18
S31508000960002443F69721334A136864338B4243D8ED
S315080009701360B7F57A7F0ED301362F4BF6B2032EE6
S3150800098018682E4943D9032300270B701422002325
S3150800099003F06AFD3E46642003F08EFAB3E703F0DF
S315080009A03BFF4A469DF80F302549204805F0D6FA00
S315080009B0C6E741F2883264349442D2D94FF0FF3107
S315080009C00190286803F028FF4A465946174805F05B
S315080009D0C5FA1648D8F8004006F0BBF9134902468E
S315080009E0204605F04EFF019B28681A46194603F073
S315080009F03BFD019B1C46B4E70023136001220F4907
S31508000A0010480A700068142203F02EFDB1E704238B
S31508000A1014220B70002303F027FD0027BBE700BF55
S31508000A20B410002036720008D46F00086E2B002020
S31508000A300E720008B0100020C017002056320020A1
S31508000A406170000858110020001000208C14002046
S31508000A509370000810B5274C01F022FB01F0E6FC64
S31508000A60236F23F0070343F00303236705F0CBFE48
S31508000A70214B00209B6ADB015EBF4FF480321F4B7F
S31508000A809A62D4F8203123F0070343F00203C4F82E
S31508000A902031D4F8283123F0070343F00203C4F8C1
S31508000AA02831D4F8403123F0030343F00103C4F896
S31508000AB04031D4F8603123F0030343F00103C4F84E
S31508000AC06031D4F8403223F0030343F00103C4F83D
S31508000AD04032D4F8003223F0070343F00103C4F888
S31508000AE00032D4F8083223F0070343F00103C4F8B0
S31508000AF0083210BD008000500040005A0060005ABD
S31508000B0007B501A801F0FEFF9DF80530012B14D1A9
S31508000B109DF804308BB94FF48012114B1149586E69
S31508000B2003F580535A664B6B23F0E05343F040635A
S31508000B304B63C3025CBF0C4B5A6602F053FA05F0CE
S31508000B4082FD02F0E3F902F009FAFFF783FF02F0EB
S31508000B50F3F905F06FFD03B05DF804EB03F05EB939
S31508000B60008000500040005A00A0005030B595B0F3
S31508000B70204D0DAC0FCD0FC495E80700292384E856
S31508000B8007001D4A0021CDE902230523CDE90411FA
S31508000B908DF811300623102209A806918DF8133016
S31508000BA006F0CFF84FF48021144B1548CDE907130A
S31508000BB009238DF824300A238DF82530114B0DAA08
S31508000BC00A9320230B9301238DF831300E4B07A986
S31508000BD0009302AB02F008FE044618B188210B48C0
S31508000BE005F086FD00214FF4E13005F069FD204649
S31508000BF015B030BD8472000800C0055024C00550E9
S31508000C00EC1B002057320020A41A0020547200085A
S31508000C1008B5FFF7ABFF28B1BDE80840B821024880
S31508000C2005F066BD08BD00BF54720008014802F011
S31508000C309DBE00BFEC1B0020014805F07ABD00BF31
S31508000C40A072000808B500F02DF8124B12498B4225
S31508000C5012D30020114B12498B4218D3FFF72EFBF3
S31508000C60186850F82240586840F8224001329868BF
S31508000C708242F5D30C33EAE70022F8E71C6844F809
S31508000C80220001325C68A242F8D30833E4E7002266
S31508000C90F8E700BFFC790008087A0008087A000817
S31508000CA0087A000810B54FF480414FF0FF30114B19
S31508000CB0114A9A60D3F8882042F47002C3F8882053
S31508000CC00E4A91660E4901F5005210660D485066A7
S31508000CD00220C3F8D000BFF34F8FBFF36F8F0124F4
S31508000CE04FF440330848C0F88041D36004600B6174
S31508000CF010BD00BF00ED00E00000000800900050A5
S31508000D0000800044F7FF370000E100E0014B186857
S31508000D10704700BF08100020084B1B6F03F007033D
S31508000D20022B04D0032B05D0012B05D0FEE7044B7C
S31508000D3018687047034BFBE703487047008000506C
S31508000D40081000200C100020002D310108B5FFF70F
S31508000D50E3FF054B1B6FC3F303330133B0FBF3F01B
S31508000D60024B186008BD00BF008000500410002028
S31508000D700048704700B4C404014B1868704700BFA8
S31508000D800C100020054B1860054B1B6F03F007037A
S31508000D90032B01D1FFF7DABF704700BF0C10002004
S31508000DA00080005000487047002D31014FF0B443D1
S31508000DB09868C0F304400C2822D8DFE800F009211F
S31508000DC021212121071719211B1D1F000F487047D4
S31508000DD09B6803F04073B3F1807F13D0B3F1007FB3
S31508000DE012D00B4A002B08BF1046704709487047B7
S31508000DF009487047094870470948704709487047C5
S31508000E00002070470848704708487047405DC6008C
S31508000E1000093D000024F400C0EA210180BA8C01D3
S31508000E200048E801005A620280841E0040420F0012
S31508000E30014B1868704700BF1010002005490A6862
S31508000E401318054883428CBF4FF0FF320B601046DB
S31508000E50704700BF141000200000042010B50121BF
S31508000E603A2000F0D7FE012304220321002001F0D6
S31508000E70ADFC002005F0FFFC0122314B3149C3F8D7
S31508000E8044244FF40022A3F550335A66D1F8FC20C7
S31508000E902C4C12F080721EBFD1F8FC3023F0807300
S31508000EA0C1F8FC302849D1F8803023F0030343F019
S31508000EB00203C1F880302AB1D4F8FC3043F08073BD
S31508000EC0C4F8FC304FF4607000F0D0FED4F8F0306F
S31508000ED01E4A43F00103C4F8F030D4F8FC3000F59C
S31508000EE0D52043F08073C4F8FC30194B00F2FC405F
S31508000EF01A60184B0222B0FBF3F0174B0138186141
S31508000F00C3F8F0204FF48072C3F804234FF060430F
S31508000F10124A0020C3F8B02F114AC3F8802ED3F81E
S31508000F20002E42F48072C3F8002EFF2283F8202098
S31508000F30D3F8002E22F48072C3F8002E10BD00BF2D
S31508000F4000D0035000ED00E000800050FF03004091
S31508000F50001000E0F8590D00000004E055CEACC5BD
S31508000F600900010030B54FF06043D3F8802ED20750
S31508000F7015D501240B4D8440D5F8FC2042F080722B
S31508000F80C5F8FC20D3F8002E2243C3F8002E53F8E8
S31508000F902020002AF0D003F82010002030BD1120B0
S31508000FA0FCE700BF00ED00E038B50D460446B0B1D9
S31508000FB0012817D0022817D0032803D10F23EB40A6
S31508000FC0DB0704D440F2FE31084805F091FB3020D7
S31508000FD001214443064B01FA05F51D5138BD40F27F
S31508000FE0FF13ECE71F23EAE7FF23E8E7B8720008D8
S31508000FF040E0035038B50D460446B0B1012817D075
S31508001000022817D0032803D10F23EB40DB0704D4AB
S3150800101040F22D41084805F06BFB3020012144437E
S31508001020064B01FA05F51D5138BD40F2FF13ECE7F2
S315080010301F23EAE7FF23E8E7B872000840D0035009
S3150800104038B504784578ACB1012C16D0022C16D0E8
S31508001050032C03D10F23EB40DB0704D44FF489613B
S31508001060084805F045FB302301225C43064BAA409D
S315080010701A5138BD40F2FF13EDE71F23EBE7FF23B4
S31508001080E9E700BFB872000840F0035070B505786C
S3150800109004464678E5B1012D1DD0022D1DD0032D3D
S315080010A003D10F22F240D30704D44FF483610C48CE
S315080010B005F01EFB1023302212FB0535094BEB58B1
S315080010C0F34003F00100A3780BB980F0010070BD6E
S315080010D040F2FF12E6E71F22E4E7FF22E2E700BF3D
S315080010E0B872000830C003502DE9F04F85B09A4613
S315080010F0554B06461B780F461546DDF83C909DF87D
S3150800110044B0DDF85080002B00F08D80072A00F2ED
S315080011108C800E9B002B00F08880B9F1000F00F040
S315080011208480129BB3F5006F7FDC012802D1109BE7
S31508001130002B7AD0454B03EB05131B7B002B76D08F
S31508001140434C10220021684605F0FBFD04EB4514CC
S315080011501022002F59D13946204605F0F2FD43F2F8
S3150800116010036380BBF1000F03D1E37843F0030358
S31508001170E370374A0E9B02EB451CCCE90193129BA0
S315080011806901013BC3F30A009DF84C30012E03F0B8
S3150800119003034FEA836343EA001E53582D48CDF8EC
S315080011A000A000EA03004EEA0003535041D113237E
S315080011B00CF1100ECCF80C309CE80F008EE80F00EE
S315080011C06FF00301DCF81C20109B61F39F02012FCE
S315080011D0CCF81C20CCF8143003D1CCF81890CCF8F5
S315080011E004300027194A290102EB051342F8018049
S315080011F0159A28465A60694622469F605E7301F032
S31508001200C1FB384605B0BDE8F08F0021204605F041
S3150800121098FD4FF444736380BBF1000FA9D1E378BE
S3150800122043F03003A4E70C48ECE70C48EAE70C481F
S31508001230E8E7B8F1000FD4D19CF8023068F304133C
S315080012408CF80230CDE700BF773200200C1C002056
S315080012508C1C00200F80FFF3028000F0018000F054
S31508001260078000F038B5124B05461B78DBB1E0B1B4
S3150800127005F0E5FA0F4A00231146147B54B92B6092
S3150800128001251A0101EB03131D738C5005F0DDFAD5
S31508001290204638BD0133082B02F11002EDD105F0C6
S315080012A0D4FA0548F5E70548F3E70548F1E700BF2E
S315080012B0773200200C1C0020048000F0028000F029
S315080012C0018000F013B505F0BAFA00230B4A147B27
S315080012D07CB90133082B02F11002F8D1019001F014
S315080012E0C7FA074B01981C7005F0AFFA204602B002
S315080012F010BD05F0AAFA0348F9E700BF0C1C002048
S3150800130077320020058000F010B50D4B04461B7897
S3150800131093B1072812D805F092FA0A4B03EB041387
S315080013201A7B2AB100241C7305F08FFA204610BDDB
S3150800133005F08BFA0448FAE70448F8E70448F6E7A4
S31508001340773200200C1C0020068000F0028000F096
S31508001350018000F013B5154B1868002301908DF82D
S31508001360043005F06CFA124B1C7824B105F06DFABE
S31508001370104802B010BD01221A7005F066FA0E4B2D
S3150800138001A81C731C7783F82C4083F83C4083F82B
S315080013904C4083F85C4083F86C4083F87C40082313
S315080013A08DF8073001F0A4FA2046E2E70173000839
S315080013B077320020038000F00C1C002008B50A4A8A
S315080013C012785AB107280BD8084A02EB00131B7B80
S315080013D043B1002101F06AFA002008BD0448FCE781
S315080013E00448FAE70448F8E7773200200C1C002086
S315080013F0028000F0018000F0078000F008B50A4A74
S3150800140012785AB107280BD8084A02EB00131B7B3F
S3150800141043B1012101F04AFA002008BD0448FCE75F
S315080014200448FAE70448F8E7773200200C1C002045
S31508001430028000F0018000F0078000F008B50A4A33
S31508001440127852B107280AD8084A02EB00131B7B08
S315080014503BB101F019FB002008BD0548FCE705482B
S31508001460FAE70548F8E700BF773200200C1C002091
S31508001470028000F0018000F0078000F00D4B1B7819
S3150800148093B1072812D889B10B4B03EB00131B7BCA
S3150800149073B10A4B1A6D012303FA00F010401ABF04
S315080014A000200B700870704705487047054870475C
S315080014B005487047773200200C1C002000000450B5
S315080014C0028000F0018000F0078000F010B50B4A9A
S315080014D00C46127862B107280CD859B1084A02EBB3
S315080014E000131B7B43B101F0EBFA2070002010BDFE
S315080014F00448FCE70448FAE70448F8E7773200208E
S315080015000C1C0020028000F0018000F0078000F02B
S315080015102DE9F0471F4B204C1F6D5A6D174010D50B
S315080015204FF000411D4A1165D868C0F30420030135
S31508001530E35804EB00125BB3BDE8F047002152689C
S31508001540184701260025DFF85480DFF85490374203
S3150800155017D02368C8F850609BB1A16828460131A6
S315080015606268A1609847637B012B0AD148B909EBE9
S3150800157045131A7B60F341021A731A7F60F341021E
S315080015801A770135082D4FEA460604F11004DED114
S31508001590BDE8F087000004500C1C00200020045011
S315080015A08C1C002070B5012504460B4E04B970BD8D
S315080015B094FAA4F0B0FA80F005FA00F306EB0012EC
S315080015C024EA03045368002BF0D0117B11B191680B
S315080015D09847EBE79847E9E78C1D002008B51920DE
S315080015E000F046FF28B14FF00072074BC3F8802180
S315080015F01A601A2000F03CFF28B14FF08062024BB7
S31508001600C3F880211A6008BD00E100E0074BD3F853
S315080016102404D3F8202403F50053104000F0553075
S3150800162020F05020C3F82004FFF7BCBF00C00350C9
S31508001630074BD3F82404D3F8202403F500531040AD
S3150800164000F0AA3020F0A020C3F82004FFF7AABFB4
S3150800165000C00350044BD3F88420D206FBD4D3F839
S315080016608400C0F3811070470040005038B5124B13
S315080016700546D3F880300C4603F00303022B0BD043
S31508001680032B0DD0012B0FD1FFF746FB0E2305B117
S31508001690286004B1236038BDFFF788FB0723F6E707
S315080016A0FFF734FB0623F2E7044841F2B21105F0CE
S315080016B01FF800231846EAE7008000500573000863
S315080016C038B51A4B0546D3F820010C4600F007003A
S315080016D0062821D8DFE800F028040C1410181C008E
S315080016E0FFF714FB052305B1286004B1236038BD54
S315080016F0FFF742FB0323F6E7FFF758FB0723F2E75A
S31508001700FFF750FB0223EEE7FFF700FB0623EAE7A5
S31508001710FFF732FB0423E6E7054841F22F2104F0E0
S31508001720E7FF00231846DEE70123DCE700800050C8
S315080017300573000838B5194B0546D3F828310C4609
S3150800174003F00703013B052B20D8DFE803F003135A
S315080017501B0F0B17FFF7DAFA052305B1286004B14A
S31508001760236038BDFFF7D2FA0623F6E7FFF71EFB1C
S315080017700723F2E7FFF700FB0323EEE7FFF7FCFA80
S315080017800423EAE7FFF70EFB0223E6E7044841F2E3
S31508001790370104F0ADFF00231846DEE7008000504D
S315080017A005730008F7B50027144B0197D3F8804155
S315080017B0064604F00304022C0D4614D0032C0DD063
S315080017C0012C14D1394601A8FFF77AFF10240EB16F
S315080017D0019B336005B12C6003B0F0BDFFF7E6FA54
S315080017E007240190F3E7FFF7DDFA0190EFE741F2EE
S315080017F08431034804F07CFF3C46E8E7008000504B
S315080018000573000837B500230193194B0546D3F82D
S3150800181020320C4603F00703042B1FD8DFE803F039
S3150800182025030F141900002101A8FFF783FF1223CF
S315080018300DB1019A2A6004B1236003B030BDFFF7E9
S31508001840B5FA07230190F3E704F04CFF0A23019049
S31508001850EEE7FFF7EDFA09230190E9E740F6F6719E
S31508001860044804F045FF0023E2E70123E0E700BF50
S31508001870008000500573000838B5104B0546D3F8AC
S3150800188040310C4603F00303022B0BD0032B0DD07B
S31508001890012B0FD104F026FF0A2305B1286004B1F5
S315080018A0236038BDFFF7C4FA0923F6E704F01DFFE5
S315080018B00C23F2E701230020EFE700BF0080005069
S315080018C037B500230193184B0546D3F860320C460A
S315080018D003F00703013B032B1FD8DFE803F0020ED2
S315080018E01914002101A8FFF7EBFE10230DB1019A88
S315080018F02A6004B1236003B030BD002101A8FFF7B8
S31508001900BBFF1123F2E7FFF751FA07230190EDE732
S31508001910FFF748FA02230190E8E741F29B010348E2
S3150800192004F0E6FE0023E1E7008000500573000896
S3150800193037B500230193184B0546D3F894320C4665
S3150800194003F00703013B032B1FD8DFE803F0020E61
S315080019501914002101A8FFF7B3FE10230DB1019A4F
S315080019602A6004B1236003B030BD002101A8FFF747
S3150800197083FF1123F2E7FFF719FA07230190EDE732
S31508001980FFF710FA02230190E8E741F2CE01034877
S3150800199004F0AEFE0023E1E700800050057300085E
S315080019A073B500240F4B0194D3F87032064603F042
S315080019B00303012B0D4607D0022B11D041F2F90182
S315080019C0094804F095FE04E0214601A8FFF754FFF4
S315080019D011240EB1019B336005B12C6002B070BDB5
S315080019E01524F6E7008000500573000838B5164B35
S315080019F00546D3F800020C4600F00700042819D85B
S31508001A00DFE800F020030B0F130004F06BFE0A2337
S31508001A1005B1286004B1236038BDFFF709FA092328
S31508001A20F6E704F062FE0C23F2E7FFF78FF90F23BF
S31508001A30800AEDE7054841F2424104F059FE0023C9
S31508001A401846E5E70123E3E7008000500573000820
S31508001A5038B5164B0546D3F808020C4600F00700C1
S31508001A60042819D8DFE800F020030B0F130004F050
S31508001A7039FE0A2305B1286004B1236038BDFFF793
S31508001A80D7F90923F6E704F030FE0C23F2E7FFF74F
S31508001A905DF90F23800AEDE7054841F27A4104F023
S31508001AA027FE00231846E5E70123E3E700800050F8
S31508001AB00573000838B5104B0546D3F840320C4676
S31508001AC003F00303022B0BD0032B0DD0012B0FD1F0
S31508001AD004F008FE0A2305B1286004B1236038BD66
S31508001AE0FFF7A6F90923F6E704F0FFFD0C23F2E752
S31508001AF001230020EFE700BF0080005038B5104BE7
S31508001B000546D3F860310C4603F00303022B0BD0CD
S31508001B10032B0DD0012B0FD104F0E4FD0A2305B1E8
S31508001B20286004B1236038BDFFF782F90923F6E778
S31508001B3004F0DBFD0C23F2E701230020EFE700BFEA
S31508001B400080005010B5B0F5207F2ED009D8B0F52A
S31508001B50007F24D003D868B1B0F5C07F0AD000242E
S31508001B601BE0B0F5607FFAD1124BD3F88040C4F37E
S31508001B70011412E00F4B1C6F230B13F00E0FC4F366
S31508001B8003340AD0032C08D0072C06D00F2C04D017
S31508001B904FF41E71084804F0ABFD601C10BD054BE0
S31508001BA0D3F89040C4F30464F7E7024B1C6FC4F300
S31508001BB08024F2E7008000500573000838B54FF41A
S31508001BC08032104B04469A6600200D46FFF7BAFF8E
S31508001BD041F671320C4B6043DC69DA635A6804F4E7
S31508001BE0803422F440125DB9084988428CBF4FF40C
S31508001BF080100020104358600CB10022DA6338BD0B
S31508001C000349F2E70090005000000350005A6202B0
S31508001C10002D310170B5440905460E460ED140F235
S31508001C201F310F4804F064FD05F01F05AEB104F539
S31508001C308053012000FA05F51D6070BD012C08D0FF
S31508001C40022C08D040F22931054804F051FD002441
S31508001C50EAE7044CE8E7044CE6E704F50053E8E74E
S31508001C6005730008648000506880005030B585B060
S31508001C70002180280446CDE9001100F0938029D878
S31508001C80002800F09580A0F120043D2C35D83D2C85
S31508001C9033D8DFE804F08D998D99A8A8A8A8A89943
S31508001CA0B23FC8633F999999323232323232323270
S31508001CB09999996BD2993232323232323232323281
S31508001CC0323232A88D8D8DCD3F3FD77A50AD323224
S31508001CD032323282B0F5B06F00F08F8030D8B0F56E
S31508001CE0207F71D00FD8B0F5C07F61D0B0F5007FE6
S31508001CF061D0B0F5807F00F0858040F27C41544881
S31508001D0004F0F6FC51E0B0F5607F67D00DD8B0F569
S31508001D10407FF2D1FFF71AF804464FF42070FFF718
S31508001D2011FFB4FBF0F040083EE0B0F5806F5AD0E2
S31508001D30B0F5A06FE1D100216846FFF763FD34E0F6
S31508001D40B0F5106F74D016D8B0F5E06F75D00AD814
S31508001D50B0F5C06F67D0B0F5D06FCED10021684618
S31508001D60FFF744FE21E0B0F5F06FC6D100216846C2
S31508001D70FFF7C4FE19E0B0F5406F39D00AD8B0F5C0
S31508001D80206F5FD0B0F5286FB7D100216846FFF7FE
S31508001D9007FE0AE0B0F5486FAFD100216846FFF7A5
S31508001DA0C7FD02E0FEF7B8FF0090009805B030BD09
S31508001DB0FEF7CCFFF8E7FEF7AFFF05462046FFF72C
S31508001DC0C1FEB5FBF0F0EFE7FEF7C0FF04464FF49F
S31508001DD02070FFF7B7FEB4FBF0F0E5E701A8FFF7C0
S31508001DE045FC019DEAE700216846FFF769FCDCE748
S31508001DF000216846FFF79EFCD7E700216846FFF7F3
S31508001E00D1FCD2E74FF0E02302911B695B0705D5A9
S31508001E10FEF79CFF0290029B0093C6E703A902A85F
S31508001E20FFF72AFDF7E700216846FFF725FDBCE71F
S31508001E3000216846FFF70CFEB7E700216846FFF762
S31508001E4039FEB2E700216846FFF73AFDADE700BF65
S31508001E500573000808B58020FFF708FF034B984272
S31508001E609EBF4FF48032024B1A6708BD005A6202C1
S31508001E7000A000501FB50023B0F5807F019300F045
S31508001E80C38064D85D2855D84C2806D82D2847D84D
S31508001E9023282BD840F25D51A5E04D381028F9D8F3
S31508001EA001A353F820F000BFFF1F0008951E000885
S31508001EB0951E0008951E0008B11F0008951E00080B
S31508001EC0951E000885200008CF1F0008751F00080A
S31508001ED07B200008951E0008951E0008951E000820
S31508001EE0951E0008951E00088F200008243809282A
S31508001EF0D0D801A353F820F0FF1F0008FF1F0008E1
S31508001F00FF1F0008FF1F0008FF1F0008951E000896
S31508001F10EF1F0008951E0008911F000835200008CD
S31508001F203D2800F082803E28B4D1002001A9FFF7A1
S31508001F30C1FD60E08028ADD1574B1B6F03F0070346
S31508001F40013B032B4DD8DFE803F04A47878FB0F5EE
S31508001F50F06F6AD021D8B0F5B06F48D00FD8B0F579
S31508001F60607F00F0858095D3B0F5806F47D0B0F5D7
S31508001F70A06F8FD1002001A9FFF744FC3BE0B0F524
S31508001F80D06F57D0B0F5E06FCFD0B0F5C06F81D124
S31508001F90002001A9FFF770FC2DE0B0F5206F71D085
S31508001FA00BD8B0F5086F4AD0B0F5106F7FF472AF52
S31508001FB0002001A9FFF74CFD1DE0B0F5406F5CD08D
S31508001FC0B0F5486F63D0B0F5286F7FF463AF002093
S31508001FD001A9FFF7E5FC0EE0052301930BE00223B8
S31508001FE0FBE740F2AE412D4804F082FB03E00020F7
S31508001FF001A9FFF7D7FB019805B05DF804FB00209F
S3150800200001A9FFF75DFBF6E702934FF0E0231B6992
S315080020105B0705D5FEF79AFE0D230393039BDCE7C2
S3150800202003A902A8FFF728FCF8E7002001A9FFF793
S3150800203065FDE0E7002001A9FFF7D8FCDBE7164BB2
S31508002040D3F8003103F00303022B07D0032B09D082
S31508002050012B0BD1FEF790FE0323BEE7FEF7E8FE41
S315080020600923BAE704F03CFB0823B6E70123B4E7E3
S31508002070184601A9FFF7FAFABDE7002001A9FFF7FC
S3150800208059FBB8E7002001A9FFF71AFCB3E70020BF
S3150800209001A9FFF74DFCAEE7008000500573000864
S315080020A04FF48012034B5A664FF48032024B9A6201
S315080020B0704700BF009000500050005A38B50368BA
S315080020C004460F2B04D940F649317E4804F010FB2C
S315080020D063680F2B04D940F64C317A4804F008FBA4
S315080020E0A3680F2B04D940F64F31764804F000FB5D
S315080020F0237B0F2B04D940F65231724804F0F8FAC4
S31508002100637B0F2B04D940F655316E4804F0F0FA7C
S31508002110A37B3F2B04D940F658316A4804F0E8FA05
S31508002120E37B3F2B04D940F65B31664804F0E0FABE
S315080021302369032B04D940F65E31624804F0D8FAC5
S315080021406369032B04D940F661315E4804F0D0FA7E
S31508002150E369032B04D940F664315A4804F0C8FAF7
S315080021608020FFF787FE032800F08A804FF480124C
S31508002170554B4FF0A0615A6645F60E03534AC2F80E
S315080021808030534B99624FF4803103F5805399623E
S31508002190936DD903FCD4916D11F08041FBD1D4E93C
S315080021A000031B0543EA0063E07B0343207B43EA05
S315080021B00043607B43EA0033A07B43EA8013136144
S315080021C09069D4E904531B0643EA856300F000408E
S315080021D00343A07EE57E0343207E43EA0043607EF8
S315080021E043EA00239361E069136A00280CBF0022C2
S315080021F0082223F00F0343EA000343EA850343EA70
S315080022000203324A334D13623BD194F82430916A63
S3150800221094F82000DB000D4043EA401394F821109F
S315080022202B4343EA011343F4803393622A4B916D9F
S3150800223033EA0101FBD14FF08071254881621369A9
S31508002240A56823F4700343EA055313614FF000436E
S31508002250836194F822300BB9204B996294F82330A5
S315080022603BB94FF480321D4B9A62184A936D5B0056
S31508002270FCD494F825301BB1144B194AC3F88020B6
S3150800228038BD022808D11161164891614FF40852E9
S315080022904FF47F4104F093FA0C4994F822308A6A85
S315080022A094F820001B06154043EA401394F82420AE
S315080022B02B4343EAC20394F8232043EA02438B6282
S315080022C0D7E700BF05730008009000500040005A89
S315080022D00050005AC7FFFEFE030001000060005AC6
S315080022E0F1A7FFFF3440005A014B93F900007047ED
S315080022F089100020014B1880704700BF8410002009
S3150800230038B5B0F5207F77D00ED8B0F5007F61D00C
S3150800231003D890B3B0F5C07F2FD040F20231BDE8A4
S3150800232038403D4804F0E4B9B0F5607FF5D13B4A42
S315080023304C1ED2F8FC5015F080751EBFD2F8FC3042
S3150800234023F08073C2F8FC30032C04D940F2E32151
S31508002350314804F0CDF9324BD3F8801021F0300122
S3150800236041EA0411C3F8801035B12C4AD2F8FC3082
S3150800237043F08073C2F8FC3038BD102901F1FF34F0
S3150800238004D8284B23FA01F1CB0704D440F2B9212B
S31508002390214804F0ADF904F023FA04F02FFA4FF4BB
S315080023A08031214B1E4A1967136F23F4704343EAA1
S315080023B004331367FEF7CAFC0446FFF74BF9C0F16E
S315080023C00201204604F014FA00F040F8BDE838404F
S315080023D0FFF740BD4C1E1F2C04D940F2F6210E48CB
S315080023E004F086F90E4BD3F8901021F0F85141EA23
S315080023F00461C3F89010BFE74C1E012C04D94FF4B2
S315080024003F71054804F074F9054B196F21F4806192
S3150800241041EA84211967AFE70573000800ED00E07B
S3150800242000800050160101000090005008B50121F7
S31508002430022000F049F804F0D3F904F0DFF94FF46C
S315080024408032014B1A6708BD0090005008B54FF45A
S31508002450C070FFF70BFCBDE80840044988428CBFF2
S31508002460022101214FF42070FFF74ABF80F0FA02DB
S3150800247038B5C5B24B2D044604D940F21631074883
S3150800248004F036F9064B640953F8240005F01F05D5
S31508002490E840C04300F0010038BD00BF4C73000897
S315080024A000E100E0024A536B0342FCD1704700BFCB
S315080024B000400950034A0179D36E23F030030B43D9
S315080024C0D3667047004000502DE9F0410446264B7C
S315080024D0D3F88420D006FBD4D3F88430C3F3811311
S315080024E09C423ED0FEF718FC012C05460BD11F4B2B
S315080024F0984204D940F261711D4804F0F9F80121A7
S31508002500284604F075F904F093F94FF00072194B58
S3150800251007465A66204604F09BF94FF48063124E2C
S31508002520621E9340DFF848803367736E9A0103D4BE
S31508002530D6F884309B060AD5384604F07DF9022C75
S315080025400FD12846BDE8F041002104F051B9D6F86C
S3150800255084309906E9D540F26F71404604F0C8F810
S31508002560E3E7BDE8F08100BF00400050005A620270
S31508002570947300080060005007B518B90191FEF77A
S31508002580CBFB0199064B1B7843B1064B984205D8FD
S31508002590012003B05DF804EBFFF796BF0220F8E7C9
S315080025A078320020005A620238B54FF00042244BB8
S315080025B0244C5A664AF6CD33656C014605F001058A
S315080025C0236430BB0120FFF76DFF6368DB0708D47F
S315080025D0002415B11B4B1C4A1A6404F03AF920462C
S315080025E038BD1A4B58600846194B226BD20705D4DA
S315080025F0984201D10724ECE70130F6E79842E7D183
S31508002600F8E70132236B13F0080305D08A42F8D1A4
S31508002610F0E700220E49F5E78A42EBD020210B4A63
S3150800262091620121A2F5805251600649084A886ADA
S31508002630800603D49342DDD00133F8E79342DEE700
S3150800264000900050004009503254FFFF00600950C6
S3150800265040420F0038B54FF00042164B01465A6605
S315080026604AF6CD33144C154A656C236443780B201F
S315080026705B0043F00103D363FFF714FF63688A78AE
S3150800268023F4F87343EA02136360CA784B7943EA82
S315080026900223A3600A798B7943EA02232361087827
S315080026A0FFF782FFEB0744BF054B236404F0D1F81C
S315080026B0012038BD009000500040095000400050ED
S315080026C03254FFFF70B50F28044604D940F6FC5172
S315080026D0134804F00DF84FF00042124B12495D6E94
S315080026E003F580535A664AF6CD334E6C80200B6448
S315080026F0FFF7D8FE0B6A23F00F030F2C94BF234372
S3150800270043F00F030B62F30744BF084B0B64002D1D
S31508002710A2BF4FF00042064B5A6604F09AF870BD05
S315080027209473000800800050004009503254FFFF9F
S3150800273000A0005038B50D460446B0B1012817D0A0
S31508002740022817D0032803D10F23EB40DB0704D454
S3150800275040F22D41084803F0CBFF302001214443C5
S31508002760064B01FA05F51D5138BD40F2FF13ECE79B
S315080027701F23EAE7FF23E8E7B872000840D00350B2
S3150800278038B50D460446B0B1012817D0022817D02F
S31508002790032803D10F23EB40DB0704D440F2FE31B4
S315080027A0084803F0A5FF302001214443064B01FAEF
S315080027B005F51D5138BD40F2FF13ECE71F23EAE784
S315080027C0FF23E8E7B872000840E003502DE9F0411E
S315080027D00D46174698460446002835D0012836D0B7
S315080027E0022836D0032803D10F23EB40DB0704D495
S315080027F04FF4B0711C4803F07BFF37B129462046D9
S31508002800B8F1000F27D0FFF795FF0F21072D04EB2E
S31508002810440688BFA5F108034FEA0616134895BF74
S31508002820AB009B0004360C3607FA03F29940304495
S3150800283004F010F8B7B929462046B8F1000F0DD0B4
S31508002840BDE8F041FFF776BF40F2FF13CDE71F233F
S31508002850CBE7FF23C9E7FFF793FFD6E7BDE8F041CB
S31508002860FFF78EBFBDE8F081DB73000830C0035068
S3150800287010B54FF400120B4BC3F88020BFF34F8FEF
S31508002880BFF36F8F0024FF22074B21465C6520208B
S315080028909A625C60FFF7BEF92146BDE81040212028
S315080028A0FFF7B8B900E100E00000045038B5072882
S315080028B004460D4603DD7721094803F019FF1F2C4E
S315080028C003D99121074803F013FF074B074A012054
S315080028D0002D18BF134600FA04F41C6038BD00BF6B
S315080028E0237400086B7400084010045040200450FC
S315080028F010B5044618B991211F4803F0F9FE23784C
S315080029001B0613F0604F03D092211B4803F0F0FE1C
S31508002910E3780F2B03D9A321174803F0E9FE012119
S315080029202020FFF777F901212120FFF773F901220B
S31508002930124B5A60227812069A606178A27842EAA7
S3150800294001429A61FF229A6200229A631A644FF042
S3150800295000425A654FF0FF324FF4001103F5005359
S315080029601A65074AC2F88011E3781B01DBB282F8C0
S315080029701533116010BD00BF237400080000045011
S3150800298000E100E02DE9F0410126C3B2072805461B
S315080029900C46904606FA03F603DDEC21364803F0AA
S315080029A0A7FE1CB9ED21344803F0A2FE236823F4E0
S315080029B07C1323F00F031BB1F0212F4803F098FE78
S315080029C0A37A1B0413F47C0F04D040F209112A4899
S315080029D003F08EFEE37A1B0513F07E6F04D040F2F7
S315080029E00B11254803F084FE237B5B0513F0FE5F7D
S315080029F004D040F20D11204803F07AFE30201F4F14
S31508002A001F4B617B1E65AB0000FB0575226803F151
S31508002A10A04303F588235A602966E37AA27A1B0540
S31508002A2043EA0243227B43EA425328F00302EB655A
S31508002A302A6703F004FF7B6D33437B65237A13B162
S31508002A403B6C33433B64637A13B1BB6B3343BB6361
S31508002A502279A37943EA0243094A93616179E379C2
S31508002A6043EA014307498B61044B56639E64BDE8FC
S31508002A70F04103F0EABE00BF2374000800000450CA
S31508002A80002004500010045010B50124C3B20728D2
S31508002A9004FA03F404DD40F29711074803F028FE10
S31508002AA003F0CDFE054B5A6D22EA04025A659C6274
S31508002AB0BDE8104003F0C9BE2374000800000450A6
S31508002AC010B50124C3B2072804FA03F404DD40F262
S31508002AD0B5110A4803F00CFE03F0B1FE084BDA6A9A
S31508002AE0224209D15B6B34EA03030CBF012400249C
S31508002AF003F0ABFE204610BD0024F9E72374000856
S31508002B00000004504FF48032064B5A6603F5E6235C
S31508002B109B69C3F38512827003F03F021B0B427058
S31508002B2003707047009000502DE9F04180460E462C
S31508002B301F46154622B94FF4A171314803F0D8FD56
S31508002B4026B94FF42070FFF791F80646402F2AD091
S31508002B5009D8A7B1202F1CD040F28911BDE8F04151
S31508002B60274803F0C5BD602FF6D1B5EB960F04D9FB
S31508002B7040F28311224803F0BBFD04241DE0B5EBA7
S31508002B80161F04D94FF4BA711D4803F0B1FD10247D
S31508002B9013E0B5EBD60F04D940F27911184803F0C3
S31508002BA0A7FD082409E00624B6FBF4F3AB4204D2D9
S31508002BB04FF4BF71124803F09BFD6C43610801EBAB
S31508002BC04616B6FBF4F40F4E203CB6EBC40F4FEA9C
S31508002BD0C40504D24FF4D071094803F089FDD8F82A
S31508002BE00830354023F06003C8F80830D8F80830B4
S31508002BF01F43C8F80870C8F81C50BDE8F08100BF2C
S31508002C00B3740008F8FF7F0038B50C4B04469842A9
S31508002C100D4604D04FF43371094803F069FD0122CB
S31508002C2004F580535A60EB43934003F00A0363614B
S31508002C30656115B904F50054626038BD00C00550D9
S31508002C40B374000810B5124B0446984204D040F2FB
S31508002C504241104803F04CFD012104F580535960A8
S31508002C6040F6AA6341F20502636100230A48A3609D
S31508002C70E365E26004F500522361E361E36490646E
S31508002C800348A365844204BF23656365516010BD8C
S31508002C9000C00550B3740008FFFF010070B5304B43
S31508002CA0044698420D4604D040F2FD212D4803F013
S31508002CB01FFD2046FFF7C6FF012304F58056736003
S31508002CC0AB7C1BB1A36843F08043A360EB7C5BB18C
S31508002CD0234B9C4202BF2A7DA3F51033C3F8C821B3
S31508002CE0E36D43F08003E3652A8A6B7B2046134332
S31508002CF0EA891343E3602B7BD5E90112FFF714FF3A
S31508002D006B7D1BB1A36843F48033A360AB7D1BB115
S31508002D10A36843F40043A360EB7D2A7E1B071205D4
S31508002D2002F4E00203F0E0431343A3656B7E9A1EA8
S31508002D30012A4FF0020209D80B49032BC1F82027B4
S31508002D4009D10423F3652B78636170BD0749012B0C
S31508002D50C1F82027F4E7042204F50053DA65F2E700
S31508002D6000C00550B374000800D0035000E00350BB
S31508002D70054B9A689107FCD45A689207F9D4DA6920
S31508002D80002AF6D1704700BF00800A5008B5FFF741
S31508002D90EFFF0122024B03F580514A601A6108BD14
S31508002DA000800A50074B5A68012A0AD15A68D20786
S31508002DB002D5DA69002AF9D102221A610122024BE8
S31508002DC05A60704700800A5000A00A5010B5064C99
S31508002DD0FFF7CEFF6368012B03D1FFF7E3FFFFF789
S31508002DE0C7FF0378E36010BD00800A5018B171214F
S31508002DF0104803F07DBC4A680B7812B1127843EA92
S31508002E00C2034A78002A14BF0222002213438A68A2
S31508002E1012B1127843EA82138A78002A14BF042270
S31508002E2000221343CA6812B1127843EA4223024ABF
S31508002E3093647047FC74000800800A5020B14FF470
S31508002E408271034803F054BC024B5964704700BFB3
S31508002E50FC74000800900A5020B14FF4A071034892
S31508002E6003F046BC024B5964704700BFFC74000867
S31508002E7000A00A5020B14FF4BE71034803F038BCD5
S31508002E80024B1964704700BFFC74000800A00A5082
S31508002E9008B530B1044840F2B71103F029FC002008
S31508002EA008BD024B186CFBE7FC74000800800A504A
S31508002EB008B548B1084840F2662103F019FC00201D
S31508002EC008BD064BD86CFBE70029FAD00129F7D1D3
S31508002ED0024B186DF4E700BFFC74000800800A5026
S31508002EE050B14FF44171074803F002BC064BDA644F
S31508002EF07047054B1A6570470029F7D00129F8D0A5
S31508002F00704700BFFC74000800800A5007B5094BDB
S31508002F1018689A889B7900906846ADF804208DF861
S31508002F200630FFF797FB0320FFF7CCFB002003B022
S31508002F305DF804FB5375000813B50024064A684675
S31508002F40536F43F00103536700948DF80440FFF76D
S31508002F50B1FA204602B010BD0040005030B58BB023
S31508002F606C461C4D0FCD0FC40FCD0FC495E803005A
S31508002F7084E80300184BD3F84C21120321D4D3F864
S31508002F80504114F0FF0406D14FF6FF72134B1B880D
S31508002F90934219D01C468DF81940FFF7A5F920442D
S31508002FA080F308008DF818000D48FDF7EBFE68461B
S31508002FB0FFF784F84FF4FA70FFF79CF900200BB07E
S31508002FC030BD4FF0FF34DFE7631C14BF00248C24A8
S31508002FD0E1E700BF5C7500080080E00F0001E00F24
S31508002FE0C017530210B56FF0040250210A480B4C63
S31508002FF012F0800FD3B21BBF03F00F03043BA318D4
S315080030001B1802F101020CBF83F8001319764C2A2B
S31508003010EED1002010BD00BF00ED00E000E100E0A9
S3150800302073B503F005FC104D104B2E781C6803F0A1
S3150800303003FC03F0D6FC60B1FF2E0AD000202978E5
S3150800304001AA03F056FB18B18F21094803F050FB7B
S31508003050019C2CB903F0ECFB064B1C6803F0ECFB57
S31508003060204602B070BD00BF8A1000208C1F0020C9
S3150800307084750008901F002010B5044603F0D8FB9D
S31508003080024B1C6003F0D8FB002010BD901F0020E7
S3150800309038B53022037A0446534303F1A04303F5B7
S315080030A08023DD6ED0E9032313449D4201D8AA424A
S315080030B004D94FF43E71054803F01AFBD4E903031B
S315080030C003449D4218BF284638BD00BFDB7500087B
S315080030D030B587B0144605461046FFF7D9FF636931
S315080030E0024683423CBFD4E903315B181B1AABB1D5
S315080030F01249284603910021CDE9013101230494A0
S315080031000093D4E9001303F040FB20B14FF4347167
S315080031100B4803F0EDFA002007B030BD01226276B5
S3150800312094F82D20002AF6D084F835301321E36967
S31508003130204698472046636A9847ECE7D13000084E
S31508003140DB7500087FB504460D4690F8376000F039
S315080031507FFE02282AD16DB346BBD4F88C3023B142
S315080031604FF4B2711B4803F0C3FA1B4B00210093BE
S3150800317004F19003029350236A46012001910393B8
S3150800318000F072FFC4F88C0020B940F26D111148A6
S3150800319003F0AEFA237E4BB1D4F88C0000F0F0FFB2
S315080031A020B14FF4B9710B4803F0A2FA84F83750EE
S315080031B004B070BD002EF9D0D4F88C0001F02AF8BE
S315080031C020B14FF4BC71034803F092FA0023C4F807
S315080031D08C30EBE7DB750008377600082DE9F047F9
S315080031E088B004460F461546984600F031FE022878
S315080031F0064616D14FF0FF31A06B00F0B7FE002847
S3150800320040F0248194F837305BB14FF0FF31D4F8A1
S315080032108C0000F07FFF20B140F293218C4803F028
S3150800322067FA03F00CFB814665B1237E03F0FF06BF
S315080032301BBB94F837502DB140F26331844803F034
S3150800324057FA35464846C8F8005003F0FEFA00F02B
S31508003250FFFD022808D1A06B00F0B8FE20B140F2AD
S315080032609F217B4803F044FAD8F80030002B0CBFA6
S315080032701B20002008B0BDE8F0872046FFF708FFAE
S3150800328063690646984206D1637E23B940F27F31C8
S315080032906F4803F02DFA626996429CBFD4E9036031
S315080032A03618B61AAE4228BF2E4603F0C8FA94F866
S315080032B02D308246002B40F08880324638466169B8
S315080032C003F032FD63693546334463612BE0606978
S315080032D0037803F0FD01112974D1216B884205D1C9
S315080032E0A3F111014B424B4184F83430013D636927
S315080032F0216B01328B4203F1010308BF236363612B
S315080033009642E4D1D4E90323216B1344994208BFBA
S315080033102263216B8A4201D88B4204D84FF46D711F
S315080033204B4803F0E5F9D4E903236169134499424C
S3150800333008BF626161698A4201D88B4204D84FF49A
S315080033407171434803F0D4F90023207A6376FEF7B7
S3150800335035F820B140F211313D4803F0C9F920464D
S31508003360FFF796FE6369834232D10023E668237627
S3150800337094F82D30666103B126632046636A984740
S31508003380344B324603930023029323692168019341
S315080033900123207A00930494636803F0F6F920B1B8
S315080033A040F22D312A4803F0A3F9207AFEF726F8D1
S315080033B020B140F25131264803F09AF9504603F0FD
S315080033C044FA3FE707F8013B91E73546002297E7BD
S315080033D00123237694F83730ABB1237E23B940F224
S315080033E036311B4803F084F9D4F88C0000F0FAFE55
S315080033F048B9D4F88C0000F0C3FE20B140F2393148
S31508003400134803F075F9207A0DF11E01FEF75EF8F0
S3150800341020B14FF450710E4803F06AF99DF81E303A
S31508003420002BC2D0207A0DF11F01FEF727F820B134
S3150800343040F24631064803F05BF99DF81F10002953
S31508003440B3D12246207AFFF743FEAEE7304611E7AE
S31508003450DB750008D130000870B50546046800F031
S31508003460F7FC022816D14FF0FF31D4F8E00000F03F
S315080034707DFD20B14FF4DA71374803F039F94FF082
S31508003480FF31A06B00F072FD20B140F2B71132484F
S3150800349003F02EF9FFF7C4FD854202D10020FFF79D
S315080034A0EBFD94F93630002B11DB012203F01F01E6
S315080034B05B099B0003F160438A4003F56143C3F847
S315080034C08021C3F88020BFF34F8FBFF36F8FD4F8E6
S315080034D08C0000F09FFE20B140F2CF111E4803F089
S315080034E007F9A06B00F09CFD20B14FF4E9711A486A
S315080034F003F0FEF8D4F8E00000F092FD20B140F2A7
S31508003500D511154803F0F4F8207AFDF797FF20B196
S315080035104FF4ED71104803F0EBF8207AFDF7F4FE4E
S3150800352020B14FF4EF710C4803F0E2F8FDF7CAFE3C
S3150800353038B10A4B984204D04FF4F171064803F0AB
S31508003540D7F800232046C5E90033C5E90433AB6044
S31508003550A36ABDE870401847DB750008058000F0CF
S315080035602DE9F84304460D46164600F071FC02287C
S31508003570074641D094F82C80DFF8DC902E44AE4202
S3150800358029D094F82D308BB103F059F9237E0746DC
S31508003590002B3BD1226B63699A4204D040F2F911A1
S315080035A0484603F0A5F8384603F04FF994F8343046
S315080035B0002BE4D0B8F1000F06D02B780A2B03D1E4
S315080035C00D212046E36998472046E36915F8011B53
S315080035D098470028D3D000F03BFC022809D1D4F83C
S315080035E0E00000F0F3FC20B140F277211A4803F01E
S315080035F07FF80020BDE8F8834FF0FF31D4F8E000EB
S3150800360000F0B4FC0028B5D03846F3E72046FFF7AB
S315080036103FFDE1680138884238BF2069D4F830C0D8
S315080036203CBF00F1FF30401803469C450BD013F809
S315080036300129112A01D0132A07D1A2F111035A42EE
S315080036405A4184F834202063ADE7994282BF236942
S3150800365003F1FF335B18E8E7DB750008F0B58FB0B8
S315080036600C460546164600214FF49A7220461F4618
S3150800367003F067FB96E80300002332692376F368B4
S3150800368084E80300C4E90423327DE36084F82C202F
S31508003690B27D2363012384F8343084F83530149BD3
S315080036A084F82D202362159BE7616362169BA3624B
S315080036B0337A84F836303F4B2C606B603E4BAB60F8
S315080036C03E4B2B613E4B6B613E4BEB60FDF742FE7A
S315080036D030B13D4B984203D0102420460FB0F0BDC0
S315080036E0002104F10800FDF7BDFD0028F4D1374B91
S315080036F0AB61374BEB61012384F83730354BCDE9A5
S31508003700063004F13C030893502306A8099300F0F9
S31508003710EBFBA06318B9C1212F4802F0E9FF2F4B34
S3150800372006A806930023079304F1E403089300F020
S31508003730DBFBC4F8E00018B9C721274802F0D8FF18
S31508003740274B00210A9304F190030C935023012080
S315080037500AAA0B910D9300F087FCC4F88C0018B9DF
S31508003760CF211D4802F0C4FF1E4B012703930023F7
S31508003770049402932369009701936368E2682168B9
S31508003780207A03F002F804460028A5D196F90830F5
S31508003790002B0BDB03F01F025B099B0003F1604360
S315080037A0974003F56143C3F880711F602846FFF709
S315080037B063FC92E761350008DD310008AB68000854
S315080037C0B168000859340008038000F04531000844
S315080037D0B768000843760008DB7500084D760008D0
S315080037E037760008D13000082DE9F04186B01C462E
S315080037F05A4B012702935A4B0C9D0193002390467E
S3150800380000930A46CDE903772946564BFFF726FF6C
S31508003810064600287DD123683946C5F834316368E1
S315080038203A20C5F83831637A85F83D31237A85F828
S315080038303C31E37A85F83F31A37A85F83E31637BDC
S3150800384085F84131237B85F84031E37B85F84331A0
S31508003850A37B85F84231FEF7DDF93B460422617AFF
S31508003860207AFEF7B3FF3B460222E17AA07AFEF7FA
S31508003870ADFF39466068FEF7CDF988F80060414625
S315080038802068FFF70BFA1420617C374B01F13902E7
S3150800389052019850607A227A03EB411342EA0042B9
S315080038A0C3F83827E17AA27A42EA0142C3F83027F8
S315080038B085F8446198F81930032B4DD8DFE803F0F2
S315080038C01F022D470123002785F8443100230222D1
S315080038D0617B207BFEF77AFF617B227B637C42EA71
S315080038E0014241F228715B0103F1A04303F57033ED
S315080038F05A500422236803F58053DA6587B9D5F848
S3150800390034210521D36C206843F00403D364FFF700
S315080039107BF9304606B0BDE8F081022385F84431CC
S3150800392000230422E17BA07BFEF750FF0220617C86
S315080039300D4B01F1B9025201985003EB411341F2C4
S315080039402C71E07BA27B42EA00425A50D7E7032358
S31508003950012785F84431B9E72326DAE7CB6800085A
S31508003960BD6800084969000800C0035038B50468F6
S31508003970237ED4F83401CBB9C36C23F00403C364A3
S315080039800123237694F8373093B3D4F88C0000F0EB
S3150800399029FC68BBD4F88C0000F0F2FB40B3BDE804
S315080039A038404FF48271184802F0A2BE637E2BB3EA
S315080039B094F82D3013B30025132184F8355002F0FE
S315080039C05BFFD4F83431DA6C42F00402DA645B6ADD
S315080039D0DBB2112B0DD1012384F834303022237A3F
S315080039E0534303F1A04303F58023DB6E013B2363B6
S315080039F038BD132BFCD184F83450EFE7C36C23F0A1
S31508003A000403C364F4E700BF5876000830B50F4CCA
S31508003A1041612368ABB92060836011E0891A9A680E
S31508003A201D4641612AB113465A698A42F6D955B1EB
S31508003A301A461346A860836013B15A69511A596128
S31508003A4030BD0025F0E72060F5E700BFA01F002085
S31508003A5010B500F085F90A4C0A4B19682368C31A91
S31508003A6001B10BB9206010BD4A699A423ABF9B1A48
S31508003A700022D21A4A6128BF00238968F0E700BFEE
S31508003A80941F0020A01F002038B5134D2B685B69D2
S31508003A9093B1124A022014681C4402F060FF2046C3
S31508003AA000F066F900230E492A680B70D088800753
S31508003AB009D501230B7038BD022002F050FF022001
S31508003AC000F0A4F9EEE79268002AF4D0506903449E
S31508003AD0012BEBD9EFE700BFA01F0020941F0020A1
S31508003AE07A32002000220C490B687BB183420AD146
S31508003AF083687AB1936083681BB15A6941690A443D
S31508003B005A61002070471A469B68EEE70028EFD0F6
S31508003B10022070470B60EEE7A01F002070B502F088
S31508003B208EFE144E05463478FCB9134B1C60134BB5
S31508003B301C60134B1C8000F0E1F8012002F00FFF17
S31508003B4002F030FF0F4B0246186020B9284602F0F3
S31508003B507CFE232070BD234640F2E7310A4802F076
S31508003B6035F80A4B186001233370284602F06DFEBB
S31508003B700020EFE779320020A01F0020941F0020C4
S31508003B806C2B00209C1F002018FCFFFF981F0020AC
S31508003B902DE9F84FC20704460BD54F4A138801335F
S31508003BA09BB21380FFF754FF4C4B1B680BB1FFF712
S31508003BB06BFFA30740F18E8002F041FE4FF0000A2A
S31508003BC005465646FFF744FFD046444FDFF81491A2
S31508003BD03C680CB163698BB10022414B012E1A7007
S31508003BE003D11AF0020F18BF1E70002C62D0FFF71F
S31508003BF04BFF2846BDE8F84F02F027BE23461A7940
S31508003C002179914288BF1C469B6813B15A69002ADC
S31508003C10F5D0284602F019FED4F810A0BAF1000F24
S31508003C204CD000F09DF8A269851AEB17AA4578EBE7
S31508003C30030344DA236913440122A36123691BB3EE
S31508003C4012BBEB17BAEB050563EB4303002B04DA4B
S31508003C5040F22A51484602F04BFDA38B33B1E28B62
S31508003C6013449BB2B3F57A7F1CD2E38302F0E7FDD7
S31508003C70824629462046FFF7C9FEA36922695046AF
S31508003C801344A36102F0E1FDE368B4F806A0013627
S31508003C9013B120462168984702F0D1FD0546FFF783
S31508003CA0D7FE95E7A3F57A73E383A369013D013B44
S31508003CB0A361DBE7022000F093F89AE7554602F085
S31508003CC0BEFD83462046FFF70DFF584602F0BDFDB0
S31508003CD00022B3E7BDE8F88F6C2B0020A01F002058
S31508003CE07B320020B5760008034B5A68D20702D506
S31508003CF0DA69002AF9D1704700800A5010B586B0F3
S31508003D00002401213E20ADF80810CDE903448DF8C2
S31508003D1004408DF80A400594FDF77CFF01A8FFF7DB
S31508003D2055F8204602A98DF80840FFF75FF82046A7
S31508003D300F21FFF791F80F212046FFF79BF8FFF7B1
S31508003D4025F8FFF7D1FF0822034B9C61034BC3F804
S31508003D5088219A6006B010BD00800A5000E100E094
S31508003D6008B5FFF7C1FF014B986908BD00800A50E6
S31508003D70F8B5044602F05CFDFFF7B6FF164B07469A
S31508003D809D6902F0E8FD06460020FFF781F88307E3
S31508003D9004D4731B032B01D8AE420FD10021631B39
S31508003DA0022B98BFEC1C0846B4F1FF3F2CBF2246F5
S31508003DB0621EFFF795F8022002F0D1FD384602F0A0
S31508003DC03BFD064A137833B103498B6C43F0010374
S31508003DD08B6400231370F8BD00800A508B100020F6
S31508003DE0830700F0010109D50122064B41F00201C3
S31508003DF01A70054A936C23F0010393640020FFF7B9
S31508003E002BB800BF8B10002000800A50830742BFE2
S31508003E100222014B1A64704700900A50EFF305839B
S31508003E2073B9EFF31082094B12B9EFF3118212B18D
S31508003E301A68022A04D0186828B901221A6070473D
S31508003E406FF0050070474FF0FF307047842200205E
S31508003E5008B501F027FA38B1022804D0034B1868D0
S31508003E60431E5842584108BD0320FCE7842200201F
S31508003E7010B5EFF30583ABB9EFF310820C4B12B90B
S31508003E80EFF3118212B11A68022A0BD01A68012AB6
S31508003E900BD10024074AD47702221A6000F06AFF81
S31508003EA0204610BD6FF00500FBE74FF0FF30F8E73E
S31508003EB08422002000ED00E008B5EFF3058373B90E
S31508003EC0EFF3108313B9EFF311831BB1054B1B688E
S31508003ED0022B04D010B101F09BF8002008BD6FF04A
S31508003EE00500FBE78422002070B50546EFF305863A
S31508003EF016B10024204670BDEFF3108212B9EFF315
S31508003F0011821AB1184A1268022AF2D015B16E68DF
S31508003F103307EED406F001067DB1D5E9021351B197
S31508003F204F2BE6D9DEB1042002F02CFE0446002809
S31508003F30DFD02D680AE0002BDBD196B1042002F011
S31508003F4036FE04460028D4D0002DF2D12946204654
S31508003F5000F08AFD002ECDD044F00104CAE7012006
S31508003F60E2E70120EBE700BF8422002010B50346F4
S31508003F700C4620F0010003F00103EFF30582E2B9D5
S31508003F80EFF3108212B9EFF311821AB10E4A1268D2
S31508003F90022A12D0A0B1214663B100F0DBFC012849
S31508003FA001D1002010BD002C14BF6FF001006FF086
S31508003FB00200F7E700F030FCF1E76FF00500F1E7E3
S31508003FC06FF00300EEE700BF8422002008B5034621
S31508003FD020F0010003F00103EFF30582C2B9EFF305
S31508003FE0108212B9EFF311821AB10C4A1268022A2A
S31508003FF00ED080B13BB100F0CDFA01280CBF0020ED
S315080040006FF0020008BD1A46194600F02DFAF4E7CB
S315080040106FF00500F6E76FF00300F3E7842200204F
S3150800402007B520F00100EFF30583A3B9EFF310837A
S3150800403013B9EFF311831BB10A4B1B68022B0AD085
S3150800404060B1019000F022FD019800F033FD0020D8
S3150800405003B05DF804FB6FF00500F9E76FF00300A5
S31508004060F6E700BF8422002073B50E461546EFF327
S3150800407005831BB10024204602B070BDEFF3108300
S3150800408013B9EFF311831BB1214B1B68022BF1D037
S315080040900028EFD0B042EDD3EDB1D5E90232C3B175
S315080040A04F2AE7D9012829D1032200920022114676
S315080040B000F028F904460028DCD0CEB100231A46C1
S315080040C0194600F0D1F9012812D0204600F0F2FC7A
S315080040D0D0E7002ACED1012804D10322002100F01E
S315080040E04FF9E7E7314600F0A5F904460028C1D0A4
S315080040F05DB92946204600F0B7FCBCE71A463146AA
S3150800410000F078F904460028B4D02D68F1E700BF1E
S315080041108422002013B50C4648B3EFF305834BB948
S31508004120EFF3108313B9EFF31183BBB1134B1B687D
S31508004130022B13D1DCB9214601AA019400F02AFC0E
S31508004140012811D1019B13B9002002B010BD4FF010
S31508004150E0234FF08052C3F8042DF5E7214600F01E
S315080041605BFB0128F0D02CB96FF00200EDE76FF089
S315080041700300EAE76FF00100E7E700BF84220020AA
S3150800418013B548B3EFF305834BB9EFF3108313B9AF
S31508004190EFF31183B3B1124B1B68022B12D1002423
S315080041A001A9019400F06CFA012812D1019B13B9F8
S315080041B0002002B010BD4FF0E0234FF08052C3F844
S315080041C0042DF5E700231A46194600F04DF9012893
S315080041D0EED06FF00200ECE76FF00300E9E700BFEE
S315080041E084220020034690B1EFF305824AB9EFF323
S315080041F0108212B9EFF3118232B1054A1268022A07
S3150800420002D1184600F024BC184600F00DBC7047D1
S315080042108422002007B5EFF30583A3B9EFF31083D3
S3150800422013B9EFF311831BB10A4B1B68022B0AD093
S3150800423060B1019000F02AFC019800F03BFC0020D8
S3150800424003B05DF804FB6FF00500F9E76FF00300B3
S31508004250F6E700BF8422002040F67411014802F0F8
S3150800426047BA00BF10770008034B0360034B0B6087
S31508004270A0231360704700BF24220020A41F00203B
S31508004280034B0360034B0B60A0231360704700BF0A
S31508004290082500208822002038B50D46044620B996
S315080042A04FF48D71164802F023FA01F0F7FAD4E9B3
S315080042B00F314B432268D0185B1A1344A060E360A1
S315080042C00020FF23A063626084F8443084F84530F8
S315080042D065B9236933B104F1100000F045FF08B150
S315080042E002F0F3FC01F0E8FA012038BD04F11000F1
S315080042F002F079FB04F1240002F075FBF2E700BF37
S315080043006E770008F7B50D4616461C46074620B9CF
S3150800431040F25511194802F0EBF924B940F2591147
S31508004320164802F0E5F926B325B940F25D1113489F
S3150800433002F0DEF950230193019B502B04D04FF471
S31508004340B3710E4802F0D4F9019B7CB10121002D0E
S3150800435008BF26462046C4E90F7584F8461026602D
S31508004360FFF79AFF9DF8203084F84C30204603B0BA
S31508004370F0BD002DDED04FF4AF71D8E76E77000898
S31508004380F8B50D461746064620B940F29311184867
S3150800439002F0AEF905FB06F485B1B4FBF5F3B342BA
S315080043A004D040F29B11124802F0A2F914F1510F01
S315080043B004D94FF4CF710E4802F09AF904F150006F
S315080043C001F028FB044670B1002380F8463065B139
S315080043D000F1500301212046C4E90F652360FFF769
S315080043E05BFF84F84C702046F8BD0346F2E700BF31
S315080043F06E77000873B50D461646044620B940F296
S31508004400DD210B4802F074F9AC4204D240F2DE21F9
S31508004410074802F06DF9022300220093114633463D
S315080044202046FFF76FFF00B1856302B070BD00BF7D
S315080044306E77000838B50D46044620B940F2FA21D1
S31508004440084802F055F9AC4204D240F2FB2105486F
S3150800445002F04EF9022200212046FFF791FF00B133
S31508004460856338BD6E7700082DE9F04385B00F46A1
S315080044701E460446019220B940F21931444802F01A
S3150800448037F937B9236C23B140F21A31404802F0A4
S315080044902FF9022E07D1E36B012B04D040F21B3112
S315080044A03B4802F025F900F0FDFE30B9019B23B127
S315080044B040F21E31364802F01BF94FF00008C1469B
S315080044C001F0ECF9A26BE36B9A4201D3022E13D1E9
S315080044D032463946204602F0D2FA636A1BB104F125
S315080044E0240000F041FE08B102F0EFFB01F0E4F908
S315080044F0012005B0BDE8F083019D1DB901F0DCF986
S315080045000020F6E7B8F1000F02D102A800F06EFE0F
S3150800451001F0D2F900F070FC01F0C0F994F84430CB
S31508004520FF2B08BF84F8449094F84530FF2B08BF4A
S3150800453084F8459001F0C0F901A902A800F062FECE
S31508004540F8B901F0ABF9A26BE36B9A420FD101F00F
S31508004550B3F9019904F1100000F0CCFD204602F0F1
S31508004560D9FA00F0EBFC48B902F0AFFB06E001F01F
S31508004570A3F9204602F0CEFA00F0E0FC4FF001085D
S315080045809EE7204602F0C6FA00F0D8FCB8E700BF5E
S315080045906E77000838B5044620B940F27A210A48F1
S315080045A002F0A6F8A56800F077FE85420AD1E3680E
S315080045B0013BE36023B91A4619462046FFF754FF24
S315080045C0012000E0002038BD6E7700082DE9F84389
S315080045D0894690461F46044620B940F2ED312748E1
S315080045E002F086F8B9F1000F06D1236C23B140F228
S315080045F0EE31224802F07CF8022F07D1E36B012B3B
S3150800460004D040F2EF311D4802F072F802F07AFB4E
S31508004610A26BE36B06469A4201D3022F2CD194F87B
S3150800462045503A46494620466DB2A36B02F027FA32
S315080046306B1C15D1636A0BB901240BE004F1240045
S3150800464000F092FD0028F7D0B8F1000FF4D001244D
S31508004650C8F80040304602F060FB2046BDE8F88303
S315080046607F2D04D14FF48F61044802F041F80135DB
S315080046706DB284F84550DFE70024EBE76E77000853
S31508004680F8B50E46044620B94FF49361204802F067
S315080046902FF8236C23B140F29C411D4802F028F8FC
S315080046A0236833B9A36823B140F2A141184802F040
S315080046B01FF802F027FBA36BE26B07469A4225D93F
S315080046C094F845200133FF2A55B2A36312D1636AD1
S315080046D00BB9012409E004F1240000F045FD002887
S315080046E0F7D0002EF5D001243460384602F015FBC9
S315080046F02046F8BD7F2D04D14FF4A461044801F08B
S31508004700F7FF01356DB284F84550E2E70024ECE77F
S315080047106E7700082DE9FF410E460446019220B93E
S3150800472040F23C513B4801F0E3FF36B9236C23B114
S315080047304FF4A861374801F0DBFF00F0B3FD30B94C
S31508004740019B23B140F24551324801F0D1FF0027C1
S31508004750B84601F0A3F8A56BA5B131462046013D40
S3150800476002F0C2F9A563236933B104F1100000F021
S31508004770FBFC08B102F0A9FA01F09EF8012004B08A
S31508004780BDE8F081019D1DB901F096F80020F6E715
S3150800479017B902A800F02AFD01F08EF800F02CFBEC
S315080047A001F07CF894F84430FF2B08BF84F8448065
S315080047B094F84530FF2B08BF84F8458001F07CF853
S315080047C001A902A800F01EFDC0B9204602F04CF966
S315080047D070B1019904F1240000F08CFC204602F027
S315080047E099F900F0ABFB08B902F06FFA0127B0E7B8
S315080047F0204602F08FF900F0A1FBF7E7204602F009
S3150800480089F900F09BFB204602F02EF90028EDD02E
S31508004810BCE700BF6E770008F0B585B00446019185
S3150800482020B940F2CE514A4801F062FF236C23B109
S3150800483040F2D251464801F05BFF00F033FD30B933
S31508004840019B23B140F2D751414801F051FF0025A1
S315080048502E462F4601F022F8A36BABB1013BA363AA
S31508004860236813B900F0FEFDA060236933B104F193
S31508004870100000F079FC08B102F027FA01F01CF8E4
S315080048800125284605B0F0BD019B4BB925B140F27C
S315080048901D612F4801F02CFF01F00EF80025F0E706
S315080048A016B902A800F0A2FC01F006F800F0A4FA76
S315080048B000F0F4FF94F84430FF2B08BF84F84470E6
S315080048C094F84530FF2B08BF84F8457000F0F4FFD4
S315080048D001A902A800F096FC10BB204602F0C4F815
S315080048E0C0B123683BB900F0D9FFA06800F0EAFC24
S315080048F0054600F0E1FF019904F1240000F0FAFBF7
S31508004900204602F007F900F019FB08B902F0DDF9B4
S3150800491001269FE7204602F0FDF800F00FFBF7E7B7
S31508004920204602F0F7F800F009FB204602F09CF852
S315080049300028EDD0002DA4D000F0B0FF616A19B1AF
S31508004940236B1968C1F13801A06800F03DFDA3E7A3
S315080049506E77000870B50D46044620B940F2B221BC
S315080049600B4801F0C5FEA66800F096FC864204D105
S315080049700120E3680133E36070BD29462046FFF74E
S315080049804BFF0028F8D0E3680133E360F4E700BF83
S315080049906E7700082DE9F84389469046054620B902
S315080049A040F23C711F4801F0A3FEB9F1000F06D191
S315080049B02B6C23B140F23D711A4801F099FE02F0C2
S315080049C0A1F9AC6B0746D4B195F844604946284628
S315080049D076B202F089F8013C731CAC6315D12B69D9
S315080049E00BB901240BE005F1100000F0BDFB00280F
S315080049F0F7D0B8F1000FF4D00124C8F800403846C3
S31508004A0002F08BF92046BDE8F8837F2E04D14FF4D7
S31508004A10F061044801F06CFE013676B285F8446010
S31508004A20DFE700BF6E77000813B5044620B940F2E9
S31508004A30CE71064801F05CFE00F030FFA06B0190D5
S31508004A4000F03AFF019802B010BD00BF6E7700086B
S31508004A5010B5044620B94FF4FE61024801F048FE3D
S31508004A60A06B10BD6E77000810B50023064A52F8F1
S31508004A7033402CB942F8331002EBC303586010BD1B
S31508004A8001330A2BF3D1FAE76825002010B5002375
S31508004A90074A02EBC3014C68844204D1002042F85D
S31508004AA03300486010BD01330A2BF2D1FAE700BF84
S31508004AB06825002010B5044620B940F2FB71074866
S31508004AC001F016FE2046FFF7E1FF94F8463023B9B9
S31508004AD02046BDE8104001F039B810BD6E770008D1
S31508004AE02DE9F041044600F0D9FE2D4B2D4E1A68EB
S31508004AF02D4F01321A603568002D43D134601B688A
S31508004B00012B1FD1B8464046013501F06CFF382D00
S31508004B1008F11408F7D1DFF8B880244D404601F0B3
S31508004B2062FF284601F05FFF214801F05CFF21483B
S31508004B3001F059FF204801F056FF204BC3F80080CA
S31508004B401F4B1D6014201F4A1368013313601E4A49
S31508004B5023641168E36A8B4200FB037004F10401C5
S31508004B6088BF136001F04DFF00F0A6FE174B1B68C7
S31508004B709BB13368DA6AE36A9A420ED2BDE8F0411D
S31508004B8002F0A3B8114B1B68002BDBD13368DA6A35
S31508004B90E36A9A4298BF3460D4E7BDE8F08100BF63
S31508004BA0242A0020B8250020C42500204C2A0020ED
S31508004BB06C2A0020982A0020842A0020BC25002080
S31508004BC0C0250020302A0020342A0020802A002010
S31508004BD0382A0020F8B50446144B154E1D6830686F
S31508004BE00F46043001F030FF631C07D137B1316836
S31508004BF010480431BDE8F84001F003BF33682C19AA
S31508004C005C6007D30C4B18683168BDE8F84004317E
S31508004C1001F003BF094B18683168043101F0FDFE45
S31508004C20074B1A68A24288BF1C60F8BDAC2A002050
S31508004C30B8250020842A0020C0250020BC25002095
S31508004C40602A0020064A13681968064B19B94FF0FE
S31508004C50FF321A6070471268D2681268F9E700BF17
S31508004C60BC250020602A002010B590F85D30044667
S31508004C703BB9006B00F06AFF2046BDE8104000F023
S31508004C8065BF012BF9D0022B06D0BDE8104040F6CF
S31508004C909771024801F02CBD10BD00BFC27700080D
S31508004CA080B50F4C0F4F104D236833B90F4B1B6857
S31508004CB0012BF8D902F009F8F5E700F0EFFDFB68DB
S31508004CC0DE68301D01F0C0FE2B68013B2B602368AF
S31508004CD0013B236000F0F0FD3046FFF7C5FFE3E730
S31508004CE0282A0020982A0020242A0020C4250020EB
S31508004CF02DE9F04387B00546DDE90F940E461746C1
S31508004D009846B9F1000F04D140F25521184801F030
S31508004D10EFFC24B940F25621154801F0E9FC60235E
S31508004D200593059B602B04D040F25E21104801F0E4
S31508004D30DFFC059BCCB1B9F1000F16D0022384F82D
S31508004D405D3004ABC4F8309001930E9B284600935F
S31508004D503A4643463146029401F05EFF2046FFF785
S31508004D60BFFE049807B0BDE8F08300230493F8E774
S31508004D70C277000830B589B0002507AA06A905A894
S31508004D80CDE90555FFF770FA059B079A0293069B2E
S31508004D901249CDE9005312482B46FFF7A9FF80B107
S31508004DA000F0BEFB012804460FD101F0ABFF4FF01F
S31508004DB0FF320C4B1A600C4B1C600C4B1D6000F04C
S31508004DC0E7FD0B4B1B6809B030BD0134F9D140F63D
S31508004DD04301084801F08CFCF3E700BF1678000889
S31508004DE0A14C0008602A0020802A0020AC2A002056
S31508004DF018100020C2770008024A136801331360AE
S31508004E00704700BF2C2A0020014B1868704700BF66
S31508004E10AC2A00202DE9F74F3C4B1B68002B6ED1BE
S31508004E203B4B1D6801351D609DB93A4C23681B68CC
S31508004E3023B140F6C921384801F05AFC374B22689D
S31508004E40196821601A60364A136801331360FFF740
S31508004E50F9FE344E00243368334F9D42DFF8D48080
S31508004E6011D21422D8F80030DB6A5343FB58022BC0
S31508004E702E4B28BF01241B68002B18BF012420468F
S31508004E8003B0BDE8F08FDFF88C90DFF8ACA0D9F856
S31508004E9000301B681BB94FF0FF333360E1E7D9F8E0
S31508004EA00030DB68D3F80CB0DBF80420954201D259
S31508004EB03260D6E70BF104010846019101F0C4FD02
S31508004EC0DBF82820019922B10BF1180001F0BCFD8E
S31508004ED001991423DBF82C00DAF80020904288BFE9
S31508004EE0CAF8000003FB007001F08BFDD8F800102B
S31508004EF0DBF82C20CB6A9A4228BF0124C7E70C4A64
S31508004F000024136801331360B9E700BF2C2A002078
S31508004F10AC2A0020BC250020C2770008C025002046
S31508004F20642A0020602A0020C4250020B02A002018
S31508004F30682A0020B8250020342A0020F7B52B4C13
S31508004F40236823B940F6B601294801F0D1FB00F0E1
S31508004F50A5FC2368013B236024682CB1002400F0DB
S31508004F60ABFC204603B0F0BD224B1B68002BF5D0E6
S31508004F70214D224E224F1EE0EB68DC6804F1180032
S31508004F8001F062FD211D0846019101F05DFD142026
S31508004F90E36A326800FB03709342019988BF336065
S31508004FA001F02FFD174BE26A1B68DB6A9A4202D3AF
S31508004FB00122154B1A602B68002BDDD10CB1FFF7C7
S31508004FC041FE124D2C6844B101270F4EFFF722FF10
S31508004FD000B13760013CF9D12C600B4B1B68002BE4
S31508004FE0BCD001F072FE0124B9E700BF2C2A0020CC
S31508004FF0C2770008242A00206C2A0020342A0020C0
S31508005000C4250020B8250020B02A0020682A0020E0
S3150800501010B5044618B9BDE8104001F056BE094B54
S315080050201B6823B140F24C51074801F061FB00218F
S315080050302046FFF7E1FEFFF7CDFDFFF77FFF0028CB
S31508005040E9D010BD2C2A0020C27700082DE9F041CE
S31508005050224B1A68224B1AB101221A60BDE8F08168
S31508005060204E1A6033681B6B1A68B2F1A53F0BD144
S315080050705A68B2F1A53F07D19A68B2F1A53F03D1A4
S31508005080DB68B3F1A53F04D0306831683431FFF7E7
S31508005090E3F8154F154D3C68DFF854801423634335
S315080050A0E958EA1889B15168083349682B44994286
S315080050B008BF4B68516008BF5360142303FB0455AF
S315080050C06B68DB6833603C60C8E724B940F6044186
S315080050D0404601F00DFB013CE0E700BF2C2A00200A
S315080050E0B02A0020B8250020342A0020C425002034
S315080050F0C277000838B50D46044620B940F61E4169
S31508005100074801F0F5FA074B20461968183101F0EF
S3150800511084FC2846BDE838400121FFF75BBD00BF87
S31508005120C2770008B825002070B50E461446054615
S3150800513020B940F64D410A4801F0DAFA094B2846EB
S315080051401968183101F05DFC002C214608BF30466D
S31508005150BDE8704018BF4FF0FF30FFF73BBD00BFFA
S31508005160C2770008B825002013B5C368DC6824B9DF
S3150800517040F67D41164801F0BBFA04F118010846CD
S31508005180019101F061FC134B01991B68F3B9211DCC
S315080051900846019101F058FC0F4AE36A1068019924
S315080051A083424FF0140088BF13600C4A00FB0320AB
S315080051B001F027FC0A4BE26A1B68DB6A9A4289BF40
S315080051C001200020074B186002B010BD0648EFE723
S315080051D0C27700082C2A0020342A0020C425002083
S315080051E0B8250020B02A00206C2A0020034B1B6833
S315080051F00360034B1B684360704700BF642A0020A6
S31508005200AC2A002070B50D46044620B940F6F84190
S31508005210144801F06DFA25B940F6F941114801F034
S3150800522067FA00F03BFB104B19682B685A1C17D01D
S315080052300E48266800686268864208D08A4206D800
S31508005240002301242B6000F037FB204670BD881A26
S315080052508342F5D95B1A134420462B60FFF7C6FF35
S315080052600024F0E7C2770008AC2A0020642A002050
S315080052700122014B1A607047B02A0020012906DC7A
S3150800528008B9044B1868143150F8210070470020FB
S31508005290704700BFB8250020014B1868704700BF4B
S315080052A0B8250020054B1B6833B1054B1B68002B3E
S315080052B00CBF02200020704701207047802A00207A
S315080052C02C2A002073B5044648B31C4DC36A2A68C5
S315080052D0D26A934229D28269194E002AA1BF2A6846
S315080052E0D26AC2F138028261142202FB0363426960
S315080052F09A4216D1011D0846019101F0A5FB2B68BB
S31508005300104ADB6A1068019983424FF01400E36281
S3150800531000FB036088BF136001F073FB012002B035
S3150800532070BD2B68DB6AC362F8E72B68806CDC6AA1
S31508005330A0422CBF00200120F1E700BFB8250020BD
S31508005340C4250020342A002013B5044610B90020CD
S3150800535002B010BD184B1B68834204D041F24A01C3
S31508005360164801F0C5F9E36C23B941F24B0113481D
S3150800537001F0BEF9E36CE16AA26C013B9142E36479
S31508005380E5D0002BE3D1211D0846019101F05CFB15
S31508005390A36C0199C3F13802A261094AE362106855
S315080053A083424FF0140088BF1360064A00FB0320AF
S315080053B001F027FB0120CBE7B8250020C2770008BB
S315080053C0342A0020C425002037B50D460446002897
S315080053D03ED0C36C23B941F29A011E4801F088F900
S315080053E0A16CE36A8D4238BF0D46AB4230D0E36C00
S315080053F0012B2DD1184B1B68A34204D141F2B501EC
S31508005400144801F075F9A269E36A002A4FF01402FC
S31508005410E562A4BFC5F13805A561104D02FB03532B
S3150800542062699A4214D1211D0846019101F00CFBCC
S315080054300B4AE36A1068019983424FF0140000FB97
S31508005440035088BF136003B0BDE8304001F0D9BAF5
S3150800545003B030BDC2770008B8250020C425002057
S31508005460342A0020044B1A681AB11968CA6C01322A
S31508005470CA641868704700BFB8250020F7B5114CF4
S3150800548000F00CFA2568BDB90F4F104E384601F0EA
S31508005490AAFA304601F0A7FA0D4B10211F600D4BF2
S315080054A00A201E600C4A0D4B0095FEF72BFF206064
S315080054B010B10B49FFF7D8FA03B0BDE8F04000F089
S315080054C0FBB900BF382B0020BC2A0020D02A0020B8
S315080054D0B42A0020B82A00207C320020E82A0020BE
S315080054E01B78000808B59142416000610AD8D21AB3
S315080054F083699A420DD2084B011D186801F08DFA8E
