:020000040800F2
:1000000000100020090D0008396E0008396E000844
:10001000396E0008396E0008396E0008396E000824
:10002000396E0008396E0008396E00085102000868
:10003000396E0008396E0008E10100087B72000883
:10004000396E0008396E0008396E0008396E0008F4
:10005000396E0008396E0008396E0008396E0008E4
:10006000396E0008F10C0008876D0008396E000831
:10007000396E0008396E0008396E0008396E0008C4
:10008000396E0008396E0008396E0008396E0008B4
:10009000396E0008D5150008396E0008396E000861
:1000A000396E0008F5160008D1160008396E0008F0
:1000B000396E0008396E0008396E0008396E000884
:1000C000396E0008396E0008396E0008396E000874
:1000D000396E0008396E0008396E0008396E000864
:1000E000396E0008396E00081D45000845450008B6
:1000F000396E0008396E0008396E0008396E000844
:10010000396E0008396E0008396E0008396E000833
:10011000396E0008396E0008396E0008396E000823
:10012000396E0008396E0008396E0008396E000813
:10013000396E0008396E0008396E0008396E000803
:10014000396E0008396E0008396E0008DF7100084A
:10015000396E0008396E0008396E0008396E0008E3
:10016000396E0008396E0008396E0008396E0008D3
:100170000B4A1168086806C881F30B88022181F3D5
:100180001488203080F30988BFF36F8F4FF0000090
:1001900080F31188104700BFAFF30080AFF30080F9
:1001A000F425002000000000000000000000000016
:1001B00007480068006880F3088862B661B6BFF33C
:1001C0004F8FBFF36F8F02DF00BF00BFAFF3008020
:1001D00008ED00E00000000000000000000000004A
:1001E000EFF309801EF0100F08BF20ED108AEFF327
:1001F0000B82734620E9FC0F114A116808604FF02A
:10020000300080F31188BFF34F8FBFF36F8F05F07D
:10021000C5FA4FF0000080F31188094A1168086898
:10022000B0E8FC0F13F0100F08BFB0EC108A82F397
:100230000B8880F309881847AFF30080AFF3008084
:10024000F425002000000000000000000000000075
:100250001EF0040F0CBFEFF30880EFF30980044990
:10026000084700BFAFF30080AFF30080AFF300801A
:100270003960000810B5054C237833B9044B13B12D
:10028000044800E000BF0123237010BDCC10002003
:1002900000000000F882000808B5034B1BB10349B9
:1002A000034800E000BF08BD00000000D01000209F
:1002B000F8820008A3F5803A704700BF174B002B67
:1002C00008BF134B9D46FFF7F5FF00218B460F46F5
:1002D0001348144A121A07F08DF90E4B002B00D068
:1002E00098470D4B002B00D09847002000210400B8
:1002F0000D000D48002802D00C4800E000BF06F0B9
:10030000B1F92000290006F01CFD06F097F900BFA6
:1003100000000800000000000000000000100020A5
:10032000CC10002058530020000000000000000006
:100330002DE9F347594C4FF0FF31206804F014FECB
:10034000574F584A5849594806F0B0F957483D6840
:1003500007F058F955490246284606F0C9FE002321
:1003600020681A46194604F027FC0025DFF854914E
:10037000DFF83081DFF850A1D9F8000004F0FCFE6E
:10038000064600286AD00DF107011422D9F80000B2
:1003900004F068FD9DF807304FF0FF31032B206813
:1003A0001AD0042B36D0022B4ED104F0DDFD42468C
:1003B0003F493E4806F07AF93C483D6807F022F98B
:1003C0003A490246284606F093FE002320681A4662
:1003D000194604F0F1FB18E004F0C6FD4246354929
:1003E000324806F063F931483D6807F00BF92F49B0
:1003F0000246284606F07CFE002320681A4619466D
:1004000004F0DAFB2C4806F044FD0025642004F0DB
:10041000FBF8B1E704F0A8FD42462849234806F05E
:1004200045F922483D6807F0EDF820490246284684
:1004300006F05EFE002320681A46194604F0BCFB55
:100440001D4806F029FDE0E704F08EFD42469DF8C8
:1004500007301B49154806F029F9ADE741F288330A
:1004600064359D42D2D94FF0FF31206804F07CFD05
:10047000424651460D4806F019F90C483D6807F010
:10048000C1F80A490246284606F032FE3346324693
:100490003146206804F090FB3546B7E7F0100020A5
:1004A00038100020407B000884780008AA2B002028
:1004B0009A780008C0780008987B0008E87800085F
:1004C00011790008FC170020437900082DE9F34753
:1004D0003D4C4FF0FF31206804F046FD3B4F3C4A55
:1004E0003C493D4806F0E2F83B483D6807F08AF891
:1004F00039490246284606F0FBFD002320681A46CB
:10050000194604F059FB0026DFF8D890DFF8C080C8
:10051000DFF8D4A0D9F8000004F02EFE054690B311
:100520000DF107011422D9F8000004F09BFC9DF89E
:1005300007304FF0FF31012B20681AD104F014FD71
:1005400042462649244806F0B1F823483D6807F0A2
:1005500059F821490246284606F0CAFD00232068C2
:100560001A46194604F028FB0026642004F04CF8D3
:10057000D0E704F0F9FC42469DF8073018491648C8
:1005800006F094F8E1E741F2883364369E42ECD9F4
:100590004FF0FF31206804F0E7FC424651460E4818
:1005A00006F084F80C483E6807F02CF80A49024629
:1005B000304606F09DFD2B462A462946206804F069
:1005C000FBFA2E46D1E700BFF010002038100020C3
:1005D000367B000884780008AA2B00209A7800084F
:1005E0001179000894110020437900082DE9F341A6
:1005F0005B4D5C4C4FF0FF31286804F0B5FC5A4E5F
:100600005A49204606F052F82046376806F0FAFFAD
:1006100021460246384606F06BFD0023544F1A4629
:100620001946286804F0C8FA4FF0FF31286804F032
:100630009BFC3946204606F039F82046D6F8008063
:1006400006F0E0FF21460246404606F051FD002339
:1006500028681A46194604F0AFFA4FF0FF312868AF
:1006600004F082FC4349204606F020F82046D6F8E4
:10067000008006F0C7FF21460246404606F038FDDE
:10068000002328681A46194604F096FA4FF0FF3105
:10069000286804F069FC3849204606F007F820462F
:1006A000D6F8008006F0AEFF21460246404606F02E
:1006B0001FFD002328681A46194604F07DFA4FF002
:1006C000FF31286804F050FC2C4B2D4A00932D4933
:1006D000204605F0EBFF2046D6F8008006F092FF9A
:1006E00021460246404606F003FD002328681A46CC
:1006F000194604F061FA4FF0FF31286804F034FC29
:10070000214A2249204605F0D1FF2046D6F8008034
:1007100006F078FF21460246404606F0E9FC002339
:1007200028681A46194604F047FA4FF0FF31286846
:1007300004F01AFC3946204605F0B8FF204636681A
:1007400006F060FF21460246304606F0D1FC002349
:100750001A461946286802B0BDE8F04104F02CBAE8
:10076000F0100020AA2B0020381000205579000836
:100770005C790008A4790008EC790008347A000854
:10078000367A0008387A0008647A00086F7A000820
:100790002DE9F04F85B0724CFFF728FF4FF0FF3185
:1007A000206804F0E1FBDFF8E8816E4A6E496F488B
:1007B00005F07CFF6D48D8F8005006F023FF6B4928
:1007C0000246284606F094FC002300251A461946E6
:1007D000206804F0F1F92F462E46DFF8B8B1DFF8B3
:1007E000B8A1DFF88091584606F00CFCDAF800005A
:1007F000643704F0C1FC002857D00DF10E0114221B
:10080000DAF8000004F02EFB9DF80E304FF0FF31B7
:10081000013B012B20683ED804F0A6FB4A46544910
:10082000524805F043FF5148D8F8005006F0EAFE60
:100830004E490246284606F05BFC002320681A4613
:10084000194604F0B9F900254A4A13686433136065
:1008500042F6DF6293424BD94FF0FF31206804F03B
:1008600083FB404A4449414805F020FF3F48D8F8FF
:10087000005006F0C7FE3D490246284606F038FC07
:10088000002320681A46194604F096F94FF4FA60DE
:1008900003F0BAFEFEE704F067FB4A469DF80E300F
:1008A0003649324805F002FFBDE741F2883264352F
:1008B0009542C9D94FF0FF310190206804F054FBF4
:1008C0004A462F49294805F0F1FE2848D8F800503B
:1008D00006F098FE25490246284606F009FC019BD1
:1008E00020681A46194604F067F9019B1D46ABE7DC
:1008F00043F69721234A136864338B4218D8136058
:10090000B7F57A7F10D301361F4BF6B2032E186865
:100910001BD9032300278DF80F30142200230DF17B
:100920000F0104F049F93E46642003F06DFE5AE7DA
:1009300000231360012215488DF80F200DF10F01DF
:100940001422006804F038F9DAE7042314228DF841
:100950000F300DF10F01002304F02EF90027E3E71B
:10096000F01000202D7B000884780008AA2B0020BE
:10097000947A0008EC100020BC7A00081179000875
:1009800043790008E8100020FC1700209411002093
:10099000381000200040005BC8140020F0B585B07E
:1009A0002E49012006F047FD00242D4B012118603F
:1009B0002C4A2D4B00944FF4807004F04BF82B4BD5
:1009C000012118602A4A2B4B00944FF4807004F0E8
:1009D00041F8294B01211860284A294B00944FF413
:1009E000807004F037F81827264BA0221860264B99
:1009F00026490293264B274801930097234604F08B
:100A00001FFD254BA0220293244B2549CDE90073FD
:100A100006462346234804F013FD234B0546029364
:100A2000224BA022CDE9007321492346214804F03E
:100A300007FD04461EB9D0211F4806F006FA1DB96D
:100A4000D1211D4806F001FA34B9D2211A4805B067
:100A5000BDE8F04006F0F9B905B0F0BDF410002093
:100A6000F01000209230002078140020C8140020DC
:100A7000922F002044110020941100209231002078
:100A8000AC170020FC1700204C170020037B000847
:100A9000CC140020910700081814002098110020A1
:100AA0000D7B0008CD040008801A002000180020EB
:100AB000187B000831030008247B00081FB50121C2
:100AC0002D2001F009F90E220021684606F092FD62
:100AD00001240F230C212D208DF80A308DF80040C1
:100AE00001F028FD0A23694605488DF801408DF87C
:100AF00005408DF80A3006F096FA04B010BD00BF2C
:100B00000040005B034B1A6890420CBF184600205F
:100B1000704700BF0010002010B5274C01F022FBE9
:100B200001F0E6FC236F23F0070343F00303236780
:100B300006F016FA214B00209B6ADB015EBF4FF4E2
:100B400080321F4B9A62D4F8203123F0070343F020
:100B50000203C4F82031D4F8283123F0070343F00E
:100B60000203C4F82831D4F8403123F0030343F0E2
:100B70000103C4F84031D4F8603123F0030343F09B
:100B80000103C4F86031D4F8403223F0030343F08A
:100B90000103C4F84032D4F8003223F0070343F0D5
:100BA0000103C4F80032D4F8083223F0070343F0FD
:100BB0000103C4F8083210BD008000500040005A04
:100BC0000060005A07B501A802F01CFB9DF8053033
:100BD000012B14D19DF804308BB94FF48012114BC6
:100BE0001149586E03F580535A664B6B23F0E0535E
:100BF00043F040634B63C3025CBF0C4B5A6602F088
:100C000071FD06F0CDF802F001FD02F027FDFFF7BF
:100C100083FF02F011FD06F0BAF803B05DF804EBB3
:100C200003F0A4BC008000500040005A00A0005017
:100C300030B595B0204D0DAC0FCD0FC495E8070031
:100C4000292384E807001D4A0021CDE9022305235A
:100C5000CDE904118DF811300623102209A8069160
:100C60008DF8133006F0C6FC4FF48021144B154864
:100C7000CDE9071309238DF824300A238DF8253098
:100C8000114B0DAA0A9320230B9301238DF83130C9
:100C90000E4B07A9009302AB03F026F9044618B1E6
:100CA00088210B4806F0D1F800214FF4E13006F01E
:100CB000B4F8204615B030BD7C7B000800C005505C
:100CC00024C00550281C002092320020E01A002089
:100CD0004B7B000808B5FFF7ABFF28B1BDE8084023
:100CE000B821024806F0B1B808BD00BF4B7B000830
:100CF000014803F0BBB900BF281C0020014806F0E2
:100D0000C5B800BF987B000808B500F02DF8124B5D
:100D100012498B4212D30020114B12498B4218D337
:100D2000FFF7CCFA186850F82240586840F8224083
:100D3000013298688242F5D30C33EAE70022F8E7E3
:100D40001C6844F8220001325C68A242F8D30833E0
:100D5000E4E70022F8E700BF008300080C830008E6
:100D60000C8300080C83000810B54FF480414FF04D
:100D7000FF30114B114A9A60D3F8882042F4700278
:100D8000C3F888200E4A91660E4901F5005210669C
:100D90000D4850660220C3F8D000BFF34F8FBFF359
:100DA0006F8F01244FF440330848C0F88041D3606E
:100DB00004600B6110BD00BF00ED00E00000000802
:100DC0000090005000800044F7FF370000E100E091
:100DD000014B1868704700BF40100020084B1B6F84
:100DE00003F00703022B04D0032B05D0012B05D001
:100DF000FEE7044B18687047034BFBE70348704756
:100E0000008000504010002044100020002D3101CF
:100E100008B5FFF7E3FF054B1B6FC3F30333013343
:100E2000B0FBF3F0024B186008BD00BF008000501B
:100E30003C1000200048704700B4C404014B1868FF
:100E4000704700BF44100020054B1860054B1B6F16
:100E500003F00703032B01D1FFF7DABF704700BF90
:100E6000441000200080005000487047002D3101E0
:100E70004FF0B4439868C0F304400C2822D8DFE850
:100E800000F0092121212121071719211B1D1F0015
:100E90000F4870479B6803F04073B3F1807F13D015
:100EA000B3F1007F12D00B4A002B08BF10467047E9
:100EB0000948704709487047094870470948704712
:100EC0000948704700207047084870470848704735
:100ED000405DC60000093D000024F400C0EA210185
:100EE00080BA8C010048E801005A620280841E002A
:100EF00040420F00014B1868704700BF48100020A7
:100F000005490A681318054883428CBF4FF0FF3229
:100F10000B601046704700BF4C10002000000420FA
:100F200010B501213A2000F0D7FE0123042203214D
:100F3000002001F0CBFF002006F04AF80122314BDF
:100F40003149C3F844244FF40022A3F550335A66C4
:100F5000D1F8FC202C4C12F080721EBFD1F8FC306E
:100F600023F08073C1F8FC302849D1F8803023F099
:100F7000030343F00203C1F880302AB1D4F8FC30F7
:100F800043F08073C4F8FC304FF4607000F0D0FE82
:100F9000D4F8F0301E4A43F00103C4F8F030D4F81E
:100FA000FC3000F5D52043F08073C4F8FC30194BB9
:100FB00000F2FC401A60184B0222B0FBF3F0174B12
:100FC00001381861C3F8F0204FF48072C3F804238D
:100FD0004FF06043124A0020C3F8B02F114AC3F803
:100FE000802ED3F8002E42F48072C3F8002EFF2228
:100FF00083F82020D3F8002E22F48072C3F8002E4C
:1010000010BD00BF00D0035000ED00E00080005094
:10101000FF030040001000E0F8590D00000004E05C
:1010200055CEACC50900010030B54FF06043D3F890
:10103000802ED20715D501240B4D8440D5F8FC2015
:1010400042F08072C5F8FC20D3F8002E2243C3F88A
:10105000002E53F82020002AF0D003F820100020A2
:1010600030BD1120FCE700BF00ED00E038B50D46B3
:101070000446B0B1012817D0022817D0032803D1A5
:101080000F23EB40DB0704D440F2FE31084805F0A3
:10109000DCFE302001214443064B01FA05F51D51C9
:1010A00038BD40F2FF13ECE71F23EAE7FF23E8E730
:1010B000B07B000840E0035038B50D460446B0B19F
:1010C000012817D0022817D0032803D10F23EB40A3
:1010D000DB0704D440F22D41084805F0B6FE30206D
:1010E00001214443064B01FA05F51D5138BD40F27C
:1010F000FF13ECE71F23EAE7FF23E8E7B07B0008D4
:1011000040D0035038B504784578ACB1012C16D0E6
:10111000022C16D0032C03D10F23EB40DB0704D4A1
:101120004FF48961084805F090FE302301225C43AA
:10113000064BAA401A5138BD40F2FF13EDE71F23BA
:10114000EBE7FF23E9E700BFB07B000840F0035066
:1011500070B5057804464678E5B1012D1DD0022D05
:101160001DD0032D03D10F22F240D30704D44FF436
:1011700083610C4805F069FE1023302212FB05350F
:10118000094BEB58F34003F00100A3780BB980F052
:10119000010070BD40F2FF12E6E71F22E4E7FF22E4
:1011A000E2E700BFB07B000830C003502DE9F04FEC
:1011B00085B09A46554B06461B780F461546DDF816
:1011C0003C909DF844B0DDF85080002B00F08D80FD
:1011D000072A00F28C800E9B002B00F08880B9F16A
:1011E000000F00F08480129BB3F5006F7FDC0128B4
:1011F00002D1109B002B7AD0454B03EB05131B7BD0
:10120000002B76D0434C10220021684606F0F2F9FC
:1012100004EB45141022002F59D13946204606F020
:10122000E9F943F210036380BBF1000F03D1E378C7
:1012300043F00303E370374A0E9B02EB451CCCE9F5
:101240000193129B6901013BC3F30A009DF84C30E6
:10125000012E03F003034FEA836343EA001E535851
:101260002D48CDF800A000EA03004EEA00035350D9
:1012700041D113230CF1100ECCF80C309CE80F0078
:101280008EE80F006FF00301DCF81C20109B61F367
:101290009F02012FCCF81C20CCF8143003D1CCF8DD
:1012A0001890CCF804300027194A290102EB0513E5
:1012B00042F80180159A28465A60694622469F6086
:1012C0005E7301F0DFFE384605B0BDE8F08F002107
:1012D000204606F08FF94FF444736380BBF1000F92
:1012E000A9D1E37843F03003A4E70C48ECE70C48BD
:1012F000EAE70C48E8E7B8F1000FD4D19CF80230D7
:1013000068F304138CF80230CDE700BFB23200203E
:10131000481C0020C81C00200F80FFF3028000F052
:10132000018000F0078000F038B5124B05461B78AD
:10133000DBB1E0B105F030FE0F4A00231146147B0B
:1013400054B92B6001251A0101EB03131D738C5056
:1013500005F028FE204638BD0133082B02F11002AB
:10136000EDD105F01FFE0548F5E70548F3E7054810
:10137000F1E700BFB2320020481C0020048000F0DA
:10138000028000F0018000F013B505F005FE002397
:101390000B4A147B7CB90133082B02F11002F8D1FF
:1013A000019001F0E5FD074B01981C7005F0FAFD76
:1013B000204602B010BD05F0F5FD0348F9E700BF77
:1013C000481C0020B2320020058000F010B50D4B03
:1013D00004461B7893B1072812D805F0DDFD0A4BAF
:1013E00003EB04131A7B2AB100241C7305F0DAFD09
:1013F000204610BD05F0D6FD0448FAE70448F8E79A
:101400000448F6E7B2320020481C0020068000F0B5
:10141000028000F0018000F013B5154B186800231E
:1014200001908DF8043005F0B7FD124B1C7824B103
:1014300005F0B8FD104802B010BD01221A7005F089
:10144000B1FD0E4B01A81C731C7783F82C4083F868
:101450003C4083F84C4083F85C4083F86C4083F850
:101460007C4008238DF8073001F0C2FD2046E2E7FA
:10147000F97B0008B2320020038000F0481C0020F5
:1014800008B50A4A12785AB107280BD8084A02EB65
:1014900000131B7B43B1002101F088FD002008BD33
:1014A0000448FCE70448FAE70448F8E7B2320020B1
:1014B000481C0020028000F0018000F0078000F04E
:1014C00008B50A4A12785AB107280BD8084A02EB25
:1014D00000131B7B43B1012101F068FD002008BD12
:1014E0000448FCE70448FAE70448F8E7B232002071
:1014F000481C0020028000F0018000F0078000F00E
:1015000008B50A4A127852B107280AD8084A02EBED
:1015100000131B7B3BB101F037FE002008BD0548DE
:10152000FCE70548FAE70548F8E700BFB2320020BB
:10153000481C0020028000F0018000F0078000F0CD
:101540000D4B1B7893B1072812D889B10B4B03EBD5
:1015500000131B7B73B10A4B1A6D012303FA00F0D1
:1015600010401ABF00200B70087070470548704784
:101570000548704705487047B2320020481C0020DB
:1015800000000450028000F0018000F0078000F0AD
:1015900010B50B4A0C46127862B107280CD859B125
:1015A000084A02EB00131B7B43B101F009FE2070D7
:1015B000002010BD0448FCE70448FAE70448F8E7B7
:1015C000B2320020481C0020028000F0018000F0B0
:1015D000078000F02DE9F0471F4B204C1F6D5A6D1E
:1015E000174010D54FF000411D4A1165D868C0F36F
:1015F00004200301E35804EB00125BB3BDE8F0479D
:1016000000215268184701260025DFF85480DFF8D2
:101610005490374217D02368C8F850609BB1A16836
:10162000284601316268A1609847637B012B0AD18B
:1016300048B909EB45131A7B60F341021A731A7F0C
:1016400060F341021A770135082D4FEA460604F18E
:101650001004DED1BDE8F08700000450481C0020D3
:1016600000200450C81C002070B5012504460B4E14
:1016700004B970BD94FAA4F0B0FA80F005FA00F352
:1016800006EB001224EA03045368002BF0D0117B10
:1016900011B191689847EBE79847E9E7C81D00202A
:1016A00008B5192001F064FA28B14FF00072074B19
:1016B000C3F880211A601A2001F05AFA28B14FF0BD
:1016C0008062024BC3F880211A6008BD00E100E08F
:1016D000074BD3F82404D3F8202403F5005310401B
:1016E00000F0553020F05020C3F82004FFF7BCBFB5
:1016F00000C00350074BD3F82404D3F8202403F58B
:101700000053104000F0AA3020F0A020C3F82004BD
:10171000FFF7AABF00C00350044BD3F88420D206C1
:10172000FBD4D3F88400C0F3811070470040005010
:1017300038B5124B0546D3F880300C4603F003034E
:10174000022B0BD0032B0DD0012B0FD1FFF746FB43
:101750000E2305B1286004B1236038BDFFF788FB74
:101760000723F6E7FFF734FB0623F2E7044841F2CC
:10177000B21105F06AFB00231846EAE7008000502A
:10178000FD7B000838B51A4B0546D3F820010C46FE
:1017900000F00700062821D8DFE800F028040C1428
:1017A00010181C00FFF714FB052305B1286004B1D5
:1017B000236038BDFFF742FB0323F6E7FFF758FB32
:1017C0000723F2E7FFF750FB0223EEE7FFF700FBEA
:1017D0000623EAE7FFF732FB0423E6E7054841F278
:1017E0002F2105F032FB00231846DEE70123DCE75A
:1017F00000800050FD7B000838B5194B0546D3F832
:1018000028310C4603F00703013B052B20D8DFE805
:1018100003F003131B0F0B17FFF7DAFA052305B1CB
:10182000286004B1236038BDFFF7D2FA0623F6E73B
:10183000FFF71EFB0723F2E7FFF700FB0323EEE7AA
:10184000FFF7FCFA0423EAE7FFF70EFB0223E6E7C3
:10185000044841F2370105F0F8FA00231846DEE7A4
:1018600000800050FD7B0008F7B50027144B01975E
:10187000D3F88041064604F00304022C0D4614D030
:10188000032C0DD0012C14D1394601A8FFF77AFFA3
:1018900010240EB1019B336005B12C6003B0F0BD84
:1018A000FFF7E6FA07240190F3E7FFF7DDFA01906E
:1018B000EFE741F28431034805F0C7FA3C46E8E718
:1018C00000800050FD7B000837B500230193194BC1
:1018D0000546D3F820320C4603F00703042B1FD82B
:1018E000DFE803F025030F141900002101A8FFF71A
:1018F00083FF12230DB1019A2A6004B1236003B063
:1019000030BDFFF7B5FA07230190F3E705F097FA2A
:101910000A230190EEE7FFF7EDFA09230190E9E7CA
:1019200040F6F671044805F090FA0023E2E701233F
:10193000E0E700BF00800050FD7B000838B5104B89
:101940000546D3F840310C4603F00303022B0BD0BD
:10195000032B0DD0012B0FD105F071FA0A2305B12D
:10196000286004B1236038BDFFF7C4FA0923F6E705
:1019700005F068FA0C23F2E701230020EFE700BF2F
:101980000080005037B500230193184B0546D3F86B
:1019900060320C4603F00703013B032B1FD8DFE83E
:1019A00003F0020E1914002101A8FFF7EBFE10232B
:1019B0000DB1019A2A6004B1236003B030BD00214B
:1019C00001A8FFF7BBFF1123F2E7FFF751FA072346
:1019D0000190EDE7FFF748FA02230190E8E741F2B2
:1019E0009B01034805F031FA0023E1E70080005035
:1019F000FD7B000837B500230193184B0546D3F84B
:101A000094320C4603F00703013B032B1FD8DFE899
:101A100003F0020E1914002101A8FFF7B3FE1023F2
:101A20000DB1019A2A6004B1236003B030BD0021DA
:101A300001A8FFF783FF1123F2E7FFF719FA072345
:101A40000190EDE7FFF710FA02230190E8E741F279
:101A5000CE01034805F0F9F90023E1E700800050CA
:101A6000FD7B000873B500240F4B0194D3F870324E
:101A7000064603F00303012B0D4607D0022B11D0BD
:101A800041F2F901094805F0E0F904E0214601A816
:101A9000FFF754FF11240EB1019B336005B12C6098
:101AA00002B070BD1524F6E700800050FD7B0008F1
:101AB00038B5164B0546D3F800020C4600F0070077
:101AC000042819D8DFE800F020030B0F130005F0FD
:101AD000B6F90A2305B1286004B1236038BDFFF7C9
:101AE00009FA0923F6E705F0ADF90C23F2E7FFF751
:101AF0008FF90F23800AEDE7054841F2424105F0D6
:101B0000A4F900231846E5E70123E3E7008000502D
:101B1000FD7B000838B5164B0546D3F808020C4685
:101B200000F00700042819D8DFE800F020030B0FAD
:101B3000130005F084F90A2305B1286004B123607D
:101B400038BDFFF7D7F90923F6E705F07BF90C2339
:101B5000F2E7FFF75DF90F23800AEDE7054841F250
:101B60007A4105F072F900231846E5E70123E3E71F
:101B700000800050FD7B000838B5104B0546D3F8B7
:101B800040320C4603F00303022B0BD0032B0DD085
:101B9000012B0FD105F053F90A2305B1286004B1D8
:101BA000236038BDFFF7A6F90923F6E705F04AF9E7
:101BB0000C23F2E701230020EFE700BF0080005074
:101BC00038B5104B0546D3F860310C4603F00303DB
:101BD000022B0BD0032B0DD0012B0FD105F02FF9C9
:101BE0000A2305B1286004B1236038BDFFF782F9EC
:101BF0000923F6E705F026F90C23F2E7012300207C
:101C0000EFE700BF0080005010B5B0F5207F2ED068
:101C100009D8B0F5007F24D003D868B1B0F5C07FF3
:101C20000AD000241BE0B0F5607FFAD1124BD3F844
:101C30008040C4F3011412E00F4B1C6F230B13F010
:101C40000E0FC4F303340AD0032C08D0072C06D09F
:101C50000F2C04D04FF41E71084805F0F6F8601CF4
:101C600010BD054BD3F89040C4F30464F7E7024B72
:101C70001C6FC4F38024F2E700800050FD7B000855
:101C800038B54FF48032104B04469A6600200D465A
:101C9000FFF7BAFF41F671320C4B6043DC69DA633F
:101CA0005A6804F4803422F440125DB9084988422D
:101CB0008CBF4FF480100020104358600CB10022FC
:101CC000DA6338BD0349F2E700900050000003508A
:101CD000005A6202002D310170B5440905460E46D6
:101CE0000ED140F21F310F4805F0AFF805F01F0587
:101CF000AEB104F58053012000FA05F51D6070BDFA
:101D0000012C08D0022C08D040F22931054805F0FA
:101D10009CF80024EAE7044CE8E7044CE6E704F505
:101D20000053E8E7FD7B00086480005068800050A5
:101D300030B585B0002180280446CDE9001100F0BF
:101D4000938029D8002800F09580A0F120043D2C34
:101D500035D83D2C33D8DFE804F08D998D99A8A8AB
:101D6000A8A8A899B23FC8633F99999932323232F4
:101D7000323232329999996BD299323232323232CE
:101D800032323232323232A88D8D8DCD3F3FD77A0A
:101D900050AD323232323282B0F5B06F00F08F8007
:101DA00030D8B0F5207F71D00FD8B0F5C07F61D0AA
:101DB000B0F5007F61D0B0F5807F00F0858040F203
:101DC0007C41544805F041F851E0B0F5607F67D0A0
:101DD0000DD8B0F5407FF2D1FFF71AF804464FF462
:101DE0002070FFF711FFB4FBF0F040083EE0B0F5C3
:101DF000806F5AD0B0F5A06FE1D100216846FFF79F
:101E000063FD34E0B0F5106F74D016D8B0F5E06F14
:101E100075D00AD8B0F5C06F67D0B0F5D06FCED10D
:101E200000216846FFF744FE21E0B0F5F06FC6D10F
:101E300000216846FFF7C4FE19E0B0F5406F39D0C5
:101E40000AD8B0F5206F5FD0B0F5286FB7D1002168
:101E50006846FFF707FE0AE0B0F5486FAFD10021F2
:101E60006846FFF7C7FD02E0FEF7B8FF0090009854
:101E700005B030BDFEF7CCFFF8E7FEF7AFFF054633
:101E80002046FFF7C1FEB5FBF0F0EFE7FEF7C0FF1D
:101E900004464FF42070FFF7B7FEB4FBF0F0E5E71F
:101EA00001A8FFF745FC019DEAE700216846FFF71E
:101EB00069FCDCE700216846FFF79EFCD7E70021BC
:101EC0006846FFF7D1FCD2E74FF0E02302911B698F
:101ED0005B0705D5FEF79CFF0290029B0093C6E7C7
:101EE00003A902A8FFF72AFDF7E700216846FFF7DC
:101EF00025FDBCE700216846FFF70CFEB7E700218F
:101F00006846FFF739FEB2E700216846FFF73AFD61
:101F1000ADE700BFFD7B000808B58020FFF708FF94
:101F2000034B98429EBF4FF48032024B1A6708BDA4
:101F3000005A620200A000501FB50023B0F5807F58
:101F4000019300F0C38064D85D2855D84C2806D88A
:101F50002D2847D823282BD840F25D51A5E04D38D5
:101F60001028F9D801A353F820F000BFC3200008BF
:101F7000591F0008591F0008591F00087520000844
:101F8000591F0008591F0008492100089320000824
:101F9000392000083F210008591F0008591F000878
:101FA000591F0008591F0008591F00085321000835
:101FB00024380928D0D801A353F820F0C320000802
:101FC000C3200008C3200008C3200008C320000865
:101FD000591F0008B3200008591F000855200008A9
:101FE000F92000083D2800F082803E28B4D100206E
:101FF00001A9FFF7C1FD60E08028ADD1574B1B6FF1
:1020000003F00703013B032B4DD8DFE803F04A47F9
:10201000878FB0F5F06F6AD021D8B0F5B06F48D097
:102020000FD8B0F5607F00F0858095D3B0F5806F54
:1020300047D0B0F5A06F8FD1002001A9FFF744FC75
:102040003BE0B0F5D06F57D0B0F5E06FCFD0B0F532
:10205000C06F81D1002001A9FFF770FC2DE0B0F521
:10206000206F71D00BD8B0F5086F4AD0B0F5106F63
:102070007FF472AF002001A9FFF74CFD1DE0B0F521
:10208000406F5CD0B0F5486F63D0B0F5286F7FF437
:1020900063AF002001A9FFF7E5FC0EE005230193E3
:1020A0000BE00223FBE740F2AE412D4804F0CDFEE9
:1020B00003E0002001A9FFF7D7FB019805B05DF808
:1020C00004FB002001A9FFF75DFBF6E702934FF048
:1020D000E0231B695B0705D5FEF79AFE0D230393EA
:1020E000039BDCE703A902A8FFF728FCF8E7002020
:1020F00001A9FFF765FDE0E7002001A9FFF7D8FC83
:10210000DBE7164BD3F8003103F00303022B07D0B3
:10211000032B09D0012B0BD1FEF790FE0323BEE762
:10212000FEF7E8FE0923BAE704F087FE0823B6E7C6
:102130000123B4E7184601A9FFF7FAFABDE700202A
:1021400001A9FFF759FBB8E7002001A9FFF71AFC26
:10215000B3E7002001A9FFF74DFCAEE70080005077
:10216000FD7B00084FF48012034B5A664FF4803217
:10217000024B9A62704700BF009000500050005A16
:1021800038B5036804460F2B04D940F649317E4820
:1021900004F05BFE63680F2B04D940F64C317A489B
:1021A00004F053FEA3680F2B04D940F64F31764854
:1021B00004F04BFE237B0F2B04D940F652317248BA
:1021C00004F043FE637B0F2B04D940F655316E4873
:1021D00004F03BFEA37B3F2B04D940F658316A48FC
:1021E00004F033FEE37B3F2B04D940F65B316648B5
:1021F00004F02BFE2369032B04D940F65E316248BC
:1022000004F023FE6369032B04D940F661315E4874
:1022100004F01BFEE369032B04D940F664315A48ED
:1022200004F013FE8020FFF787FE032800F08A8069
:102230004FF48012554B4FF0A0615A6645F60E03DD
:10224000534AC2F88030534B99624FF4803103F502
:1022500080539962936DD903FCD4916D11F0804144
:10226000FBD1D4E900031B0543EA0063E07B034391
:10227000207B43EA0043607B43EA0033A07B43EAD0
:10228000801313619069D4E904531B0643EA856304
:1022900000F000400343A07EE57E0343207E43EA36
:1022A0000043607E43EA00239361E069136A0028DB
:1022B0000CBF0022082223F00F0343EA000343EA85
:1022C000850343EA0203324A334D13623BD194F84B
:1022D0002430916A94F82000DB000D4043EA40135B
:1022E00094F821102B4343EA011343F480339362A3
:1022F0002A4B916D33EA0101FBD14FF080712548E3
:1023000081621369A56823F4700343EA05531361DE
:102310004FF00043836194F822300BB9204B99624F
:1023200094F823303BB94FF480321D4B9A62184A1F
:10233000936D5B00FCD494F825301BB1144B194A03
:10234000C3F8802038BD022808D111611648916178
:102350004FF408524FF47F4104F0DEFD0C4994F82D
:1023600022308A6A94F820001B06154043EA401385
:1023700094F824202B4343EAC20394F8232043EA31
:1023800002438B62D7E700BFFD7B0008009000503E
:102390000040005A0050005AC7FFFEFE0300010033
:1023A0000060005AF1A7FFFF3440005A014B93F937
:1023B00000007047C1100020014B1880704700BF1B
:1023C000BC10002038B5B0F5207F77D00ED8B0F51E
:1023D000007F61D003D890B3B0F5C07F2FD040F21A
:1023E0000231BDE838403D4804F02FBDB0F5607FB4
:1023F000F5D13B4A4C1ED2F8FC5015F080751EBF3B
:10240000D2F8FC3023F08073C2F8FC30032C04D9DE
:1024100040F2E321314804F018FD324BD3F880102C
:1024200021F0300141EA0411C3F8801035B12C4A83
:10243000D2F8FC3043F08073C2F8FC3038BD10296C
:1024400001F1FF3404D8284B23FA01F1CB0704D45F
:1024500040F2B921214804F0F8FC04F06EFD04F0CC
:102460007AFD4FF48031214B1E4A1967136F23F414
:10247000704343EA04331367FEF7CAFC0446FFF7D0
:102480004BF9C0F10201204604F05FFD00F040F876
:10249000BDE83840FFF740BD4C1E1F2C04D940F268
:1024A000F6210E4804F0D1FC0E4BD3F8901021F029
:1024B000F85141EA0461C3F89010BFE74C1E012CAB
:1024C00004D94FF43F71054804F0BFFC054B196F68
:1024D00021F4806141EA84211967AFE7FD7B0008A0
:1024E00000ED00E000800050160101000090005057
:1024F00008B50121022000F067FB04F01EFD04F086
:102500002AFD4FF48032014B1A6708BD009000503D
:1025100008B54FF4C070FFF70BFCBDE80840044954
:1025200088428CBF022101214FF42070FFF74ABF7F
:1025300080F0FA02F8B5B0F5807F0C4600F07A81A1
:102540006FD85D2861D84C2806D82D2846D8232876
:102550002AD840F61E11A7E14D381028F9D801A35A
:1025600053F820F00B2800085325000853250008D5
:1025700053250008D32600085325000853250008DA
:10258000D72A0008152700084F260008832A0008CC
:10259000532500085325000853250008532500083B
:1025A00053250008172B000824380928D1D801A387
:1025B00053F820F00B2800080B2800080B2800080F
:1025C0000B2800080B28000853250008D92700080D
:1025D00053250008952600081D2900083D2800F015
:1025E0007D813E28B5D1013C0B2C00F26B82DFE8E7
:1025F00014F06E02690269026902690269026902E5
:1026000069025D027002700267028028A1D18B1EF0
:10261000062B00F2D680DFE803F0D1C2D4DCD4D49C
:102620009200B0F5F06F00F0598145D8B0F5B06F69
:1026300000F0D28023D8B0F5607F00F0DA8188D333
:10264000B0F5806F00F0E180B0F5A06F81D1013C62
:10265000112C00F20D82DFE814F010020B020B02C5
:102660000B020B020B02FD010B020902070207021B
:102670000B020B020B020B020B020B021202B0F553
:10268000D06F00F04B81B0F5E06FACD0B0F5C06F0B
:102690007FF45FAF013C0B2C00F21781DFE814F0F0
:1026A0001A01150115011501150115011501150175
:1026B00009011C011C011301B0F5206F00F00B8211
:1026C0001CD8B0F5086F00F06481B0F5106F7FF48E
:1026D00040AF013C0E2C00F25381DFE814F05601AC
:1026E0005101510151015101510151015101430168
:1026F000580158014D01510151014F01B0F5406F92
:1027000000F0BF81B0F5486F00F00582B0F5286F8A
:102710007FF41FAF112C00F01E82152C00F01D82DB
:1027200040F6EC01A04804F090FB00229F49D1F84C
:10273000703223F003031343C1F870322EE00025FA
:1027400004264FF480370121022000F03DFA04F006
:10275000F4FB04F000FC964B944A1F67136F23F0C0
:10276000070333431367FEF753FB0646FEF7D4FF18
:10277000C0F10201304604F0E8FB0121002000F026
:102780007BFAFFF7C5FEFFF7C7FB3DB9032C05D168
:10279000884B894A9F62936D5800FCD4F8BD4FF472
:1027A0008012834B0E465A664FF48032824B9D6AEC
:1027B00003F58053C5F300659A62C2E70025012640
:1027C000BFE7002540F21461774804F03EFB2E4637
:1027D000B7E700250226B4E7072C12D0102C12D040
:1027E000022C05D040F25D616F4804F02EFB0024FE
:1027F0006E4BD3F8801121F003010C43C3F88041E4
:10280000CCE70324F4E70124F2E7013C062C0AD8C4
:102810006A4B195D654AD2F8203123F007030B4358
:10282000C2F82031BAE74FF4D3615F4804F00DFBE2
:102830000021EFE7A1F10904082C33D8DFE804F008
:10284000050532051C32323205004FF48032574BF9
:102850005B49586E03F580535A664B6A43F0010397
:102860004B62C1035CBF574B5A664FF0E0221369BD
:1028700023F00403136191E74FF480324B4B50492E
:10288000586E03F580535A664B6A23F001034B627E
:10289000C3035CBF4B4B5A664FF0E022136943F011
:1028A0000403E7E74FF4D861BDE8F8403E4804F080
:1028B000CCBA02223D49D1F8403123F0030313433F
:1028C000C1F840316AE70322F4E74FF4DC6136488F
:1028D00004F0BBFA0022EDE70122EBE7013C0B2CF0
:1028E00013D8DFE804F0171212121212121206198E
:1028F000191002222D49D1F8603123F0030313434C
:10290000C1F860314AE70322F4E740F20271264839
:1029100004F09BFA0022EDE70122EBE7013C0E2CCC
:1029200017D8DFE804F01B16161616161616081D23
:102930001D121616140002231C49D1F8002222F0A1
:1029400007021343C1F8003228E70323F4E7042306
:10295000F2E740F24F71144804F077FA0023EBE7F6
:102960000123E9E702231149D1F8082222F00702E6
:102970001343C1F8083211E70323F4E70423F2E715
:1029800040F27371084804F060FA0023EBE701237A
:10299000E9E74C1E082C23D8DFE804F0272229227F
:1029A00022222220160000BFFD7B0008008000507C
:1029B000009000500060005A0040005A447C00081B
:1029C00000C0075000A0005002226549D1F8003134
:1029D00023F003031343C1F80031DFE60322F4E7D9
:1029E00040F28F715F4804F030FA0022EDE70122D7
:1029F000EBE75D4AD2F8FC5015F080751EBFD2F8A7
:102A0000FC3023F08073C2F8FC3007291CD00E295B
:102A10001CD006291CD040F2BE71524804F015FAB1
:102A200000224F49D1F8803023F003031343C1F84B
:102A30008030002D3FF4B2AE4B4AD2F8FC3043F068
:102A40008073C2F8FC30A9E60222EAE70122E8E737
:102A50000322E6E702234249D1F8202222F00702AE
:102A60001343C1F8203299E60323F4E70423F2E785
:102A700040F619013B4804F0E8F90023EBE7012395
:102A8000E9E7023C052C0AD8384B195D344AD2F8E4
:102A9000283123F007030B43C2F828317EE640F6C5
:102AA0004A01304804F0D1F90021EFE702222C4915
:102AB000D1F8403223F003031343C1F840326DE6EE
:102AC0000322F4E740F68801264804F0BEF900220C
:102AD000EDE70122EBE7102C17D012D8022C16D00C
:102AE000072C16D040F6BE011E4804F0AEF90022B5
:102AF0001B49D1F8603223F007031343C1F8603259
:102B00004CE6112CEED10222F2E70122F0E703227B
:102B1000EEE70422ECE7102C17D012D8022C16D0C6
:102B2000072C16D040F6D6010E4804F08EF900228C
:102B30000B49D1F8943223F007031343C1F89432C0
:102B40002CE6112CEED10222F2E70122F0E703225B
:102B5000EEE70422ECE70122E8E50222E6E500BF09
:102B600000800050FD7B000800ED00E04B7C000879
:102B700038B5C5B24B2D044604D940F2163107488A
:102B800004F063F9064B640953F8240005F01F05AF
:102B9000E840C04300F0010038BD00BF517C000890
:102BA00000E100E0024A536B0342FCD1704700BFD2
:102BB00000400950034A0179D36E23F030030B43E0
:102BC000D3667047004000502DE9F0410446264B83
:102BD000D3F88420D006FBD4D3F88430C3F3811318
:102BE0009C423ED0FEF7FAF8012C05460BD11F4B54
:102BF000984204D940F261711D4804F026F9012180
:102C0000284604F0A2F904F0C0F94FF00072194B05
:102C100007465A66204604F0C8F94FF48063124E06
:102C2000621E9340DFF848803367736E9A0103D4C5
:102C3000D6F884309B060AD5384604F0AAF9022C4F
:102C40000FD12846BDE8F041002104F07EB9D6F846
:102C500084309906E9D540F26F71404604F0F5F8EA
:102C6000E3E7BDE8F08100BF00400050005A620277
:102C7000997C00080060005007B518B90191FEF773
:102C8000ADF80199064B1B7843B1064B984205D825
:102C9000012003B05DF804EBFFF796BF0220F8E7D0
:102CA000B3320020005A620238B54FF00042244B84
:102CB000244C5A664AF6CD33656C014605F0010591
:102CC000236430BB0120FFF76DFF6368DB0708D486
:102CD000002415B11B4B1C4A1A6404F067F9204606
:102CE00038BD1A4B58600846194B226BD20705D4E1
:102CF000984201D10724ECE70130F6E79842E7D18A
:102D0000F8E70132236B13F0080305D08A42F8D1AB
:102D1000F0E700220E49F5E78A42EBD020210B4A6A
:102D200091620121A2F5805251600649084A886AE1
:102D3000800603D49342DDD00133F8E79342DEE707
:102D400000900050004009503254FFFF00600950CD
:102D500040420F0038B54FF00042164B01465A660C
:102D60004AF6CD33144C154A656C236443780B2026
:102D70005B0043F00103D363FFF714FF63688A78B5
:102D800023F4F87343EA02136360CA784B7943EA89
:102D90000223A3600A798B7943EA0223236108782E
:102DA000FFF782FFEB0744BF054B236404F0FEF8F6
:102DB000012038BD009000500040095000400050F4
:102DC0003254FFFF70B50F28044604D940F6FC5179
:102DD000134804F03AF84FF00042124B12495D6E6E
:102DE00003F580535A664AF6CD334E6C80200B644F
:102DF000FFF7D8FE0B6A23F00F030F2C94BF234379
:102E000043F00F030B62F30744BF084B0B64002D24
:102E1000A2BF4FF00042064B5A6604F0C7F870BDDF
:102E2000997C000800800050004009503254FFFF98
:102E300000A0005038B50D460446B0B1012817D0A7
:102E4000022817D0032803D10F23EB40DB0704D45B
:102E500040F22D41084803F0F8FF3020012144439F
:102E6000064B01FA05F51D5138BD40F2FF13ECE7A2
:102E70001F23EAE7FF23E8E7B07B000840D00350B8
:102E800038B50D460446B0B1012817D0022817D036
:102E9000032803D10F23EB40DB0704D440F2FE31BB
:102EA000084803F0D2FF302001214443064B01FAC9
:102EB00005F51D5138BD40F2FF13ECE71F23EAE78B
:102EC000FF23E8E7B07B000840E003502DE9F04124
:102ED0000D46174698460446002835D0012836D0BE
:102EE000022836D0032803D10F23EB40DB0704D49C
:102EF0004FF4B0711C4803F0A8FF37B129462046B3
:102F0000B8F1000F27D0FFF795FF0F21072D04EB35
:102F1000440688BFA5F108034FEA0616134895BF7B
:102F2000AB009B0004360C3607FA03F2994030449C
:102F300004F03DF8B7B929462046B8F1000F0DD08E
:102F4000BDE8F041FFF776BF40F2FF13CDE71F2346
:102F5000CBE7FF23C9E7FFF793FFD6E7BDE8F041D2
:102F6000FFF78EBFBDE8F081E07C000830C0035061
:102F700010B54FF400120B4BC3F88020BFF34F8FF6
:102F8000BFF36F8F0024FF22074B21465C65202092
:102F90009A625C60FEF7A0FE2146BDE81040212049
:102FA000FEF79ABE00E100E00000045038B50728A3
:102FB00004460D4603DD7721094803F046FF1F2C28
:102FC00003D99121074803F040FF074B074A01202E
:102FD000002D18BF134600FA04F41C6038BD00BF72
:102FE000287D0008707D00084010045040200450E7
:102FF00010B5044618B991211F4803F026FF237825
:103000001B0613F0604F03D092211B4803F01DFFF5
:10301000E3780F2B03D9A321174803F016FF0121F2
:103020002020FEF759FE01212120FEF755FE012246
:10303000124B5A60227812069A606178A27842EAAE
:1030400001429A61FF229A6200229A631A644FF049
:1030500000425A654FF0FF324FF4001103F5005360
:103060001A65074AC2F88011E3781B01DBB282F8C7
:103070001533116010BD00BF287D0008000004500A
:1030800000E100E02DE9F0410126C3B20728054622
:103090000C46904606FA03F603DDEC21364803F0B1
:1030A000D4FE1CB9ED21344803F0CFFE236823F48D
:1030B0007C1323F00F031BB1F0212F4803F0C5FE52
:1030C000A37A1B0413F47C0F04D040F209112A48A0
:1030D00003F0BBFEE37A1B0513F07E6F04D040F2D1
:1030E0000B11254803F0B1FE237B5B0513F0FE5F57
:1030F00004D040F20D11204803F0A7FE30201F4FEE
:103100001F4B617B1E65AB0000FB0575226803F158
:10311000A04303F588235A602966E37AA27A1B0547
:1031200043EA0243227B43EA425328F00302EB6561
:103130002A6703F031FF7B6D33437B65237A13B13C
:103140003B6C33433B64637A13B1BB6B3343BB6368
:103150002279A37943EA0243094A93616179E379C9
:1031600043EA014307498B61044B56639E64BDE803
:10317000F04103F017BF00BF287D00080000045095
:10318000002004500010045010B50124C3B20728D9
:1031900004FA03F404DD40F29711074803F055FEEA
:1031A00003F0FAFE054B5A6D22EA04025A659C624E
:1031B000BDE8104003F0F6BE287D00080000045072
:1031C00010B50124C3B2072804FA03F404DD40F269
:1031D000B5110A4803F039FE03F0DEFE084BDA6A47
:1031E000224209D15B6B34EA03030CBF01240024A3
:1031F00003F0D8FE204610BD0024F9E7287D000822
:10320000000004504FF48032064B5A6603F5E62363
:103210009B69C3F38512827003F03F021B0B42705F
:1032200003707047009000502DE9F04180460E4633
:103230001F46154622B94FF4A171314803F005FE2F
:1032400026B94FF42070FEF773FD0646402F2AD0B2
:1032500009D8A7B1202F1CD040F28911BDE8F04158
:10326000274803F0F2BD602FF6D1B5EB960F04D9D5
:1032700040F28311224803F0E8FD04241DE0B5EB81
:10328000161F04D94FF4BA711D4803F0DEFD102457
:1032900013E0B5EBD60F04D940F27911184803F0CA
:1032A000D4FD082409E00624B6FBF4F3AB4204D2B3
:1032B0004FF4BF71124803F0C8FD6C43610801EB85
:1032C0004616B6FBF4F40F4E203CB6EBC40F4FEAA3
:1032D000C40504D24FF4D071094803F0B6FDD8F804
:1032E0000830354023F06003C8F80830D8F80830BB
:1032F0001F43C8F80870C8F81C50BDE8F08100BF33
:10330000B87D0008F8FF7F0038B50C4B04469842A2
:103310000D4604D04FF43371094803F096FD0122A5
:1033200004F580535A60EB43934003F00A03636152
:10333000656115B904F50054626038BD00C00550E0
:10334000B87D000810B5124B0446984204D040F2F4
:103350004241104803F079FD012104F58053596082
:1033600040F6AA6341F20502636100230A48A360A4
:10337000E365E26004F500522361E361E364906475
:103380000348A365844204BF23656365516010BD93
:1033900000C00550B87D0008FFFF010070B5304B3C
:1033A000044698420D4604D040F2FD212D4803F01A
:1033B0004CFD2046FFF7C6FF012304F580567360DD
:1033C000AB7C1BB1A36843F08043A360EB7C5BB193
:1033D000234B9C4202BF2A7DA3F51033C3F8C821BA
:1033E000E36D43F08003E3652A8A6B7B2046134339
:1033F000EA891343E3602B7BD5E90112FFF714FF41
:103400006B7D1BB1A36843F48033A360AB7D1BB11C
:10341000A36843F40043A360EB7D2A7E1B071205DB
:1034200002F4E00203F0E0431343A3656B7E9A1EAF
:10343000012A4FF0020209D80B49032BC1F82027BB
:1034400009D10423F3652B78636170BD0749012B13
:10345000C1F82027F4E7042204F50053DA65F2E707
:1034600000C00550B87D000800D0035000E00350B4
:10347000054B9A689107FCD45A689207F9D4DA6927
:10348000002AF6D1704700BF00800A5008B5FFF748
:10349000EFFF0122024B03F580514A601A6108BD1B
:1034A00000800A50074B5A68012A0AD15A68D2078D
:1034B00002D5DA69002AF9D102221A610122024BEF
:1034C0005A60704700800A5000A00A5010B5064CA0
:1034D000FFF7CEFF6368012B03D1FFF7E3FFFFF790
:1034E000C7FF0378E36010BD00800A5018B1712156
:1034F000104803F0AABC4A680B7812B1127843EA6C
:10350000C2034A78002A14BF0222002213438A68A9
:1035100012B1127843EA82138A78002A14BF042277
:1035200000221343CA6812B1127843EA4223024AC6
:1035300093647047017E000800800A5020B14FF468
:103540008271034803F081BC024B5964704700BF8D
:10355000017E000800900A5020B14FF4A07103488A
:1035600003F073BC024B5964704700BF017E000832
:1035700000A00A5020B14FF4BE71034803F065BCAF
:10358000024B1964704700BF017E000800A00A507A
:1035900008B530B1044840F2B71103F056FC0020E2
:1035A00008BD024B186CFBE7017E000800800A5042
:1035B00008B548B1084840F2662103F046FC0020F7
:1035C00008BD064BD86CFBE70029FAD00129F7D1DA
:1035D000024B186DF4E700BF017E000800800A501E
:1035E00050B14FF44171074803F02FBC064BDA6429
:1035F0007047054B1A6570470029F7D00129F8D0AC
:10360000704700BF017E000800800A5007B5094BD3
:1036100018689A889B7900906846ADF804208DF868
:103620000630FFF797FB0320FFF7CCFB002003B029
:103630005DF804FB587E000813B50024064A68466E
:10364000536F43F00103536700948DF80440FFF774
:10365000B1FA204602B010BD0040005030B58BB02A
:103660006C461C4D0FCD0FC40FCD0FC495E8030061
:1036700084E80300184BD3F84C21120321D4D3F86B
:10368000504114F0FF0406D14FF6FF72134B1B8814
:10369000934219D01C468DF81940FEF787FE20444E
:1036A00080F308008DF818000D48FDF7CDFB684643
:1036B000FEF766FD4FF4FA70FEF77EFE00200BB0B9
:1036C00030BD4FF0FF34DFE7631C14BF00248C24AF
:1036D000E1E700BF607E00080080E00F0001E00F1E
:1036E000C017530210B56FF0040250210A480B4C6A
:1036F00012F0800FD3B21BBF03F00F03043BA318DB
:103700001B1802F101020CBF83F8001319764C2A32
:10371000EED1002010BD00BF00ED00E000E100E0B0
:1037200073B503F032FC104D104B2E781C6803F07B
:1037300030FC03F0AFFD60B1FF2E0AD000202978E5
:1037400001AA03F083FB18B18F21094803F07DFB28
:10375000019C2CB903F019FC064B1C6803F019FC02
:10376000204602B070BD00BFC2100020C81F00205C
:10377000887E0008CC1F002010B5044603F005FC2D
:10378000024B1C6003F005FC002010BDCC1F002084
:1037900038B53022037A0446534303F1A04303F5BE
:1037A0008023DD6ED0E9032313449D4201D8AA4251
:1037B00004D94FF43E71054803F047FBD4E90303F5
:1037C00003449D4218BF284638BD00BFDF7E000875
:1037D00030B587B0144605461046FFF7D9FF636938
:1037E000024683423CBFD4E903315B181B1AABB1DC
:1037F0001249284603910021CDE9013101230494A7
:103800000093D4E9001303F06DFB20B14FF4347141
:103810000B4803F01AFB002007B030BD012262768E
:1038200094F82D20002AF6D084F835301321E3696E
:10383000204698472046636A9847ECE7D13700084E
:10384000DF7E00087FB504460D4690F8376000F033
:10385000A7FE02282AD16DB346BBD4F88C3023B121
:103860004FF4B2711B4803F0F0FA1B4B0021009398
:1038700004F19003029350236A46012001910393BF
:1038800000F09AFFC4F88C0020B940F26D11114885
:1038900003F0DBFA237E4BB1D4F88C0001F018F86A
:1038A00020B14FF4B9710B4803F0CFFA84F83750C8
:1038B00004B070BD002EF9D0D4F88C0001F052F89D
:1038C00020B14FF4BC71034803F0BFFA0023C4F8E1
:1038D0008C30EBE7DF7E00083B7F00082DE9F047E6
:1038E00088B004460F461546984600F059FE022857
:1038F000064616D14FF0FF31A06B00F0DFFE002826
:1039000040F0248194F837305BB14FF0FF31D4F8A8
:103910008C0000F0A7FF20B140F293218C4803F007
:1039200094FA03F039FB814665B1237E03F0FF066C
:103930001BBB94F837502DB140F26331844803F03B
:1039400084FA35464846C8F8005003F02BFB00F0D7
:1039500027FE022808D1A06B00F0E0FE20B140F263
:103960009F217B4803F071FAD8F80030002B0CBF80
:103970001B20002008B0BDE8F0872046FFF708FFB5
:1039800063690646984206D1637E23B940F27F31CF
:103990006F4803F05AFA626996429CBFD4E903600B
:1039A0003618B61AAE4228BF2E4603F0F5FA94F840
:1039B0002D308246002B40F08880324638466169BF
:1039C00003F00BFE63693546334463612BE06069A5
:1039D000037803F0FD01112974D1216B884205D1D0
:1039E000A3F111014B424B4184F83430013D63692E
:1039F000216B01328B4203F1010308BF2363636132
:103A00009642E4D1D4E90323216B1344994208BFC1
:103A10002263216B8A4201D88B4204D84FF46D7126
:103A20004B4803F012FAD4E9032361691344994225
:103A300008BF626161698A4201D88B4204D84FF4A1
:103A40007171434803F001FA0023207A6376FDF791
:103A500017FD20B140F211313D4803F0F6F9204640
:103A6000FFF796FE6369834232D10023E66823762E
:103A700094F82D30666103B126632046636A984747
:103A8000344B324603930023029323692168019348
:103A90000123207A00930494636803F023FA20B191
:103AA00040F22D312A4803F0D0F9207AFDF708FDC5
:103AB00020B140F25131264803F0C7F9504603F0D7
:103AC00071FA3FE707F8013B91E73546002297E797
:103AD0000123237694F83730ABB1237E23B940F22B
:103AE00036311B4803F0B1F9D4F88C0000F022FF06
:103AF00048B9D4F88C0000F0EBFE20B140F2393127
:103B0000134803F0A2F9207A0DF11E01FDF740FDE4
:103B100020B14FF450710E4803F097F99DF81E3014
:103B2000002BC2D0207A0DF11F01FDF709FD20B155
:103B300040F24631064803F088F99DF81F1000292D
:103B4000B3D12246207AFFF743FEAEE7304611E7B5
:103B5000DF7E0008D137000870B50546046800F024
:103B60001FFD022816D14FF0FF31D4F8E00000F01D
:103B7000A5FD20B14FF4DA71374803F066F94FF034
:103B8000FF31A06B00F09AFD20B140F2B71132482E
:103B900003F05BF9FFF7C4FD854202D10020FFF777
:103BA000EBFD94F93630002B11DB012203F01F01ED
:103BB0005B099B0003F160438A4003F56143C3F84E
:103BC0008021C3F88020BFF34F8FBFF36F8FD4F8ED
:103BD0008C0000F0C7FE20B140F2CF111E4803F068
:103BE00034F9A06B00F0C4FD20B14FF4E9711A481C
:103BF00003F02BF9D4F8E00000F0BAFD20B140F258
:103C0000D511154803F021F9207AFDF779FC20B190
:103C10004FF4ED71104803F018F9207AFDF7D6FB48
:103C200020B14FF4EF710C4803F00FF9FDF7ACFB36
:103C300038B10A4B984204D04FF4F171064803F0B2
:103C400004F900232046C5E90033C5E90433AB601D
:103C5000A36ABDE870401847DF7E0008058000F0C9
:103C60002DE9F84304460D46164600F099FC02285B
:103C7000074641D094F82C80DFF8DC902E44AE4209
:103C800029D094F82D308BB103F086F9237E0746B6
:103C9000002B3BD1226B63699A4204D040F2F911A8
:103CA000484603F0D2F8384603F07CF994F83430F3
:103CB000002BE4D0B8F1000F06D02B780A2B03D1EB
:103CC0000D212046E36998472046E36915F8011B5A
:103CD00098470028D3D000F063FC022809D1D4F81B
:103CE000E00000F01BFD20B140F277211A4803F0FC
:103CF000ACF80020BDE8F8834FF0FF31D4F8E000C5
:103D000000F0DCFC0028B5D03846F3E72046FFF78A
:103D10003FFDE1680138884238BF2069D4F830C0DF
:103D20003CBF00F1FF30401803469C450BD013F810
:103D30000129112A01D0132A07D1A2F111035A42F5
:103D40005A4184F834202063ADE7994282BF236949
:103D500003F1FF335B18E8E7DF7E0008F0B58FB0B2
:103D60000C460546164600214FF49A7220461F461F
:103D700003F040FC96E80300002332692376F368E1
:103D800084E80300C4E90423327DE36084F82C2036
:103D9000B27D2363012384F8343084F83530149BDA
:103DA00084F82D202362159BE7616362169BA36252
:103DB000337A84F836303F4B2C606B603E4BAB60FF
:103DC0003E4B2B613E4B6B613E4BEB60FDF724FBA2
:103DD00030B13D4B984203D0102420460FB0F0BDC7
:103DE000002104F10800FDF79FFA0028F4D1374BB9
:103DF000AB61374BEB61012384F83730354BCDE9AC
:103E0000063004F13C030893502306A8099300F000
:103E100013FCA06318B9C1212F4803F016F82F4BEB
:103E200006A806930023079304F1E403089300F027
:103E300003FCC4F8E00018B9C721274803F005F8CF
:103E4000274B00210A9304F190030C935023012087
:103E50000AAA0B910D9300F0AFFCC4F88C0018B9BE
:103E6000CF211D4802F0F1FF1E4B012703930023D1
:103E7000049402932369009701936368E2682168C0
:103E8000207A03F02FF804460028A5D196F90830CF
:103E9000002B0BDB03F01F025B099B0003F1604367
:103EA000974003F56143C3F880711F602846FFF710
:103EB00063FC92E7613C0008DD38000819710008D6
:103EC0001F710008593B0008038000F045380008C6
:103ED00025710008477F0008DF7E0008517F000839
:103EE0003B7F0008D13700082DE9F04186B01C4621
:103EF0005A4B012702935A4B0C9D01930023904685
:103F000000930A46CDE903772946564BFFF726FF73
:103F1000064600287DD123683946C5F834316368E8
:103F20003A20C5F83831637A85F83D31237A85F82F
:103F30003C31E37A85F83F31A37A85F83E31637BE3
:103F400085F84131237B85F84031E37B85F84331A7
:103F5000A37B85F84231FDF7BFFE3B460422617A20
:103F6000207AFEF7B3FF3B460222E17AA07AFEF701
:103F7000ADFF39466068FDF7AFFE88F80060414646
:103F80002068FFF70BFA1420617C374B01F13902EE
:103F900052019850607A227A03EB411342EA0042C0
:103FA000C3F83827E17AA27A42EA0142C3F83027FF
:103FB00085F8446198F81930032B4DD8DFE803F0F9
:103FC0001F022D470123002785F8443100230222D8
:103FD000617B207BFEF77AFF617B227B637C42EA78
:103FE000014241F228715B0103F1A04303F57033F4
:103FF0005A500422236803F58053DA6587B9D5F84F
:1040000034210521D36C206843F00403D364FFF707
:104010007BF9304606B0BDE8F081022385F84431D3
:1040200000230422E17BA07BFEF750FF0220617C8D
:104030000D4B01F1B9025201985003EB411341F2CB
:104040002C71E07BA27B42EA00425A50D7E703235F
:10405000012785F84431B9E72326DAE739710008EA
:104060002B710008B771000800C0035038B5046810
:10407000237ED4F83401CBB9C36C23F00403C364AA
:104080000123237694F8373093B3D4F88C0000F0F2
:1040900051FC68BBD4F88C0000F01AFC40B3BDE8BA
:1040A00038404FF48271184802F0CFBE637E2BB3C4
:1040B00094F82D3013B30025132184F8355002F005
:1040C00088FFD4F83431DA6C42F00402DA645B6AB7
:1040D000DBB2112B0DD1012384F834303022237A46
:1040E000534303F1A04303F58023DB6E013B2363BD
:1040F00038BD132BFCD184F83450EFE7C36C23F0A8
:104100000403C364F4E700BF5C7F000830B50F4CC4
:1041100041612368ABB92060836011E0891A9A6815
:104120001D4641612AB113465A698A42F6D955B1F2
:104130001A461346A860836013B15A69511A59612F
:1041400030BD0025F0E72060F5E700BFDC1F002050
:1041500010B500F085F90A4C0A4B19682368C31A98
:1041600001B10BB9206010BD4A699A423ABF9B1A4F
:104170000022D21A4A6128BF00238968F0E700BFF5
:10418000D01F0020DC1F002038B5134D2B685B6961
:1041900093B1124A022014681C4403F017F8204619
:1041A00000F066F900230E492A680B70D08880075A
:1041B00009D501230B7038BD022003F007F8022057
:1041C00000F0A4F9EEE79268002AF4D050690344A5
:1041D000012BEBD9EFE700BFDC1F0020D01F002030
:1041E000B532002000220C490B687BB183420AD112
:1041F00083687AB1936083681BB15A6941690A4444
:104200005A61002070471A469B68EEE70028EFD0FD
:10421000022070470B60EEE7DC1F002070B502F053
:10422000BBFE144E05463478FCB9134B1C60134B8F
:104230001C60134B1C8000F0E1F8012002F0C6FF67
:1042400002F0E7FF0F4B0246186020B9284602F043
:10425000A9FE232070BD234640F2E7310A4802F050
:104260005DF80A4B186001233370284602F09AFE6D
:104270000020EFE7B4320020DC1F0020D01F002018
:10428000A82B0020D81F002018FCFFFFD41F0020FF
:104290002DE9F84FC20704460BD54F4A1388013366
:1042A0009BB21380FFF754FF4C4B1B680BB1FFF719
:1042B0006BFFA30740F18E8002F06EFE4FF0000A04
:1042C00005465646FFF744FFD046444FDFF81491A9
:1042D0003C680CB163698BB10022414B012E1A700E
:1042E00003D11AF0020F18BF1E70002C62D0FFF726
:1042F0004BFF2846BDE8F84F02F054BE23461A791A
:104300002179914288BF1C469B6813B15A69002AE3
:10431000F5D0284602F046FED4F810A0BAF1000FFE
:104320004CD000F09DF8A269851AEB17AA4578EBEE
:10433000030344DA236913440122A36123691BB3F5
:1043400012BBEB17BAEB050563EB4303002B04DA52
:1043500040F22A51484602F078FDA38B33B1E28B3C
:1043600013449BB2B3F57A7F1CD2E38302F014FEB0
:10437000824629462046FFF7C9FEA36922695046B6
:104380001344A36102F00EFEE368B4F806A0013600
:1043900013B120462168984702F0FEFD0546FFF75D
:1043A000D7FE95E7A3F57A73E383A369013D013B4B
:1043B000A361DBE7022000F093F89AE7554602F08C
:1043C000EBFD83462046FFF70DFF584602F0EAFD5D
:1043D0000022B3E7BDE8F88FA82B0020DC1F0020E7
:1043E000B6320020B97F0008034B5A68D20702D5C5
:1043F000DA69002AF9D1704700800A5010B586B0FA
:10440000002401213E20ADF80810CDE903448DF8C9
:1044100004408DF80A400594FDF75EFC01A8FFF703
:1044200055F8204602A98DF80840FFF75FF82046AE
:104430000F21FFF791F80F212046FFF79BF8FFF7B8
:1044400025F8FFF7D1FF0822034B9C61034BC3F80B
:1044500088219A6006B010BD00800A5000E100E09B
:1044600008B5FFF7C1FF014B986908BD00800A50ED
:10447000F8B5044602F089FDFFF7B6FF164B074674
:104480009D6902F09FFE06460020FFF781F8830732
:1044900004D4731B032B01D8AE420FD10021631B40
:1044A000022B98BFEC1C0846B4F1FF3F2CBF2246FC
:1044B000621EFFF795F8022002F088FE384602F0EF
:1044C00068FD064A137833B103498B6C43F001034E
:1044D0008B6400231370F8BD00800A50C3100020C5
:1044E000830700F0010109D50122064B41F00201CA
:1044F0001A70054A936C23F0010393640020FFF7C0
:104500002BB800BFC310002000800A50830742BFB1
:104510000222014B1A64704700900A5038B54FF0E0
:10452000FF34074D01342046FCF7ECFA4369AB42F7
:10453000F8D12046FCF7E6FABDE8384002F07BBE31
:104540000040005B38B54FF0FF34074D0134204682
:10455000FCF7D8FA4369AB42F8D12046FCF7D2FA0F
:10456000BDE8384002F067BE0080005BEFF30583D2
:1045700073B9EFF31082094B12B9EFF3118212B144
:104580001A68022A04D0186828B901221A607047F4
:104590006FF0050070474FF0FF307047C0220020D9
:1045A00008B501F027FA38B1022804D0034B186887
:1045B000431E5842584108BD0320FCE7C02200209A
:1045C00010B5EFF30583ABB9EFF310820C4B12B9C2
:1045D000EFF3118212B11A68022A0BD01A68012A6D
:1045E0000BD10024074AD47702221A6000F06AFF38
:1045F000204610BD6FF00500FBE74FF0FF30F8E7F5
:10460000C022002000ED00E008B5EFF3058373B988
:10461000EFF3108313B9EFF311831BB1054B1B6844
:10462000022B04D010B101F09BF8002008BD6FF000
:104630000500FBE7C022002070B50546EFF30586B4
:1046400016B10024204670BDEFF3108212B9EFF3CB
:1046500011821AB1184A1268022AF2D015B16E6896
:104660003307EED406F001067DB1D5E9021351B14E
:104670004F2BE6D9DEB1042002F0DDFE044600280F
:10468000DFD02D680AE0002BDBD196B1042002F0C8
:10469000E7FE04460028D4D0002DF2D1294620465A
:1046A00000F08AFD002ECDD044F00104CAE70120BD
:1046B000E2E70120EBE700BFC022002010B503466F
:1046C0000C4620F0010003F00103EFF30582E2B98C
:1046D000EFF3108212B9EFF311821AB10E4A126889
:1046E000022A12D0A0B1214663B100F0DBFC012800
:1046F00001D1002010BD002C14BF6FF001006FF03D
:104700000200F7E700F030FCF1E76FF00500F1E799
:104710006FF00300EEE700BFC022002008B503469B
:1047200020F0010003F00103EFF30582C2B9EFF3BB
:10473000108212B9EFF311821AB10C4A1268022AE0
:104740000ED080B13BB100F0CDFA01280CBF0020A3
:104750006FF0020008BD1A46194600F02DFAF4E782
:104760006FF00500F6E76FF00300F3E7C0220020CA
:1047700007B520F00100EFF30583A3B9EFF3108331
:1047800013B9EFF311831BB10A4B1B68022B0AD03C
:1047900060B1019000F022FD019800F033FD00208F
:1047A00003B05DF804FB6FF00500F9E76FF003005C
:1047B000F6E700BFC022002073B50E461546EFF3A2
:1047C00005831BB10024204602B070BDEFF31083B7
:1047D00013B9EFF311831BB1214B1B68022BF1D0EE
:1047E0000028EFD0B042EDD3EDB1D5E90232C3B12C
:1047F0004F2AE7D9012829D103220092002211462D
:1048000000F028F904460028DCD0CEB100231A4677
:10481000194600F0D1F9012812D0204600F0F2FC30
:10482000D0E7002ACED1012804D10322002100F0D4
:104830004FF9E7E7314600F0A5F904460028C1D05A
:104840005DB92946204600F0B7FCBCE71A46314660
:1048500000F078F904460028B4D02D68F1E700BFD5
:10486000C022002013B50C4648B3EFF305834BB9C3
:10487000EFF3108313B9EFF31183BBB1134B1B6834
:10488000022B13D1DCB9214601AA019400F02AFCC5
:10489000012811D1019B13B9002002B010BD4FF0C7
:1048A000E0234FF08052C3F8042DF5E7214600F0D5
:1048B0005BFB0128F0D02CB96FF00200EDE76FF040
:1048C0000300EAE76FF00100E7E700BFC022002025
:1048D00013B548B3EFF305834BB9EFF3108313B966
:1048E000EFF31183B3B1124B1B68022B12D10024DA
:1048F00001A9019400F06CFA012812D1019B13B9AF
:10490000002002B010BD4FF0E0234FF08052C3F8FA
:10491000042DF5E700231A46194600F04DF9012849
:10492000EED06FF00200ECE76FF00300E9E700BFA4
:10493000C0220020034690B1EFF305824AB9EFF39D
:10494000108212B9EFF3118232B1054A1268022ABD
:1049500002D1184600F024BC184600F00DBC704788
:10496000C022002007B5EFF30583A3B9EFF310834E
:1049700013B9EFF311831BB10A4B1B68022B0AD04A
:1049800060B1019000F02AFC019800F03BFC00208F
:1049900003B05DF804FB6FF00500F9E76FF003006A
:1049A000F6E700BFC022002040F67411014802F073
:1049B0004CBA00BF14800008034B0360034B0B602C
:1049C000A0231360704700BF60220020E01F00207A
:1049D000034B0360034B0B60A0231360704700BFC1
:1049E00044250020C422002038B50D46044620B9D5
:1049F0004FF48D71164802F028FA01F0F7FAD4E965
:104A00000F314B432268D0185B1A1344A060E36057
:104A10000020FF23A063626084F8443084F84530AE
:104A200065B9236933B104F1100000F045FF08B106
:104A300002F0A4FD01F0E8FA012038BD04F11000F5
:104A400002F02AFC04F1240002F026FCF2E700BF89
:104A500072800008F7B50D4616461C46074620B979
:104A600040F25511194802F0F0F924B940F25911F9
:104A7000164802F0EAF926B325B940F25D11134851
:104A800002F0E3F950230193019B502B04D04FF423
:104A9000B3710E4802F0D9F9019B7CB10121002DC0
:104AA00008BF26462046C4E90F7584F846102660E4
:104AB000FFF79AFF9DF8203084F84C30204603B071
:104AC000F0BD002DDED04FF4AF71D8E77280000842
:104AD000F8B50D461746064620B940F2931118481E
:104AE00002F0B3F905FB06F485B1B4FBF5F3B3426C
:104AF00004D040F29B11124802F0A7F914F1510FB3
:104B000004D94FF4CF710E4802F09FF904F1500020
:104B100001F028FB044670B1002380F8463065B1EF
:104B200000F1500301212046C4E90F652360FFF71F
:104B30005BFF84F84C702046F8BD0346F2E700BFE7
:104B40007280000873B50D461646044620B940F23F
:104B5000DD210B4802F079F9AC4204D240F2DE21AB
:104B6000074802F072F902230022009311463346EF
:104B70002046FFF76FFF00B1856302B070BD00BF34
:104B80007280000838B50D46044620B940F2FA217B
:104B9000084802F05AF9AC4204D240F2FB21054821
:104BA00002F053F9022200212046FFF791FF00B1E5
:104BB000856338BD728000082DE9F04385B00F464B
:104BC0001E460446019220B940F21931444802F0D1
:104BD0003CF937B9236C23B140F21A31404802F056
:104BE00034F9022E07D1E36B012B04D040F21B31C4
:104BF0003B4802F02AF900F0FDFE30B9019B23B1D9
:104C000040F21E31364802F020F94FF00008C1464C
:104C100001F0ECF9A26BE36B9A4201D3022E13D19F
:104C200032463946204602F083FB636A1BB104F129
:104C3000240000F041FE08B102F0A0FC01F0E4F90C
:104C4000012005B0BDE8F083019D1DB901F0DCF93C
:104C50000020F6E7B8F1000F02D102A800F06EFEC6
:104C600001F0D2F900F070FC01F0C0F994F8443082
:104C7000FF2B08BF84F8449094F84530FF2B08BF01
:104C800084F8459001F0C0F901A902A800F062FE85
:104C9000F8B901F0ABF9A26BE36B9A420FD101F0C6
:104CA000B3F9019904F1100000F0CCFD204602F0A8
:104CB0008AFB00F0EBFC48B902F060FC06E001F072
:104CC000A3F9204602F07FFB00F0E0FC4FF0010862
:104CD0009EE7204602F077FB00F0D8FCB8E700BF63
:104CE0007280000838B5044620B940F27A210A489B
:104CF00002F0ABF8A56800F077FE85420AD1E368C0
:104D0000013BE36023B91A4619462046FFF754FFDA
:104D1000012000E0002038BD728000082DE9F84332
:104D2000894690461F46044620B940F2ED31274897
:104D300002F08BF8B9F1000F06D1236C23B140F2D9
:104D4000EE31224802F081F8022F07D1E36B012BEC
:104D500004D040F2EF311D4802F077F802F02BFC4E
:104D6000A26BE36B06469A4201D3022F2CD194F832
:104D700045503A46494620466DB2A36B02F0D8FA38
:104D80006B1C15D1636A0BB901240BE004F12400FC
:104D900000F092FD0028F7D0B8F1000FF4D0012404
:104DA000C8F80040304602F011FC2046BDE8F88308
:104DB0007F2D04D14FF48F61044802F046F801358D
:104DC0006DB284F84550DFE70024EBE772800008FD
:104DD000F8B50E46044620B94FF49361204802F01E
:104DE00034F8236C23B140F29C411D4802F02DF8A9
:104DF000236833B9A36823B140F2A141184802F0F7
:104E000024F802F0D8FBA36BE26B07469A4225D93F
:104E100094F845200133FF2A55B2A36312D1636A87
:104E20000BB9012409E004F1240000F045FD00283D
:104E3000F7D0002EF5D001243460384602F0C6FBCE
:104E40002046F8BD7F2D04D14FF4A461044801F041
:104E5000FCFF01356DB284F84550E2E70024ECE731
:104E6000728000082DE9FF410E460446019220B9E8
:104E700040F23C513B4801F0E8FF36B9236C23B1C6
:104E80004FF4A861374801F0E0FF00F0B3FD30B9FE
:104E9000019B23B140F24551324801F0D6FF002773
:104EA000B84601F0A3F8A56BA5B131462046013DF7
:104EB00002F073FAA563236933B104F1100000F026
:104EC000FBFC08B102F05AFB01F09EF8012004B08F
:104ED000BDE8F081019D1DB901F096F80020F6E7CC
:104EE00017B902A800F02AFD01F08EF800F02CFBA3
:104EF00001F07CF894F84430FF2B08BF84F844801C
:104F000094F84530FF2B08BF84F8458001F07CF809
:104F100001A902A800F01EFDC0B9204602F0FDF96B
:104F200070B1019904F1240000F08CFC204602F0DD
:104F30004AFA00F0ABFB08B902F020FB0127B0E70A
:104F4000204602F040FA00F0A1FBF7E7204602F00D
:104F50003AFA00F09BFB204602F0DFF90028EDD082
:104F6000BCE700BF72800008F0B585B0044601912F
:104F700020B940F2CE514A4801F067FF236C23B1BB
:104F800040F2D251464801F060FF00F033FD30B9E5
:104F9000019B23B140F2D751414801F056FF002553
:104FA0002E462F4601F022F8A36BABB1013BA36361
:104FB000236813B900F0FEFDA060236933B104F14A
:104FC000100000F079FC08B102F0D8FA01F01CF8EA
:104FD0000125284605B0F0BD019B4BB925B140F233
:104FE0001D612F4801F031FF01F00EF80025F0E7B8
:104FF00016B902A800F0A2FC01F006F800F0A4FA2D
:1050000000F0F4FF94F84430FF2B08BF84F844709C
:1050100094F84530FF2B08BF84F8457000F0F4FF8A
:1050200001A902A800F096FC10BB204602F075F919
:10503000C0B123683BB900F0D9FFA06800F0EAFCDA
:10504000054600F0E1FF019904F1240000F0FAFBAD
:10505000204602F0B8F900F019FB08B902F08EFA08
:1050600001269FE7204602F0AEF900F00FFBF7E7BC
:10507000204602F0A8F900F009FB204602F04DF9A5
:105080000028EDD0002DA4D000F0B0FF616A19B166
:10509000236B1968C1F13801A06800F03DFDA3E75A
:1050A0007280000870B50D46044620B940F2B22166
:1050B0000B4801F0CAFEA66800F096FC864204D1B7
:1050C0000120E3680133E36070BD29462046FFF705
:1050D0004BFF0028F8D0E3680133E360F4E700BF3A
:1050E000728000082DE9F84389469046054620B9AC
:1050F00040F23C711F4801F0A8FEB9F1000F06D143
:105100002B6C23B140F23D711A4801F09EFE02F073
:1051100052FAAC6B0746D4B195F84460494628462C
:1051200076B202F03AF9013C731CAC6315D12B69DD
:105130000BB901240BE005F1100000F0BDFB0028C5
:10514000F7D0B8F1000FF4D00124C8F80040384679
:1051500002F03CFA2046BDE8F8837F2E04D14FF4DC
:10516000F061044801F071FE013676B285F84460C2
:10517000DFE700BF7280000813B5044620B940F293
:10518000CE71064801F061FE00F030FFA06B019087
:1051900000F03AFF019802B010BD00BF7280000815
:1051A00010B5044620B94FF4FE61024801F04DFEEF
:1051B000A06B10BD7280000810B50023064A52F89B
:1051C00033402CB942F8331002EBC303586010BDD2
:1051D00001330A2BF3D1FAE7A425002010B50023F0
:1051E000074A02EBC3014C68844204D1002042F814
:1051F0003300486010BD01330A2BF2D1FAE700BF3B
:10520000A425002010B5044620B940F2FB710748E0
:1052100001F01BFE2046FFF7E1FF94F8463023B96A
:105220002046BDE8104001F039B810BD728000087A
:105230002DE9F041044600F0D9FE2D4B2D4E1A68A1
:105240002D4F01321A603568002D43D134601B6840
:10525000012B1FD1B8464046013502F01DF8382D0C
:1052600008F11408F7D1DFF8B880244D404602F069
:1052700013F8284602F010F8214802F00DF82148F2
:1052800002F00AF8204802F007F8204BC3F800802B
:105290001F4B1D6014201F4A1368013313601E4A00
:1052A00023641168E36A8B4200FB037004F104017C
:1052B00088BF136001F0FEFF00F0A6FE174B1B68CD
:1052C0009BB13368DA6AE36A9A420ED2BDE8F041D4
:1052D00002F054B9114B1B68002BDBD13368DA6A3A
:1052E000E36A9A4298BF3460D4E7BDE8F08100BF1A
:1052F000602A0020F425002000260020882A0020B3
:10530000A82A0020D42A0020C02A0020F825002046
:10531000FC2500206C2A0020702A0020BC2A0020D6
:10532000742A0020F8B50446144B154E1D683068E9
:105330000F46043001F0E1FF631C07D137B131683B
:1053400010480431BDE8F84001F0B4BF33682C19AF
:105350005C6007D30C4B18683168BDE8F840043135
:1053600001F0B4BF094B18683168043101F0AEFF99
:10537000074B1A68A24288BF1C60F8BDE82A0020CB
:10538000F4250020C02A0020FC250020F82500205C
:105390009C2A0020064A13681968064B19B94FF079
:1053A000FF321A6070471268D2681268F9E700BFCE
:1053B000F82500209C2A002010B590F85D300446A6
:1053C0003BB9006B00F06AFF2046BDE8104000F0DA
:1053D00065BF012BF9D0022B06D0BDE8104040F686
:1053E0009771024801F031BD10BD00BFC6800008B2
:1053F00080B50F4C0F4F104D236833B90F4B1B680E
:10540000012BF8D902F0BAF8F5E700F0EFFDFB68E0
:10541000DE68301D01F071FF2B68013B2B602368B3
:10542000013B236000F0F0FD3046FFF7C5FFE3E7E6
:10543000642A0020D42A0020602A002000260020B0
:105440002DE9F04387B00546DDE90F940E46174677
:105450009846B9F1000F04D140F25521184801F0E7
:10546000F4FC24B940F25621154801F0EEFC60230B
:105470000593059B602B04D040F25E21104801F09B
:10548000E4FC059BCCB1B9F1000F16D0022384F8DF
:105490005D3004ABC4F8309001930E9B2846009316
:1054A0003A4643463146029402F00FF82046FFF791
:1054B000BFFE049807B0BDE8F08300230493F8E72B
:1054C000C680000830B589B0002507AA06A905A83E
:1054D000CDE90555FFF770FA059B079A0293069BE5
:1054E0001249CDE9005312482B46FFF7A9FF80B1BE
:1054F00000F0BEFB012804460FD102F05CF84FF02B
:10550000FF320C4B1A600C4B1C600C4B1D6000F002
:10551000E7FD0B4B1B6809B030BD0134F9D140F6F3
:105520004301084801F091FCF3E700BF1A8100082D
:10553000F15300089C2A0020BC2A0020E82A002001
:1055400050100020C6800008024A1368013313601F
:10555000704700BF682A0020014B1868704700BFE1
:10556000E82A00202DE9F74F3C4B1B68002B6ED139
:105570003B4B1D6801351D609DB93A4C23681B6883
:1055800023B140F6C921384801F05FFC374B22684F
:10559000196821601A60364A136801331360FFF7F7
:1055A000F9FE344E00243368334F9D42DFF8D48037
:1055B00011D21422D8F80030DB6A5343FB58022B77
:1055C0002E4B28BF01241B68002B18BF0124204646
:1055D00003B0BDE8F08FDFF88C90DFF8ACA0D9F80D
:1055E00000301B681BB94FF0FF333360E1E7D9F897
:1055F0000030DB68D3F80CB0DBF80420954201D210
:105600003260D6E70BF104010846019101F075FE06
:10561000DBF82820019922B10BF1180001F06DFE92
:1056200001991423DBF82C00DAF80020904288BF9F
:10563000CAF8000003FB007001F03CFED8F800102F
:10564000DBF82C20CB6A9A4228BF0124C7E70C4A1A
:105650000024136801331360B9E700BF682A0020F3
:10566000E82A0020F8250020C6800008FC2500203C
:10567000A02A00209C2A002000260020EC2A0020DE
:10568000A42A0020F4250020702A0020F7B52B4C16
:10569000236823B940F6B601294801F0D6FB00F093
:1056A000A5FC2368013B236024682CB1002400F092
:1056B000ABFC204603B0F0BD224B1B68002BF5D09D
:1056C000214D224E224F1EE0EB68DC6804F11800E9
:1056D00001F013FE211D0846019101F00EFE142079
:1056E000E36A326800FB03709342019988BF33601C
:1056F00001F0E0FD174BE26A1B68DB6A9A4202D3B5
:105700000122154B1A602B68002BDDD10CB1FFF77D
:1057100041FE124D2C6844B101270F4EFFF722FFC6
:1057200000B13760013CF9D12C600B4B1B68002B9A
:10573000BCD001F023FF0124B9E700BF682A002094
:10574000C6800008602A0020A82A0020702A0020B5
:1057500000260020F4250020EC2A0020A42A0020A6
:1057600010B5044618B9BDE8104001F007BF094B59
:105770001B6823B140F24C51074801F066FB002141
:105780002046FFF7E1FEFFF7CDFDFFF77FFF002882
:10579000E9D010BD682A0020C68000082DE9F0413C
:1057A000224B1A68224B1AB101221A60BDE8F0811F
:1057B000204E1A6033681B6B1A68B2F1A53F0BD1FB
:1057C0005A68B2F1A53F07D19A68B2F1A53F03D15B
:1057D000DB68B3F1A53F04D0306831683431FFF79E
:1057E000E3F8154F154D3C68DFF8548014236343EC
:1057F000E958EA1889B15168083349682B4499423D
:1058000008BF4B68516008BF5360142303FB045565
:105810006B68DB6833603C60C8E724B940F604413C
:10582000404601F012FB013CE0E700BF682A00207F
:10583000EC2A0020F4250020702A002000260020F9
:10584000C680000838B50D46044620B940F61E4112
:10585000074801F0FAFA074B20461968183101F0A1
:1058600035FD2846BDE838400121FFF75BBD00BF8C
:10587000C6800008F425002070B50E461446054683
:1058800020B940F64D410A4801F0DFFA094B28469D
:105890001968183101F00EFD002C214608BF304672
:1058A000BDE8704018BF4FF0FF30FFF73BBD00BFB1
:1058B000C6800008F425002013B5C368DC6824B94D
:1058C00040F67D41164801F0C0FA04F1180108467F
:1058D000019101F012FD134B01991B68F3B9211DD1
:1058E0000846019101F009FD0F4AE36A1068019929
:1058F00083424FF0140088BF13600C4A00FB032062
:1059000001F0D8FC0A4BE26A1B68DB6A9A4289BF45
:1059100001200020074B186002B010BD0648EFE7D9
:10592000C6800008682A0020702A00200026002077
:10593000F4250020EC2A0020A82A0020034B1B6835
:105940000360034B1B684360704700BFA02A002020
:10595000E82A002070B50D46044620B940F6F8410B
:10596000144801F072FA25B940F6F941114801F0E6
:105970006CFA00F03BFB104B19682B685A1C17D0CF
:105980000E48266800686268864208D08A4206D8B7
:10599000002301242B6000F037FB204670BD881ADD
:1059A0008342F5D95B1A134420462B60FFF7C6FFEC
:1059B0000024F0E7C6800008E82A0020A02A002082
:1059C0000122014B1A607047EC2A0020012906DCF5
:1059D00008B9044B1868143150F8210070470020B2
:1059E000704700BFF4250020014B1868704700BFC6
:1059F000F4250020054B1B6833B1054B1B68002BB9
:105A00000CBF02200020704701207047BC2A0020F4
:105A1000682A002073B5044648B31C4DC36A2A683F
:105A2000D26A934229D28269194E002AA1BF2A68FC
:105A3000D26AC2F138028261142202FB0363426916
:105A40009A4216D1011D0846019101F056FC2B68BF
:105A5000104ADB6A1068019983424FF01400E36238
:105A600000FB036088BF136001F024FC012002B03A
:105A700070BD2B68DB6AC362F8E72B68806CDC6A58
:105A8000A0422CBF00200120F1E700BFF425002038
:105A900000260020702A002013B5044610B900200B
:105AA00002B010BD184B1B68834204D041F24A017A
:105AB000164801F0CAF9E36C23B941F24B011348CF
:105AC00001F0C3F9E36CE16AA26C013B9142E3642B
:105AD000E5D0002BE3D1211D0846019101F00DFC1A
