S015000048656C6C6F426C696E6B52544F532E733337B3
S3150800000000100020AD0600082161000821610008E3
S3150800001021610008216100082161000821610008AA
S3150800002021610008216100082161000851020008C9
S315080000302161000821610008E10100080564000843
S31508000040216100082161000821610008216100087A
S31508000050216100082161000821610008216100086A
S3150800006021610008950600086F60000821610008F4
S31508000070216100082161000821610008216100084A
S31508000080216100082161000821610008216100083A
S3150800009021610008790F0008216100082161000824
S315080000A021610008991000087510000821610008F0
S315080000B0216100082161000821610008216100080A
S315080000C021610008216100082161000821610008FA
S315080000D021610008216100082161000821610008EA
S315080000E021610008216100082161000821610008DA
S315080000F021610008216100082161000821610008CA
S3150800010021610008216100082161000821610008B9
S3150800011021610008216100082161000821610008A9
S315080001202161000821610008216100082161000899
S315080001302161000821610008216100082161000889
S31508000140216100082161000821610008AD630008EB
S315080001502161000821610008216100082161000869
S315080001602161000821610008216100082161000859
S315080001700B4A1168086806C881F30B88022181F3C7
S315080001801488203080F30988BFF36F8F4FF0000082
S3150800019080F31188104700BFAFF30080AFF30080EB
S315080001A0A41E00200000000000000000000000005F
S315080001B007480068006880F3088862B661B6BFF32E
S315080001C04F8FBFF36F8F02DF00BF00BFAFF3008012
S315080001D008ED00E00000000000000000000000003C
S315080001E0EFF309801EF0100F08BF20ED108AEFF319
S315080001F00B82734620E9FC0F114A116808604FF01C
S31508000200300080F31188BFF34F8FBFF36F8F04F070
S3150800021039FC4FF0000080F31188094A1168086814
S31508000220B0E8FC0F13F0100F08BFB0EC108A82F389
S315080002300B8880F309881847AFF30080AFF3008076
S31508000240A41E0020000000000000000000000000BE
S315080002501EF0040F0CBFEFF30880EFF30980044982
S31508000260084700BFAFF30080AFF30080AFF300800C
S315080002702153000810B5054C237833B9044B13B144
S31508000280044800E000BF0123237010BD941000202D
S31508000290000000002073000808B5034B1BB1034992
S315080002A0034800E000BF08BD0000000098100020C9
S315080002B020730008A3F5803A704700BF174B002B40
S315080002C008BF134B9D46FFF7F5FF00218B460F46E7
S315080002D01348144A121A06F052FA0E4B002B00D095
S315080002E098470D4B002B00D09847002000210400AA
S315080002F00D000D48002802D00C4800E000BF05F0AC
S3150800030025FB2000290005F090FE05F00BFB00BF39
S315080003100000080000000000000000000010002097
S31508000320941000200849002000000000000000008A
S31508000330F8B50D4F0D4E0E4C4FF47A7004F084FB51
S31508000340384605F01AFF32460A49204605F022FBD0
S31508000350094B20461D6806F01AFA21460246284629
S3150800036005F0ADFFE8E700BFCC6B0008766B000828
S315080003705A240020106A0008001000201FB50B4BF5
S31508000380A02202930A4B0B49019301230A480093C2
S31508000390002304F0C9F930B98821084805B05DF88A
S315080003A004EB05F0C6BE05B05DF804FB301300206B
S315080003B0B0100020256A000831030008306A0008DA
S315080003C0F7B5334C334D3449204605F0E3FA204659
S315080003D02E6806F0DCF902463046304E214605F016
S315080003E06EFF3146204605F0D5FA20462F6806F0FE
S315080003F0CEF921460246384605F061FF28492046CF
S3150800040005F0C8FA20462F6806F0C1F921460246CB
S31508000410384605F054FF2349204605F0BBFA204626
S315080004202F6806F0B4F921460246384605F047FF1C
S315080004301D4B1E4900931E4B20461A4605F0AAFA84
S3150800044020462F6806F0A3F921460246384605F0ED
S3150800045036FF184A1849204605F09CFA20462F68A8
S3150800046006F095F921460246384605F028FF31463A
S31508000470204605F08FFA20462D6806F088F92146B1
S315080004800246284603B0BDE8F04005F018BF00BF95
S315080004905A24002000100020396A0008406A000823
S315080004A0886A0008D06A0008446B0008186B0008C0
S315080004B04F6B0008466B0008516B000810B5274CB7
S315080004C001F022FB01F0E6FC236F23F0070343F05B
S315080004D00303236705F0B5FE214B00209B6ADB0169
S315080004E05EBF4FF480321F4B9A62D4F8203123F056
S315080004F0070343F00203C4F82031D4F8283123F067
S31508000500070343F00203C4F82831D4F8403123F036
S31508000510030343F00103C4F84031D4F8603123F0F3
S31508000520030343F00103C4F86031D4F8403223F0E2
S31508000530030343F00103C4F84032D4F8003223F031
S31508000540070343F00103C4F80032D4F8083223F055
S31508000550070343F00103C4F8083210BD00800050B9
S315080005600040005A0060005A07B501A801F0FEFFD6
S315080005709DF80530012B14D19DF804308BB94FF442
S315080005808012114B1149586E03F580535A664B6B0E
S3150800059023F0E05343F040634B63C3025CBF0C4B4C
S315080005A05A6602F053FA05F06FFD02F0E3F902F01D
S315080005B009FAFFF783FF02F0F3F905F05CFD03B0D3
S315080005C05DF804EB03F05EB9008000500040005A65
S315080005D000A0005030B595B0204D0DAC0FCD0FC41E
S315080005E095E80700292384E807001D4A0021CDE97C
S315080005F002230523CDE904118DF8113006231022B4
S3150800060009A806918DF8133006F0B9F84FF4802141
S31508000610144B1548CDE9071309238DF824300A230E
S315080006208DF82530114B0DAA0A9320230B9301232D
S315080006308DF831300E4B07A9009302AB02F008FE85
S31508000640044618B188210B4805F073FD00214FF4C4
S31508000650E13005F056FD204615B030BDB06B0008F8
S3150800066000C0055024C00550D81400204228002098
S3150800067090130020816B000808B5FFF7ABFF28B17F
S31508000680BDE80840B821024805F053BD08BD00BFC3
S31508000690816B0008014802F09DBE00BFD8140020F7
S315080006A0014805F067BD00BFCC6B000808B500F02F
S315080006B02DF8124B12498B4212D30020114B1249C6
S315080006C08B4218D3FFF7FAFD186850F8224058688D
S315080006D040F82240013298688242F5D30C33EAE7A3
S315080006E00022F8E71C6844F8220001325C68A2423E
S315080006F0F8D30833E4E70022F8E700BF28730008B8
S3150800070034730008347300083473000810B54FF4C6
S3150800071080414FF0FF30114B114A9A60D3F8882078
S3150800072042F47002C3F888200E4A91660E4901F514
S31508000730005210660D4850660220C3F8D000BFF379
S315080007404F8FBFF36F8F01244FF440330848C0F82A
S315080007508041D36004600B6110BD00BF00ED00E06E
S31508000760000000080090005000800044F7FF3700A2
S3150800077000E100E0014B1868704700BF0810002030
S31508000780084B1B6F03F00703022B04D0032B05D07D
S31508000790012B05D0FEE7044B18687047034BFBE7AF
S315080007A00348704700800050081000200C100020F5
S315080007B0002D310108B5FFF7E3FF054B1B6FC3F3A7
S315080007C003330133B0FBF3F0024B186008BD00BFDA
S315080007D000800050041000200048704700B4C4048C
S315080007E0014B1868704700BF0C100020054B1860B5
S315080007F0054B1B6F03F00703032B01D1FFF7DABF85
S31508000800704700BF0C100020008000500048704759
S31508000810002D31014FF0B4439868C0F304400C280A
S3150800082022D8DFE800F00921212121210717192103
S315080008301B1D1F000F4870479B6803F04073B3F1F8
S31508000840807F13D0B3F1007F12D00B4A002B08BF6C
S315080008501046704709487047094870470948704765
S31508000860094870470948704700207047084870478C
S3150800087008487047405DC60000093D000024F400A2
S31508000880C0EA210180BA8C010048E801005A6202D8
S3150800089080841E0040420F00014B1868704700BF55
S315080008A01010002005490A681318054883428CBFB2
S315080008B04FF0FF320B601046704700BF141000203F
S315080008C00000042010B501213A2000F0D7FE0123CC
S315080008D004220321002001F0ADFC002005F0E9FC0C
S315080008E00122314B3149C3F844244FF40022A3F5C1
S315080008F050335A66D1F8FC202C4C12F080721EBF79
S31508000900D1F8FC3023F08073C1F8FC302849D1F8BF
S31508000910803023F0030343F00203C1F880302AB184
S31508000920D4F8FC3043F08073C4F8FC304FF46070A0
S3150800093000F0D0FED4F8F0301E4A43F00103C4F8A4
S31508000940F030D4F8FC3000F5D52043F08073C4F8B5
S31508000950FC30194B00F2FC401A60184B0222B0FB1F
S31508000960F3F0174B01381861C3F8F0204FF4807282
S31508000970C3F804234FF06043124A0020C3F8B02F8F
S31508000980114AC3F8802ED3F8002E42F48072C3F8B9
S31508000990002EFF2283F82020D3F8002E22F480723E
S315080009A0C3F8002E10BD00BF00D0035000ED00E0D4
S315080009B000800050FF030040001000E0F8590D00C9
S315080009C0000004E055CEACC50900010030B54FF073
S315080009D06043D3F8802ED20715D501240B4D8440E9
S315080009E0D5F8FC2042F08072C5F8FC20D3F8002E1A
S315080009F02243C3F8002E53F82020002AF0D003F82B
S31508000A002010002030BD1120FCE700BF00ED00E0FB
S31508000A1038B50D460446B0B1012817D0022817D0BC
S31508000A20032803D10F23EB40DB0704D440F2FE3141
S31508000A30084805F07EFB302001214443064B01FAA5
S31508000A4005F51D5138BD40F2FF13ECE71F23EAE711
S31508000A50FF23E8E7E46B000840E0035038B50D468D
S31508000A600446B0B1012817D0022817D0032803D1AD
S31508000A700F23EB40DB0704D440F22D41084805F06C
S31508000A8058FB302001214443064B01FA05F51D5158
S31508000A9038BD40F2FF13ECE71F23EAE7FF23E8E738
S31508000AA0E46B000840D0035038B504784578ACB1FB
S31508000AB0012C16D0022C16D0032C03D10F23EB40A1
S31508000AC0DB0704D44FF48961084805F032FB30236C
S31508000AD001225C43064BAA401A5138BD40F2FF1367
S31508000AE0EDE71F23EBE7FF23E9E700BFE46B000808
S31508000AF040F0035070B5057804464678E5B1012DF7
S31508000B001DD0022D1DD0032D03D10F22F240D3078D
S31508000B1004D44FF483610C4805F00BFB10233022F4
S31508000B2012FB0535094BEB58F34003F00100A37897
S31508000B300BB980F0010070BD40F2FF12E6E71F22F4
S31508000B40E4E7FF22E2E700BFE46B000830C0035089
S31508000B502DE9F04F85B09A46554B06461B780F4649
S31508000B601546DDF83C909DF844B0DDF85080002B22
S31508000B7000F08D80072A00F28C800E9B002B00F077
S31508000B808880B9F1000F00F08480129BB3F5006FDE
S31508000B907FDC012802D1109B002B7AD0454B03EB52
S31508000BA005131B7B002B76D0434C10220021684688
S31508000BB005F0E5FD04EB45141022002F59D13946FE
S31508000BC0204605F0DCFD43F210036380BBF1000FFD
S31508000BD003D1E37843F00303E370374A0E9B02EB35
S31508000BE0451CCCE90193129B6901013BC3F30A003A
S31508000BF09DF84C30012E03F003034FEA836343EA62
S31508000C00001E53582D48CDF800A000EA03004EEA0E
S31508000C100003535041D113230CF1100ECCF80C30BD
S31508000C209CE80F008EE80F006FF00301DCF81C202B
S31508000C30109B61F39F02012FCCF81C20CCF81430CE
S31508000C4003D1CCF81890CCF804300027194A2901AA
S31508000C5002EB051342F80180159A28465A60694640
S31508000C6022469F605E7301F0C1FB384605B0BDE8B9
S31508000C70F08F0021204605F082FD4FF4447363800F
S31508000C80BBF1000FA9D1E37843F03003A4E70C4881
S31508000C90ECE70C48EAE70C48E8E7B8F1000FD4D1CE
S31508000CA09CF8023068F304138CF80230CDE700BFD5
S31508000CB062280020F8140020781500200F80FFF322
S31508000CC0028000F0018000F0078000F038B5124B72
S31508000CD005461B78DBB1E0B105F0CFFA0F4A0023D1
S31508000CE01146147B54B92B6001251A0101EB031335
S31508000CF01D738C5005F0C7FA204638BD0133082B02
S31508000D0002F11002EDD105F0BEFA0548F5E70548EF
S31508000D10F3E70548F1E700BF62280020F814002031
S31508000D20048000F0028000F0018000F013B505F0A1
S31508000D30A4FA00230B4A147B7CB90133082B02F171
S31508000D401002F8D1019001F0C7FA074B01981C7000
S31508000D5005F099FA204602B010BD05F094FA03484A
S31508000D60F9E700BFF814002062280020058000F08B
S31508000D7010B50D4B04461B7893B1072812D805F019
S31508000D807CFA0A4B03EB04131A7B2AB100241C7362
S31508000D9005F079FA204610BD05F075FA0448FAE719
S31508000DA00448F8E70448F6E762280020F81400200B
S31508000DB0068000F0028000F0018000F013B5154BA4
S31508000DC01868002301908DF8043005F056FA124B86
S31508000DD01C7824B105F057FA104802B010BD01225C
S31508000DE01A7005F050FA0E4B01A81C731C7783F88D
S31508000DF02C4083F83C4083F84C4083F85C4083F8E9
S31508000E006C4083F87C4008238DF8073001F0A4FA7B
S31508000E102046E2E72D6C000862280020038000F0D7
S31508000E20F814002008B50A4A12785AB107280BD8D0
S31508000E30084A02EB00131B7B43B1002101F06AFA52
S31508000E40002008BD0448FCE70448FAE70448F8E728
S31508000E5062280020F8140020028000F0018000F0CB
S31508000E60078000F008B50A4A12785AB107280BD845
S31508000E70084A02EB00131B7B43B1012101F04AFA31
S31508000E80002008BD0448FCE70448FAE70448F8E7E8
S31508000E9062280020F8140020028000F0018000F08B
S31508000EA0078000F008B50A4A127852B107280AD80E
S31508000EB0084A02EB00131B7B3BB101F019FB00202B
S31508000EC008BD0548FCE70548FAE70548F8E700BF06
S31508000ED062280020F8140020028000F0018000F04B
S31508000EE0078000F00D4B1B7893B1072812D889B1FB
S31508000EF00B4B03EB00131B7B73B10A4B1A6D0123D3
S31508000F0003FA00F010401ABF00200B7008707047F3
S31508000F10054870470548704705487047622800200D
S31508000F20F814002000000450028000F0018000F050
S31508000F30078000F010B50B4A0C46127862B10728F4
S31508000F400CD859B1084A02EB00131B7B43B101F0D8
S31508000F50EBFA2070002010BD0448FCE70448FAE7C5
S31508000F600448F8E762280020F8140020028000F000
S31508000F70018000F0078000F02DE9F0471F4B204C58
S31508000F801F6D5A6D174010D54FF000411D4A116567
S31508000F90D868C0F304200301E35804EB00125BB3DE
S31508000FA0BDE8F04700215268184701260025DFF8FA
S31508000FB05480DFF85490374217D02368C8F8506039
S31508000FC09BB1A168284601316268A1609847637B96
S31508000FD0012B0AD148B909EB45131A7B60F3410284
S31508000FE01A731A7F60F341021A770135082D4FEA02
S31508000FF0460604F11004DED1BDE8F087000004506F
S31508001000F8140020002004507815002070B501253A
S3150800101004460B4E04B970BD94FAA4F0B0FA80F0F9
S3150800102005FA00F306EB001224EA03045368002BC2
S31508001030F0D0117B11B191689847EBE79847E9E73B
S315080010407816002008B5192000F046FF28B14FF0A1
S315080010500072074BC3F880211A601A2000F03CFF83
S3150800106028B14FF08062024BC3F880211A6008BD90
S3150800107000E100E0074BD3F82404D3F8202403F555
S315080010800053104000F0553020F05020C3F82004DB
S31508001090FFF7BCBF00C00350074BD3F82404D3F8AE
S315080010A0202403F50053104000F0AA3020F0A020B9
S315080010B0C3F82004FFF7AABF00C00350044BD3F8B7
S315080010C08420D206FBD4D3F88400C0F3811070477D
S315080010D00040005038B5124B0546D3F880300C4610
S315080010E003F00303022B0BD0032B0DD0012B0FD1DA
S315080010F0FFF746FB0E2305B1286004B1236038BD0F
S31508001100FFF788FB0723F6E7FFF734FB0623F2E72A
S31508001110044841F2B21105F00CF800231846EAE734
S3150800112000800050316C000838B51A4B0546D3F8D4
S3150800113020010C4600F00700062821D8DFE800F059
S3150800114028040C1410181C00FFF714FB052305B11E
S31508001150286004B1236038BDFFF742FB0323F6E796
S31508001160FFF758FB0723F2E7FFF750FB0223EEE7EA
S31508001170FFF700FB0623EAE7FFF732FB0423E6E75F
S31508001180054841F22F2104F0D4FF00231846DEE774
S315080011900123DCE700800050316C000838B5194B94
S315080011A00546D3F828310C4603F00703013B052B07
S315080011B020D8DFE803F003131B0F0B17FFF7DAFA43
S315080011C0052305B1286004B1236038BDFFF7D2FABC
S315080011D00623F6E7FFF71EFB0723F2E7FFF700FBF8
S315080011E00323EEE7FFF7FCFA0423EAE7FFF70EFB13
S315080011F00223E6E7044841F2370104F09AFF002388
S315080012001846DEE700800050316C0008F7B5002765
S31508001210144B0197D3F88041064604F00304022CC8
S315080012200D4614D0032C0DD0012C14D1394601A833
S31508001230FFF77AFF10240EB1019B336005B12C60CD
S3150800124003B0F0BDFFF7E6FA07240190F3E7FFF7CE
S31508001250DDFA0190EFE741F28431034804F069FFB3
S315080012603C46E8E700800050316C000837B500239B
S315080012700193194B0546D3F820320C4603F00703B1
S31508001280042B1FD8DFE803F025030F1419000021EB
S3150800129001A8FFF783FF12230DB1019A2A6004B152
S315080012A0236003B030BDFFF7B5FA07230190F3E7D3
S315080012B004F039FF0A230190EEE7FFF7EDFA092358
S315080012C00190E9E740F6F671044804F032FF00237E
S315080012D0E2E70123E0E700BF00800050316C000818
S315080012E038B5104B0546D3F840310C4603F00303D6
S315080012F0022B0BD0032B0DD0012B0FD104F013FFBB
S315080013000A2305B1286004B1236038BDFFF7C4FA83
S315080013100923F6E704F00AFF0C23F2E7012300206D
S31508001320EFE700BF0080005037B500230193184B44
S315080013300546D3F860320C4603F00703013B032B3E
S315080013401FD8DFE803F0020E1914002101A8FFF7E1
S31508001350EBFE10230DB1019A2A6004B1236003B095
S3150800136030BD002101A8FFF7BBFF1123F2E7FFF705
S3150800137051FA07230190EDE7FFF748FA0223019097
S31508001380E8E741F29B01034804F0D3FE0023E1E7B6
S3150800139000800050316C000837B500230193184BC4
S315080013A00546D3F894320C4603F00703013B032B9A
S315080013B01FD8DFE803F0020E1914002101A8FFF771
S315080013C0B3FE10230DB1019A2A6004B1236003B05D
S315080013D030BD002101A8FFF783FF1123F2E7FFF7CD
S315080013E019FA07230190EDE7FFF710FA0223019097
S315080013F0E8E741F2CE01034804F09BFE0023E1E74B
S3150800140000800050316C000873B500240F4B01941E
S31508001410D3F87032064603F00303012B0D4607D0B6
S31508001420022B11D041F2F901094804F082FE04E0CA
S31508001430214601A8FFF754FF11240EB1019B336022
S3150800144005B12C6002B070BD1524F6E70080005087
S31508001450316C000838B5164B0546D3F800020C4621
S3150800146000F00700042819D8DFE800F020030B0F66
S31508001470130004F058FE0A2305B1286004B123605E
S3150800148038BDFFF709FA0923F6E704F04FFE0C23E7
S31508001490F2E7FFF78FF90F23800AEDE7054841F2D7
S315080014A0424104F046FE00231846E5E70123E3E738
S315080014B000800050316C000838B5164B0546D3F845
S315080014C008020C4600F00700042819D8DFE800F0E7
S315080014D020030B0F130004F026FE0A2305B128602B
S315080014E004B1236038BDFFF7D7F90923F6E704F0FE
S315080014F01DFE0C23F2E7FFF75DF90F23800AEDE7DF
S31508001500054841F27A4104F014FE00231846E5E73F
S315080015100123E3E700800050316C000838B5104B12
S315080015200546D3F840320C4603F00303022B0BD0D2
S31508001530032B0DD0012B0FD104F0F5FD0A2305B1BD
S31508001540286004B1236038BDFFF7A6F90923F6E73A
S3150800155004F0ECFD0C23F2E701230020EFE700BFBF
S315080015600080005038B5104B0546D3F860310C465C
S3150800157003F00303022B0BD0032B0DD0012B0FD145
S3150800158004F0D1FD0A2305B1286004B1236038BDF3
S31508001590FFF782F90923F6E704F0C8FD0C23F2E702
S315080015A001230020EFE700BF0080005010B5B0F51A
S315080015B0207F2ED009D8B0F5007F24D003D868B193
S315080015C0B0F5C07F0AD000241BE0B0F5607FFAD1E1
S315080015D0124BD3F88040C4F3011412E00F4B1C6F72
S315080015E0230B13F00E0FC4F303340AD0032C08D0D0
S315080015F0072C06D00F2C04D04FF41E71084804F0AF
S3150800160098FD601C10BD054BD3F89040C4F30464E4
S31508001610F7E7024B1C6FC4F38024F2E70080005002
S31508001620316C000838B54FF48032104B04469A6680
S3150800163000200D46FFF7BAFF41F671320C4B6043A6
S31508001640DC69DA635A6804F4803422F440125DB91E
S31508001650084988428CBF4FF4801000201043586018
S315080016600CB10022DA6338BD0349F2E70090005056
S3150800167000000350005A6202002D310170B544097A
S3150800168005460E460ED140F21F310F4804F051FDB3
S3150800169005F01F05AEB104F58053012000FA05F5E3
S315080016A01D6070BD012C08D0022C08D040F22931EB
S315080016B0054804F03EFD0024EAE7044CE8E7044C3C
S315080016C0E6E704F50053E8E7316C0008648000504B
S315080016D06880005030B585B0002180280446CDE9E1
S315080016E0001100F0938029D8002800F09580A0F119
S315080016F020043D2C35D83D2C33D8DFE804F08D99ED
S315080017008D99A8A8A8A8A899B23FC8633F9999999E
S3150800171032323232323232329999996BD299323226
S315080017203232323232323232323232A88D8D8DCD69
S315080017303F3FD77A50AD323232323282B0F5B06F8F
S3150800174000F08F8030D8B0F5207F71D00FD8B0F573
S31508001750C07F61D0B0F5007F61D0B0F5807F00F022
S31508001760858040F27C41544804F0E3FC51E0B0F532
S31508001770607F67D00DD8B0F5407FF2D1FFF71AF831
S3150800178004464FF42070FFF711FFB4FBF0F0400851
S315080017903EE0B0F5806F5AD0B0F5A06FE1D10021D8
S315080017A06846FFF763FD34E0B0F5106F74D016D8BD
S315080017B0B0F5E06F75D00AD8B0F5C06F67D0B0F550
S315080017C0D06FCED100216846FFF744FE21E0B0F580
S315080017D0F06FC6D100216846FFF7C4FE19E0B0F5E0
S315080017E0406F39D00AD8B0F5206F5FD0B0F5286FB2
S315080017F0B7D100216846FFF707FE0AE0B0F5486F43
S31508001800AFD100216846FFF7C7FD02E0FEF7B8FF33
S315080018100090009805B030BDFEF7CCFFF8E7FEF75C
S31508001820AFFF05462046FFF7C1FEB5FBF0F0EFE730
S31508001830FEF7C0FF04464FF42070FFF7B7FEB4FB6F
S31508001840F0F0E5E701A8FFF745FC019DEAE700216E
S315080018506846FFF769FCDCE700216846FFF79EFC4F
S31508001860D7E700216846FFF7D1FCD2E74FF0E0231F
S3150800187002911B695B0705D5FEF79CFF0290029B48
S315080018800093C6E703A902A8FFF72AFDF7E7002198
S315080018906846FFF725FDBCE700216846FFF70CFE02
S315080018A0B7E700216846FFF739FEB2E70021684628
S315080018B0FFF73AFDADE700BF316C000808B5802098
S315080018C0FFF708FF034B98429EBF4FF48032024B46
S315080018D01A6708BD005A620200A000501FB500230F
S315080018E0B0F5807F019300F0C38064D85D2855D891
S315080018F04C2806D82D2847D823282BD840F25D51E6
S31508001900A5E04D381028F9D801A353F820F000BFF8
S31508001910671A0008FD180008FD180008FD180008D9
S31508001920191A0008FD180008FD180008ED1A000825
S31508001930371A0008DD190008E31A0008FD18000820
S31508001940FD180008FD180008FD180008FD18000815
S31508001950F71A000824380928D0D801A353F820F02C
S31508001960671A0008671A0008671A0008671A000845
S31508001970671A0008FD180008571A0008FD1800081D
S31508001980F91900089D1A00083D2800F082803E28B3
S31508001990B4D1002001A9FFF7C1FD60E08028ADD1D0
S315080019A0574B1B6F03F00703013B032B4DD8DFE8AA
S315080019B003F04A47878FB0F5F06F6AD021D8B0F5A3
S315080019C0B06F48D00FD8B0F5607F00F0858095D30A
S315080019D0B0F5806F47D0B0F5A06F8FD1002001A970
S315080019E0FFF744FC3BE0B0F5D06F57D0B0F5E06F99
S315080019F0CFD0B0F5C06F81D1002001A9FFF770FCE8
S31508001A002DE0B0F5206F71D00BD8B0F5086F4AD02D
S31508001A10B0F5106F7FF472AF002001A9FFF74CFDF7
S31508001A201DE0B0F5406F5CD0B0F5486F63D0B0F5F7
S31508001A30286F7FF463AF002001A9FFF7E5FC0EE0ED
S31508001A40052301930BE00223FBE740F2AE412D4844
S31508001A5004F06FFB03E0002001A9FFF7D7FB01980C
S31508001A6005B05DF804FB002001A9FFF75DFBF6E76A
S31508001A7002934FF0E0231B695B0705D5FEF79AFE34
S31508001A800D230393039BDCE703A902A8FFF728FCB1
S31508001A90F8E7002001A9FFF765FDE0E7002001A9A6
S31508001AA0FFF7D8FCDBE7164BD3F8003103F0030346
S31508001AB0022B07D0032B09D0012B0BD1FEF790FE82
S31508001AC00323BEE7FEF7E8FE0923BAE704F029FB7D
S31508001AD00823B6E70123B4E7184601A9FFF7FAFA7F
S31508001AE0BDE7002001A9FFF759FBB8E7002001A9C7
S31508001AF0FFF71AFCB3E7002001A9FFF74DFCAEE794
S31508001B0000800050316C00084FF48012034B5A666F
S31508001B104FF48032024B9A62704700BF0090005023
S31508001B200050005A38B5036804460F2B04D940F60E
S31508001B3049317E4804F0FDFA63680F2B04D940F654
S31508001B404C317A4804F0F5FAA3680F2B04D940F60D
S31508001B504F31764804F0EDFA237B0F2B04D940F673
S31508001B605231724804F0E5FA637B0F2B04D940F62C
S31508001B7055316E4804F0DDFAA37B3F2B04D940F6B5
S31508001B8058316A4804F0D5FAE37B3F2B04D940F66E
S31508001B905B31664804F0CDFA2369032B04D940F675
S31508001BA05E31624804F0C5FA6369032B04D940F62E
S31508001BB061315E4804F0BDFAE369032B04D940F6A7
S31508001BC064315A4804F0B5FA8020FFF787FE0328E7
S31508001BD000F08A804FF48012554B4FF0A0615A6688
S31508001BE045F60E03534AC2F88030534B99624FF4B8
S31508001BF0803103F580539962936DD903FCD4916DB6
S31508001C0011F08041FBD1D4E900031B0543EA0063C8
S31508001C10E07B0343207B43EA0043607B43EA0033CF
S31508001C20A07B43EA801313619069D4E904531B0629
S31508001C3043EA856300F000400343A07EE57E034344
S31508001C40207E43EA0043607E43EA00239361E0690D
S31508001C50136A00280CBF0022082223F00F0343EA68
S31508001C60000343EA850343EA0203324A334D13620B
S31508001C703BD194F82430916A94F82000DB000D409B
S31508001C8043EA401394F821102B4343EA011343F423
S31508001C90803393622A4B916D33EA0101FBD14FF0F1
S31508001CA08071254881621369A56823F4700343EAA5
S31508001CB0055313614FF00043836194F822300BB942
S31508001CC0204B996294F823303BB94FF480321D4B70
S31508001CD09A62184A936D5B00FCD494F825301BB1C0
S31508001CE0144B194AC3F8802038BD022808D111615F
S31508001CF0164891614FF408524FF47F4104F07DFA7B
S31508001D000C4994F822308A6A94F820001B0615407C
S31508001D1043EA401394F824202B4343EAC20394F879
S31508001D20232043EA02438B62D7E700BF316C0008E1
S31508001D30009000500040005A0050005AC7FFFEFEAF
S31508001D40030001000060005AF1A7FFFF3440005A63
S31508001D50014B93F90000704789100020014B188049
S31508001D60704700BF8410002038B5B0F5207F77D0C3
S31508001D700ED8B0F5007F61D003D890B3B0F5C07F18
S31508001D802FD040F20231BDE838403D4804F0D1B9C1
S31508001D90B0F5607FF5D13B4A4C1ED2F8FC5015F0E1
S31508001DA080751EBFD2F8FC3023F08073C2F8FC3071
S31508001DB0032C04D940F2E321314804F0BAF9324B36
S31508001DC0D3F8801021F0300141EA0411C3F88010DD
S31508001DD035B12C4AD2F8FC3043F08073C2F8FC3097
S31508001DE038BD102901F1FF3404D8284B23FA01F134
S31508001DF0CB0704D440F2B921214804F09AF904F03B
S31508001E000DFA04F019FA4FF48031214B1E4A19676E
S31508001E10136F23F4704343EA04331367FEF7CAFCCF
S31508001E200446FFF74BF9C0F10201204604F0FEF91B
S31508001E3000F040F8BDE83840FFF740BD4C1E1F2CA7
S31508001E4004D940F2F6210E4804F073F90E4BD3F884
S31508001E50901021F0F85141EA0461C3F89010BFE7E9
S31508001E604C1E012C04D94FF43F71054804F061F962
S31508001E70054B196F21F4806141EA84211967AFE7A0
S31508001E80316C000800ED00E00080005016010100EA
S31508001E900090005008B50121022000F049F804F02E
S31508001EA0BDF904F0C9F94FF48032014B1A6708BD31
S31508001EB00090005008B54FF4C070FFF70BFCBDE862
S31508001EC00840044988428CBF022101214FF4207042
S31508001ED0FFF74ABF80F0FA0238B5C5B24B2D044663
S31508001EE004D940F21631074804F023F9064B640971
S31508001EF053F8240005F01F05E840C04300F0010030
S31508001F0038BD00BF786C000800E100E0024A536B58
S31508001F100342FCD1704700BF00400950034A0179CB
S31508001F20D36E23F030030B43D3667047004000504E
S31508001F302DE9F0410446264BD3F88420D006FBD47D
S31508001F40D3F88430C3F381139C423ED0FEF718FCC5
S31508001F50012C05460BD11F4B984204D940F26171FA
S31508001F601D4804F0E6F80121284604F05FF904F05C
S31508001F707DF94FF00072194B07465A66204604F061
S31508001F8085F94FF48063124E621E9340DFF848804D
S31508001F903367736E9A0103D4D6F884309B060AD544
S31508001FA0384604F067F9022C0FD12846BDE8F041FF
S31508001FB0002104F03BB9D6F884309906E9D540F2F9
S31508001FC06F71404604F0B5F8E3E7BDE8F08100BF5D
S31508001FD000400050005A6202C06C000800600050C1
S31508001FE007B518B90191FEF7CBFB0199064B1B788B
S31508001FF043B1064B984205D8012003B05DF804EBBF
S31508002000FFF796BF0220F8E763280020005A62020D
S3150800201038B54FF00042244B244C5A664AF6CD3365
S31508002020656C014605F00105236430BB0120FFF706
S315080020306DFF6368DB0708D4002415B11B4B1C4AE7
S315080020401A6404F024F9204638BD1A4B586008462D
S31508002050194B226BD20705D4984201D10724ECE725
S315080020600130F6E79842E7D1F8E70132236B13F01F
S31508002070080305D08A42F8D1F0E700220E49F5E7B1
S315080020808A42EBD020210B4A91620121A2F58052A7
S3150800209051600649084A886A800603D49342DDD00F
S315080020A00133F8E79342DEE70090005000400950FC
S315080020B03254FFFF0060095040420F0038B54FF018
S315080020C00042164B01465A664AF6CD33144C154A59
S315080020D0656C236443780B205B0043F00103D363EC
S315080020E0FFF714FF63688A7823F4F87343EA021348
S315080020F06360CA784B7943EA0223A3600A798B792D
S3150800210043EA022323610878FFF782FFEB0744BFFF
S31508002110054B236404F0BBF8012038BD009000503D
S3150800212000400950004000503254FFFF70B50F2898
S31508002130044604D940F6FC51134803F0FAFF4FF061
S315080021400042124B12495D6E03F580535A664AF6F1
S31508002150CD334E6C80200B64FFF7D8FE0B6A23F054
S315080021600F030F2C94BF234343F00F030B62F307AF
S3150800217044BF084B0B64002DA2BF4FF00042064B2C
S315080021805A6604F084F870BDC06C000800800050E0
S31508002190004009503254FFFF00A0005038B50D46E4
S315080021A00446B0B1012817D0022817D0032803D156
S315080021B00F23EB40DB0704D440F22D41084803F017
S315080021C0B8FF302001214443064B01FA05F51D519D
S315080021D038BD40F2FF13ECE71F23EAE7FF23E8E7E1
S315080021E0E46B000840D0035038B50D460446B0B13C
S315080021F0012817D0022817D0032803D10F23EB4054
S31508002200DB0704D440F2FE31084803F092FF302081
S3150800221001214443064B01FA05F51D5138BD40F22C
S31508002220FF13ECE71F23EAE7FF23E8E7E46B000860
S3150800223040E003502DE9F0410D46174698460446FE
S31508002240002835D0012836D0022836D0032803D1F5
S315080022500F23EB40DB0704D44FF4B0711C4803F09E
S3150800226068FF37B129462046B8F1000F27D0FFF797
S3150800227095FF0F21072D04EB440688BFA5F1080337
S315080022804FEA0616134895BFAB009B0004360C367A
S3150800229007FA03F29940304403F0FAFFB7B9294622
S315080022A02046B8F1000F0DD0BDE8F041FFF776BF24
S315080022B040F2FF13CDE71F23CBE7FF23C9E7FFF75C
S315080022C093FFD6E7BDE8F041FFF78EBFBDE8F08182
S315080022D0076D000830C0035010B54FF400120B4BC1
S315080022E0C3F88020BFF34F8FBFF36F8F0024FF2200
S315080022F0074B21465C6520209A625C60FFF7BEF9B1
S315080023002146BDE810402120FFF7B8B900E100E0FA
S315080023100000045038B5072804460D4603DD77212A
S31508002320094803F006FF1F2C03D99121074803F03B
S3150800233000FF074B074A0120002D18BF134600FA75
S3150800234004F41C6038BD00BF4F6D0008976D000887
S31508002350401004504020045010B5044618B9912185
S315080023601F4803F0E6FE23781B0613F0604F03D0E0
S3150800237092211B4803F0DDFEE3780F2B03D9A32136
S31508002380174803F0D6FE01212020FFF777F901212F
S315080023902120FFF773F90122124B5A6022781206A0
S315080023A09A606178A27842EA01429A61FF229A62AB
S315080023B000229A631A644FF000425A654FF0FF32C2
S315080023C04FF4001103F500531A65074AC2F8801145
S315080023D0E3781B01DBB282F81533116010BD00BF2C
S315080023E04F6D00080000045000E100E02DE9F041BF
S315080023F00126C3B2072805460C46904606FA03F698
S3150800240003DDEC21364803F094FE1CB9ED2134486F
S3150800241003F08FFE236823F47C1323F00F031BB10C
S31508002420F0212F4803F085FEA37A1B0413F47C0FD2
S3150800243004D040F209112A4803F07BFEE37A1B0513
S3150800244013F07E6F04D040F20B11254803F071FE9D
S31508002450237B5B0513F0FE5F04D040F20D11204884
S3150800246003F067FE30201F4F1F4B617B1E65AB00D4
S3150800247000FB0575226803F1A04303F588235A601B
S315080024802966E37AA27A1B0543EA0243227B43EADA
S31508002490425328F00302EB652A6703F0EEFE7B6DD4
S315080024A033437B65237A13B13B6C33433B64637ACE
S315080024B013B1BB6B3343BB632279A37943EA024367
S315080024C0094A93616179E37943EA014307498B61D4
S315080024D0044B56639E64BDE8F04103F0D4BE00BFCA
S315080024E04F6D0008000004500020045000100450EE
S315080024F010B50124C3B2072804FA03F404DD40F238
S315080025009711074803F015FE03F0B7FE054B5A6D01
S3150800251022EA04025A659C62BDE8104003F0B3BE85
S315080025204F6D00080000045010B50124C3B20728F7
S3150800253004FA03F404DD40F2B5110A4803F0F9FD84
S3150800254003F09BFE084BDA6A224209D15B6B34EA38
S3150800255003030CBF0124002403F095FE204610BD9A
S315080025600024F9E74F6D0008000004504FF480324C
S31508002570064B5A6603F5E6239B69C3F385128270F8
S3150800258003F03F021B0B4270037070470090005027
S315080025902DE9F04180460E461F46154622B94FF4EE
S315080025A0A171314803F0C5FD26B94FF42070FFF735
S315080025B091F80646402F2AD009D8A7B1202F1CD05B
S315080025C040F28911BDE8F041274803F0B2BD602FFB
S315080025D0F6D1B5EB960F04D940F28311224803F0E1
S315080025E0A8FD04241DE0B5EB161F04D94FF4BA71F3
S315080025F01D4803F09EFD102413E0B5EBD60F04D951
S3150800260040F27911184803F094FD082409E00624DD
S31508002610B6FBF4F3AB4204D24FF4BF71124803F091
S3150800262088FD6C43610801EB4616B6FBF4F40F4EC1
S31508002630203CB6EBC40F4FEAC40504D24FF4D07160
S31508002640094803F076FDD8F80830354023F06003D2
S31508002650C8F80830D8F808301F43C8F80870C8F812
S315080026601C50BDE8F08100BFDF6D0008F8FF7F0051
S3150800267038B50C4B044698420D4604D04FF43371D6
S31508002680094803F056FD012204F580535A60EB43CE
S31508002690934003F00A036361656115B904F50054B4
S315080026A0626038BD00C00550DF6D000810B5124BDA
S315080026B00446984204D040F24241104803F039FDDE
S315080026C0012104F58053596040F6AA6341F20502D8
S315080026D0636100230A48A360E365E26004F50052DB
S315080026E02361E361E36490640348A365844204BFFD
S315080026F023656365516010BD00C00550DF6D000895
S31508002700FFFF010070B5304B044698420D4604D0D1
S3150800271040F2FD212D4803F00CFD2046FFF7C6FFC9
S31508002720012304F580567360AB7C1BB1A36843F0A4
S315080027308043A360EB7C5BB1234B9C4202BF2A7D9E
S31508002740A3F51033C3F8C821E36D43F08003E365AE
S315080027502A8A6B7B20461343EA891343E3602B7B63
S31508002760D5E90112FFF714FF6B7D1BB1A36843F48B
S315080027708033A360AB7D1BB1A36843F40043A36019
S31508002780EB7D2A7E1B07120502F4E00203F0E04304
S315080027901343A3656B7E9A1E012A4FF0020209D8DD
S315080027A00B49032BC1F8202709D10423F3652B789D
S315080027B0636170BD0749012BC1F82027F4E704229D
S315080027C004F50053DA65F2E700C00550DF6D00082E
S315080027D000D0035000E00350054B9A689107FCD4DB
S315080027E05A689207F9D4DA69002AF6D1704700BF09
S315080027F000800A5008B5FFF7EFFF0122024B03F5E8
S3150800280080514A601A6108BD00800A50074B5A6811
S31508002810012A0AD15A68D20702D5DA69002AF9D1FB
S3150800282002221A610122024B5A60704700800A5040
S3150800283000A00A5010B5064CFFF7CEFF6368012BBF
S3150800284003D1FFF7E3FFFFF7C7FF0378E36010BD87
S3150800285000800A5018B17121104803F06ABC4A6812
S315080028600B7812B1127843EAC2034A78002A14BFD9
S315080028700222002213438A6812B1127843EA8213AD
S315080028808A78002A14BF042200221343CA6812B1A8
S31508002890127843EA4223024A93647047286E000876
S315080028A000800A5020B14FF48271034803F041BCFE
S315080028B0024B5964704700BF286E000800900A5002
S315080028C020B14FF4A071034803F033BC024B59649E
S315080028D0704700BF286E000800A00A5020B14FF4C8
S315080028E0BE71034803F025BC024B1964704700BF4C
S315080028F0286E000800A00A5008B530B1044840F216
S31508002900B71103F016FC002008BD024B186CFBE754
S31508002910286E000800800A5008B548B1084840F2F9
S31508002920662103F006FC002008BD064BD86CFBE7C1
S315080029300029FAD00129F7D1024B186DF4E700BF38
S31508002940286E000800800A5050B14FF441710748BC
S3150800295003F0EFBB064BDA647047054B1A65704700
S315080029600029F7D00129F8D0704700BF286E000863
S3150800297000800A5007B5094B18689A889B79009019
S315080029806846ADF804208DF80630FFF797FB03205C
S31508002990FFF7CCFB002003B05DF804FB7F6E000850
S315080029A013B50024064A6846536F43F0010353677C
S315080029B000948DF80440FFF7B1FA204602B010BD26
S315080029C00040005030B58BB06C461C4D0FCD0FC47F
S315080029D00FCD0FC495E8030084E80300184BD3F81D
S315080029E04C21120321D4D3F8504114F0FF0406D128
S315080029F04FF6FF72134B1B88934219D01C468DF86D
S31508002A001940FFF7A5F9204480F308008DF818004F
S31508002A100D48FDF7EBFE6846FFF784F84FF4FA70A9
S31508002A20FFF79CF900200BB030BD4FF0FF34DFE70D
S31508002A30631C14BF00248C24E1E700BF886E0008DD
S31508002A400080E00F0001E00FC017530210B56FF0C9
S31508002A50040250210A480B4C12F0800FD3B21BBF58
S31508002A6003F00F03043BA3181B1802F101020CBF65
S31508002A7083F8001319764C2AEED1002010BD00BF4A
S31508002A8000ED00E000E100E073B503F0EFFB104D48
S31508002A90104B2E781C6803F0EDFB03F0C0FC60B108
S31508002AA0FF2E0AD00020297801AA03F043FB18B1AB
S31508002AB08F21094803F03DFB019C2CB903F0D6FB96
S31508002AC0064B1C6803F0D6FB204602B070BD00BF5B
S31508002AD08A10002078180020B06E00087C180020A4
S31508002AE010B5044603F0C2FB024B1C6003F0C2FBA0
S31508002AF0002010BD7C18002038B53022037A044621
S31508002B00534303F1A04303F58023DD6ED0E9032385
S31508002B1013449D4201D8AA4204D94FF43E71054890
S31508002B2003F007FBD4E9030303449D4218BF284674
S31508002B3038BD00BF076F000830B587B01446054694
S31508002B401046FFF7D9FF6369024683423CBFD4E9C2
S31508002B5003315B181B1AABB11249284603910021B1
S31508002B60CDE90131012304940093D4E9001303F05D
S31508002B702AFB20B14FF434710B4803F0DAFA00202F
S31508002B8007B030BD0122627694F82D20002AF6D0CF
S31508002B9084F835301321E369204698472046636A4E
S31508002BA09847ECE7392B0008076F00087FB50446FD
S31508002BB00D4690F8376000F07FFE02282AD16DB3E3
S31508002BC046BBD4F88C3023B14FF4B2711B4803F0DE
S31508002BD0B0FA1B4B0021009304F190030293502393
S31508002BE06A4601200191039300F05AFFC4F88C004D
S31508002BF020B940F26D11114803F09BFA237E4BB1C0
S31508002C00D4F88C0000F0D8FF20B14FF4B9710B4806
S31508002C1003F08FFA84F8375004B070BD002EF9D04F
S31508002C20D4F88C0001F012F820B14FF4BC710348B7
S31508002C3003F07FFA0023C4F88C30EBE7076F00082F
S31508002C40636F00082DE9F04788B004460F4615461D
S31508002C50984600F031FE0228064616D14FF0FF319D
S31508002C60A06B00F09FFE002840F0248194F83730CE
S31508002C705BB14FF0FF31D4F88C0000F067FF20B14C
S31508002C8040F293218C4803F054FA03F0F6FA814691
S31508002C9065B1237E03F0FF061BBB94F837502DB1B0
S31508002CA040F26331844803F044FA35464846C8F88A
S31508002CB0005003F0E8FA00F0FFFD022808D1A06BE7
S31508002CC000F0A0FE20B140F29F217B4803F031FAC4
S31508002CD0D8F80030002B0CBF1B20002008B0BDE838
S31508002CE0F0872046FFF708FF63690646984206D133
S31508002CF0637E23B940F27F316F4803F01AFA62699E
S31508002D0096429CBFD4E903603618B61AAE4228BF6D
S31508002D102E4603F0B2FA94F82D308246002B40F086
S31508002D20888032463846616903F01CFD636935467A
S31508002D30334463612BE06069037803F0FD011129D0
S31508002D4074D1216B884205D1A3F111014B424B4145
S31508002D5084F83430013D6369216B01328B4203F1FB
S31508002D60010308BF236363619642E4D1D4E90323D0
S31508002D70216B1344994208BF2263216B8A4201D80A
S31508002D808B4204D84FF46D714B4803F0D2F9D4E95D
S31508002D90032361691344994208BF626161698A42E3
S31508002DA001D88B4204D84FF47171434803F0C1F936
S31508002DB00023207A6376FEF735F820B140F2113108
S31508002DC03D4803F0B6F92046FFF796FE636983424D
S31508002DD032D10023E668237694F82D30666103B174
S31508002DE026632046636A9847344B3246039300238A
S31508002DF002932369216801930123207A009304949E
S31508002E00636803F0E0F920B140F22D312A4803F057
S31508002E1090F9207AFEF726F820B140F2513126487B
S31508002E2003F087F9504603F02EFA3FE707F8013B0F
S31508002E3091E73546002297E70123237694F8373041
S31508002E40ABB1237E23B940F236311B4803F071F942
S31508002E50D4F88C0000F0E2FE48B9D4F88C0000F0F3
S31508002E60ABFE20B140F23931134803F062F9207AFB
S31508002E700DF11E01FEF75EF820B14FF450710E48B1
S31508002E8003F057F99DF81E30002BC2D0207A0DF1B9
S31508002E901F01FEF727F820B140F24631064803F035
S31508002EA048F99DF81F100029B3D12246207AFFF76A
S31508002EB043FEAEE7304611E7076F0008392B0008D6
S31508002EC070B50546046800F0F7FC022816D14FF0E5
S31508002ED0FF31D4F8E00000F065FD20B14FF4DA7157
S31508002EE0374803F026F94FF0FF31A06B00F05AFD82
S31508002EF020B140F2B711324803F01BF9FFF7C4FDC1
S31508002F00854202D10020FFF7EBFD94F93630002BFD
S31508002F1011DB012203F01F015B099B0003F16043EB
S31508002F208A4003F56143C3F88021C3F88020BFF3C4
S31508002F304F8FBFF36F8FD4F88C0000F087FE20B157
S31508002F4040F2CF111E4803F0F4F8A06B00F084FDA0
S31508002F5020B14FF4E9711A4803F0EBF8D4F8E00011
S31508002F6000F07AFD20B140F2D511154803F0E1F8DA
S31508002F70207AFDF797FF20B14FF4ED71104803F062
S31508002F80D8F8207AFDF7F4FE20B14FF4EF710C481B
S31508002F9003F0CFF8FDF7CAFE38B10A4B984204D0C1
S31508002FA04FF4F171064803F0C4F800232046C5E93A
S31508002FB00033C5E90433AB60A36ABDE8704018471F
S31508002FC0076F0008058000F02DE9F84304460D4612
S31508002FD0164600F071FC0228074641D094F82C806A
S31508002FE0DFF8DC902E44AE4229D094F82D308BB110
S31508002FF003F043F9237E0746002B3BD1226B636916
S315080030009A4204D040F2F911484603F092F838463D
S3150800301003F039F994F83430002BE4D0B8F1000FF6
S3150800302006D02B780A2B03D10D212046E369984751
S315080030302046E36915F8011B98470028D3D000F00D
S315080030403BFC022809D1D4F8E00000F0DBFC20B1F3
S3150800305040F277211A4803F06CF80020BDE8F8839F
S315080030604FF0FF31D4F8E00000F09CFC0028B5D002
S315080030703846F3E72046FFF73FFDE1680138884206
S3150800308038BF2069D4F830C03CBF00F1FF30401883
S3150800309003469C450BD013F80129112A01D0132A9F
S315080030A007D1A2F111035A425A4184F83420206309
S315080030B0ADE7994282BF236903F1FF335B18E8E75E
S315080030C0076F0008F0B58FB00C4605461646002176
S315080030D04FF49A7220461F4603F051FB96E8030008
S315080030E0002332692376F36884E80300C4E90423DD
S315080030F0327DE36084F82C20B27D2363012384F8B3
S31508003100343084F83530149B84F82D202362159BBF
S31508003110E7616362169BA362337A84F836303F4BC5
S315080031202C606B603E4BAB603E4B2B613E4B6B613C
S315080031303E4BEB60FDF742FE30B13D4B984203D063
S31508003140102420460FB0F0BD002104F10800FDF759
S31508003150BDFD0028F4D1374BAB61374BEB6101233A
S3150800316084F83730354BCDE9063004F13C03089333
S31508003170502306A8099300F0D3FBA06318B9C12110
S315080031802F4802F0D6FF2F4B06A806930023079375
S3150800319004F1E403089300F0C3FBC4F8E00018B98F
S315080031A0C721274802F0C5FF274B00210A9304F1DF
S315080031B090030C93502301200AAA0B910D9300F05B
S315080031C06FFCC4F88C0018B9CF211D4802F0B1FF76
S315080031D01E4B012703930023049402932369009747
S315080031E001936368E2682168207A02F0ECFF0446DE
S315080031F00028A5D196F90830002B0BDB03F01F0237
S315080032005B099B0003F16043974003F56143C3F8EC
S3150800321080711F602846FFF763FC92E7C92F0008F4
S31508003220452C0008E7620008ED620008C12E000878
S31508003230038000F0AD2B0008F36200086F6F0008EA
S31508003240076F0008796F0008636F0008392B0008BC
S315080032502DE9F04186B01C465A4B012702935A4B7A
S315080032600C9D01930023904600930A46CDE9037707
S315080032702946564BFFF726FF064600287DD12368C8
S315080032803946C5F8343163683A20C5F83831637A67
S3150800329085F83D31237A85F83C31E37A85F83F3164
S315080032A0A37A85F83E31637B85F84131237B85F81F
S315080032B04031E37B85F84331A37B85F84231FEF73D
S315080032C0DDF93B460422617A207AFEF7B3FF3B46D6
S315080032D00222E17AA07AFEF7ADFF39466068FEF76A
S315080032E0CDF988F8006041462068FFF70BFA1420EC
S315080032F0617C374B01F1390252019850607A227A83
S3150800330003EB411342EA0042C3F83827E17AA27A6E
S3150800331042EA0142C3F8302785F8446198F8193023
S31508003320032B4DD8DFE803F01F022D4701230027A2
S3150800333085F8443100230222617B207BFEF77AFF61
S31508003340617B227B637C42EA014241F228715B0180
S3150800335003F1A04303F570335A500422236803F59A
S315080033608053DA6587B9D5F834210521D36C2068EE
S3150800337043F00403D364FFF77BF9304606B0BDE893
S31508003380F081022385F8443100230422E17BA07BE7
S31508003390FEF750FF0220617C0D4B01F1B902520184
S315080033A0985003EB411341F22C71E07BA27B42EA71
S315080033B000425A50D7E70323012785F84431B9E775
S315080033C02326DAE707630008F96200088563000820
S315080033D000C0035038B50468237ED4F83401CBB94D
S315080033E0C36C23F00403C3640123237694F83730AF
S315080033F093B3D4F88C0000F011FC68BBD4F88C00A9
S3150800340000F0DAFB40B3BDE838404FF48271184843
S3150800341002F08FBE637E2BB394F82D3013B30025CC
S31508003420132184F8355002F045FFD4F83431DA6CAC
S3150800343042F00402DA645B6ADBB2112B0DD1012378
S3150800344084F834303022237A534303F1A04303F53A
S315080034508023DB6E013B236338BD132BFCD184F834
S315080034603450EFE7C36C23F00403C364F4E700BFEA
S31508003470846F000830B50F4C41612368ABB92060F2
S31508003480836011E0891A9A681D4641612AB113467C
S315080034905A698A42F6D955B11A461346A860836016
S315080034A013B15A69511A596130BD0025F0E72060F9
S315080034B0F5E700BF8C18002010B500F085F90A4C16
S315080034C00A4B19682368C31A01B10BB9206010BDED
S315080034D04A699A423ABF9B1A0022D21A4A6128BF01
S315080034E000238968F0E700BF801800208C180020A8
S315080034F038B5134D2B685B6993B1124A02201468DC
S315080035001C4402F04AFF204600F066F900230E49E3
S315080035102A680B70D088800709D501230B7038BD3F
S31508003520022002F03AFF022000F0A4F9EEE79268C2
S31508003530002AF4D050690344012BEBD9EFE700BF0A
S315080035408C180020801800206528002000220C49CD
S315080035500B687BB183420AD183687AB1936083682A
S315080035601BB15A6941690A445A61002070471A46D4
S315080035709B68EEE70028EFD0022070470B60EEE765
S315080035808C18002070B502F078FE144E0546347883
S31508003590FCB9134B1C60134B1C60134B1C8000F0CA
S315080035A0E1F8012002F0F9FE02F01AFF0F4B02467D
S315080035B0186020B9284602F066FE232070BD23460F
S315080035C040F2E7310A4802F01DF80A4B1860012359
S315080035D03370284602F057FE0020EFE764280020E3
S315080035E08C180020801800205824002088180020F5
S315080035F018FCFFFF841800202DE9F84FC20704467F
S315080036000BD54F4A138801339BB21380FFF754FF3B
S315080036104C4B1B680BB1FFF76BFFA30740F18E807D
S3150800362002F02BFE4FF0000A05465646FFF744FF08
S31508003630D046444FDFF814913C680CB163698BB1EE
S315080036400022414B012E1A7003D11AF0020F18BF3F
S315080036501E70002C62D0FFF74BFF2846BDE8F84FD6
S3150800366002F011BE23461A792179914288BF1C4679
S315080036709B6813B15A69002AF5D0284602F003FE62
S31508003680D4F810A0BAF1000F4CD000F09DF8A2694A
S31508003690851AEB17AA4578EB030344DA2369134422
S315080036A00122A36123691BB312BBEB17BAEB05050D
S315080036B063EB4303002B04DA40F22A51484602F032
S315080036C038FDA38B33B1E28B13449BB2B3F57A7FF3
S315080036D01CD2E38302F0D1FD824629462046FFF735
S315080036E0C9FEA369226950461344A36102F0CBFDC3
S315080036F0E368B4F806A0013613B120462168984756
S3150800370002F0BBFD0546FFF7D7FE95E7A3F57A73EA
S31508003710E383A369013D013BA361DBE7022000F0D7
S3150800372093F89AE7554602F0A8FD83462046FFF728
S315080037300DFF584602F0A7FD0022B3E7BDE8F88F53
S31508003740582400208C18002066280020E16F000805
S31508003750034B5A68D20702D5DA69002AF9D17047AD
S3150800376000800A5010B586B0002401213E20ADF82D
S315080037700810CDE903448DF804408DF80A400594F5
S31508003780FDF77CFF01A8FFF755F8204602A98DF83A
S315080037900840FFF75FF820460F21FFF791F80F2141
S315080037A02046FFF79BF8FFF725F8FFF7D1FF082219
S315080037B0034B9C61034BC3F888219A6006B010BD81
S315080037C000800A5000E100E008B5FFF7C1FF014B91
S315080037D0986908BD00800A50F8B5044602F046FD0F
S315080037E0FFF7B6FF164B07469D6902F0D2FD06465F
S315080037F00020FFF781F8830704D4731B032B01D835
S31508003800AE420FD10021631B022B98BFEC1C084661
S31508003810B4F1FF3F2CBF2246621EFFF795F802203F
S3150800382002F0BBFD384602F025FD064A137833B18F
S3150800383003498B6C43F001038B6400231370F8BDB6
S3150800384000800A508B100020830700F0010109D57B
S315080038500122064B41F002011A70054A936C23F0C7
S31508003860010393640020FFF72BB800BF8B100020DC
S3150800387000800A50830742BF0222014B1A64704730
S3150800388000900A50EFF3058373B9EFF31082094BE2
S3150800389012B9EFF3118212B11A68022A04D0186815
S315080038A028B901221A6070476FF0050070474FF07B
S315080038B0FF307047701B002008B501F00FFA38B1C9
S315080038C0022804D0034B1868431E5842584108BDC5
S315080038D00320FCE7701B002010B5EFF30583ABB996
S315080038E0EFF310820C4B12B9EFF3118212B11A687A
S315080038F0022A0BD01A68012A0BD10024074AD4776A
S3150800390002221A6000F052FF204610BD6FF0050033
S31508003910FBE74FF0FF30F8E7701B002000ED00E0F2
S3150800392070B50546EFF3058616B10024204670BD2E
S31508003930EFF3108212B9EFF311821AB1184A12681E
S31508003940022AF2D015B16E683307EED406F00106E6
S315080039507DB1D5E9021351B14F2BE6D9DEB104206A
S3150800396002F02EFE04460028DFD02D680AE0002B60
S31508003970DBD196B1042002F038FE04460028D4D0E4
S31508003980002DF2D12946204600F08AFD002ECDD022
S3150800399044F00104CAE70120E2E70120EBE700BF93
S315080039A0701B002010B503460C4620F0010003F0FA
S315080039B00103EFF30582E2B9EFF3108212B9EFF3D0
S315080039C011821AB10E4A1268022A12D0A0B12146F3
S315080039D063B100F0DBFC012801D1002010BD002CEA
S315080039E014BF6FF001006FF00200F7E700F030FC3B
S315080039F0F1E76FF00500F1E76FF00300EEE700BFAF
S31508003A00701B002008B5034620F0010003F00103EF
S31508003A10EFF30582C2B9EFF3108212B9EFF3118200
S31508003A201AB10C4A1268022A0ED080B13BB100F0D6
S31508003A30CDFA01280CBF00206FF0020008BD1A4617
S31508003A40194600F02DFAF4E76FF00500F6E76FF077
S31508003A500300F3E7701B002007B520F00100EFF321
S31508003A600583A3B9EFF3108313B9EFF311831BB1E1
S31508003A700A4B1B68022B0AD060B1019000F022FDA8
S31508003A80019800F033FD002003B05DF804FB6FF0E9
S31508003A900500F9E76FF00300F6E700BF701B00208A
S31508003AA073B50E461546EFF305831BB10024204671
S31508003AB002B070BDEFF3108313B9EFF311831BB196
S31508003AC0214B1B68022BF1D00028EFD0B042EDD372
S31508003AD0EDB1D5E90232C3B14F2AE7D9012829D178
S31508003AE0032200920022114600F028F90446002815
S31508003AF0DCD0CEB100231A46194600F0D1F90128C8
S31508003B0012D0204600F0F2FCD0E7002ACED10128D8
S31508003B1004D10322002100F04FF9E7E7314600F00F
S31508003B20A5F904460028C1D05DB92946204600F00B
S31508003B30B7FCBCE71A46314600F078F90446002877
S31508003B40B4D02D68F1E700BF701B002013B50C46F2
S31508003B5048B3EFF305834BB9EFF3108313B9EFF3CB
S31508003B601183BBB1134B1B68022B13D1DCB9214659
S31508003B7001AA019400F02AFC012811D1019B13B96E
S31508003B80002002B010BD4FF0E0234FF08052C3F87A
S31508003B90042DF5E7214600F05BFB0128F0D02CB98F
S31508003BA06FF00200EDE76FF00300EAE76FF001003F
S31508003BB0E7E700BF701B002013B548B3EFF3058392
S31508003BC04BB9EFF3108313B9EFF31183B3B1124B6B
S31508003BD01B68022B12D1002401A9019400F06CFA8B
S31508003BE0012812D1019B13B9002002B010BD4FF075
S31508003BF0E0234FF08052C3F8042DF5E700231A4658
S31508003C00194600F04DF90128EED06FF00200ECE7F6
S31508003C106FF00300E9E700BF701B0020034690B170
S31508003C20EFF305824AB9EFF3108212B9EFF3118266
S31508003C3032B1054A1268022A02D1184600F024BC9D
S31508003C40184600F00DBC7047701B002007B5EFF34F
S31508003C500583A3B9EFF3108313B9EFF311831BB1EF
S31508003C600A4B1B68022B0AD060B1019000F02AFCAF
S31508003C70019800F03BFC002003B05DF804FB6FF0F0
S31508003C800500F9E76FF00300F6E700BF701B002098
S31508003C9040F67411014802F04CBA00BF3C700008A7
S31508003CA0034B0360034B0B60A0231360704700BFF0
S31508003CB0101B002090180020034B0360034B0B6079
S31508003CC0A0231360704700BFF41D0020741B00205A
S31508003CD038B50D46044620B94FF48D71164802F0E2
S31508003CE028FA01F0F7FAD4E90F314B432268D018C5
S31508003CF05B1A1344A060E3600020FF23A0636260A0
S31508003D0084F8443084F8453065B9236933B104F141
S31508003D10100000F045FF08B102F0F5FC01F0E8FAE2
S31508003D20012038BD04F1100002F07BFB04F12400E9
S31508003D3002F077FBF2E700BF9A700008F7B50D4668
S31508003D4016461C46074620B940F25511194802F096
S31508003D50F0F924B940F25911164802F0EAF926B3E7
S31508003D6025B940F25D11134802F0E3F95023019397
S31508003D70019B502B04D04FF4B3710E4802F0D9F9C9
S31508003D80019B7CB10121002D08BF26462046C4E9C7
S31508003D900F7584F846102660FFF79AFF9DF82030C5
S31508003DA084F84C30204603B0F0BD002DDED04FF429
S31508003DB0AF71D8E79A700008F8B50D46174606465B
S31508003DC020B940F29311184802F0B3F905FB06F43E
S31508003DD085B1B4FBF5F3B34204D040F29B11124807
S31508003DE002F0A7F914F1510F04D94FF4CF710E4818
S31508003DF002F09FF904F1500001F028FB044670B167
S31508003E00002380F8463065B100F1500301212046B1
S31508003E10C4E90F652360FFF75BFF84F84C70204602
S31508003E20F8BD0346F2E700BF9A70000873B50D4661
S31508003E301646044620B940F2DD210B4802F079F90E
S31508003E40AC4204D240F2DE21074802F072F902239E
S31508003E5000220093114633462046FFF76FFF00B154
S31508003E60856302B070BD00BF9A70000838B50D466C
S31508003E70044620B940F2FA21084802F05AF9AC4241
S31508003E8004D240F2FB21054802F053F90222002130
S31508003E902046FFF791FF00B1856338BD9A70000888
S31508003EA02DE9F04385B00F461E460446019220B917
S31508003EB040F21931444802F03CF937B9236C23B172
S31508003EC040F21A31404802F034F9022E07D1E36B6A
S31508003ED0012B04D040F21B313B4802F02AF900F0CE
S31508003EE0FDFE30B9019B23B140F21E31364802F07F
S31508003EF020F94FF00008C14601F0ECF9A26BE36B1C
S31508003F009A4201D3022E13D132463946204602F090
S31508003F10D4FA636A1BB104F1240000F041FE08B12B
S31508003F2002F0F1FB01F0E4F9012005B0BDE8F083E9
S31508003F30019D1DB901F0DCF90020F6E7B8F1000F84
S31508003F4002D102A800F06EFE01F0D2F900F070FC72
S31508003F5001F0C0F994F84430FF2B08BF84F8449068
S31508003F6094F84530FF2B08BF84F8459001F0C0F956
S31508003F7001A902A800F062FEF8B901F0ABF9A26B3C
S31508003F80E36B9A420FD101F0B3F9019904F11000DD
S31508003F9000F0CCFD204602F0DBFA00F0EBFC48B955
S31508003FA002F0B1FB06E001F0A3F9204602F0D0FAD0
S31508003FB000F0E0FC4FF001089EE7204602F0C8FA40
S31508003FC000F0D8FCB8E700BF9A70000838B5044678
S31508003FD020B940F27A210A4802F0ABF8A56800F049
S31508003FE077FE85420AD1E368013BE36023B91A46A6
S31508003FF019462046FFF754FF012000E0002038BD8F
S315080040009A7000082DE9F843894690461F460446EB
S3150800401020B940F2ED31274802F08BF8B9F1000FCC
S3150800402006D1236C23B140F2EE31224802F081F822
S31508004030022F07D1E36B012B04D040F2EF311D4864
S3150800404002F077F802F07CFBA26BE36B06469A4215
S3150800405001D3022F2CD194F845503A4649462046BA
S315080040606DB2A36B02F029FA6B1C15D1636A0BB902
S3150800407001240BE004F1240000F092FD0028F7D09B
S31508004080B8F1000FF4D00124C8F80040304602F019
S3150800409062FB2046BDE8F8837F2D04D14FF48F617B
S315080040A0044802F046F801356DB284F84550DFE75A
S315080040B00024EBE79A700008F8B50E46044620B9C6
S315080040C04FF49361204802F034F8236C23B140F290
S315080040D09C411D4802F02DF8236833B9A36823B123
S315080040E040F2A141184802F024F802F029FBA36B1C
S315080040F0E26B07469A4225D994F845200133FF2AF0
S3150800410055B2A36312D1636A0BB9012409E004F11D
S31508004110240000F045FD0028F7D0002EF5D0012434
S315080041203460384602F017FB2046F8BD7F2D04D1CF
S315080041304FF4A461044801F0FCFF01356DB284F820
S315080041404550E2E70024ECE79A7000082DE9FF41A4
S315080041500E460446019220B940F23C513B4801F014
S31508004160E8FF36B9236C23B14FF4A861374801F04C
S31508004170E0FF00F0B3FD30B9019B23B140F2455191
S31508004180324801F0D6FF0027B84601F0A3F8A56B20
S31508004190A5B131462046013D02F0C4F9A56323695D
S315080041A033B104F1100000F0FBFC08B102F0ABFAE1
S315080041B001F09EF8012004B0BDE8F081019D1DB90B
S315080041C001F096F80020F6E717B902A800F02AFDD4
S315080041D001F08EF800F02CFB01F07CF894F84430DE
S315080041E0FF2B08BF84F8448094F84530FF2B08BF9E
S315080041F084F8458001F07CF801A902A800F01EFDAC
S31508004200C0B9204602F04EF970B1019904F12400B4
S3150800421000F08CFC204602F09BF900F0ABFB08B9D5
S3150800422002F071FA0127B0E7204602F091F900F092
S31508004230A1FBF7E7204602F08BF900F09BFB20462E
S3150800424002F030F90028EDD0BCE700BF9A700008EC
S31508004250F0B585B00446019120B940F2CE514A48DE
S3150800426001F067FF236C23B140F2D251464801F0B2
S3150800427060FF00F033FD30B9019B23B140F2D751FE
S31508004280414801F056FF00252E462F4601F022F838
S31508004290A36BABB1013BA363236813B900F0FEFD22
S315080042A0A060236933B104F1100000F079FC08B16D
S315080042B002F029FA01F01CF80125284605B0F0BDE0
S315080042C0019B4BB925B140F21D612F4801F031FF22
S315080042D001F00EF80025F0E716B902A800F0A2FCD6
S315080042E001F006F800F0A4FA00F0F4FF94F8443060
S315080042F0FF2B08BF84F8447094F84530FF2B08BF9D
S3150800430084F8457000F0F4FF01A902A800F096FCB5
S3150800431010BB204602F0C6F8C0B123683BB900F0CE
S31508004320D9FFA06800F0EAFC054600F0E1FF019914
S3150800433004F1240000F0FAFB204602F009F900F027
S3150800434019FB08B902F0DFF901269FE7204602F0BB
S31508004350FFF800F00FFBF7E7204602F0F9F800F047
S3150800436009FB204602F09EF80028EDD0002DA4D0C7
S3150800437000F0B0FF616A19B1236B1968C1F1380101
S31508004380A06800F03DFDA3E79A70000870B50D46D9
S31508004390044620B940F2B2210B4801F0CAFEA668CD
S315080043A000F096FC864204D10120E3680133E360FD
S315080043B070BD29462046FFF74BFF0028F8D0E36872
S315080043C00133E360F4E700BF9A7000082DE9F8436B
S315080043D089469046054620B940F23C711F4801F0CF
S315080043E0A8FEB9F1000F06D12B6C23B140F23D713E
S315080043F01A4801F09EFE02F0A3F9AC6B0746D4B149
S3150800440095F844604946284676B202F08BF8013C96
S31508004410731CAC6315D12B690BB901240BE005F1AC
S31508004420100000F0BDFB0028F7D0B8F1000FF4D05B
S315080044300124C8F80040384602F08DF92046BDE848
S31508004440F8837F2E04D14FF4F061044801F071FE21
S31508004450013676B285F84460DFE700BF9A70000837
S3150800446013B5044620B940F2CE71064801F061FE44
S3150800447000F030FFA06B019000F03AFF019802B0FF
S3150800448010BD00BF9A70000810B5044620B94FF455
S31508004490FE61024801F04DFEA06B10BD9A7000083F
S315080044A010B50023064A52F833402CB942F83310A7
S315080044B002EBC303586010BD01330A2BF3D1FAE7A8
S315080044C0541E002010B50023074A02EBC3014C68AE
S315080044D0844204D1002042F83300486010BD0133FD
S315080044E00A2BF2D1FAE700BF541E002010B5044685
S315080044F020B940F2FB71074801F01BFE2046FFF782
S31508004500E1FF94F8463023B92046BDE8104001F093
S3150800451039B810BD9A7000082DE9F041044600F03C
S31508004520D9FE2D4B2D4E1A682D4F01321A6035686B
S31508004530002D43D134601B68012B1FD1B846404675
S31508004540013501F06EFF382D08F11408F7D1DFF8B0
S31508004550B880244D404601F064FF284601F061FF0B
S31508004560214801F05EFF214801F05BFF204801F079
S3150800457058FF204BC3F800801F4B1D6014201F4AAC
S315080045801368013313601E4A23641168E36A8B4279
S3150800459000FB037004F1040188BF136001F04FFFAC
S315080045A000F0A6FE174B1B689BB13368DA6AE36A0C
S315080045B09A420ED2BDE8F04102F0A5B8114B1B682D
S315080045C0002BDBD13368DA6AE36A9A4298BF346013
S315080045D0D4E7BDE8F08100BF10230020A41E002008
S315080045E0B01E0020382300205823002084230020F2
S315080045F070230020A81E0020AC1E00201C230020CB
S31508004600202300206C23002024230020F8B504462C
S31508004610144B154E1D6830680F46043001F032FF02
S31508004620631C07D137B1316810480431BDE8F8403A
S3150800463001F005BF33682C195C6007D30C4B18686A
S315080046403168BDE8F840043101F005BF094B186828
S315080046503168043101F0FFFE074B1A68A24288BF91
S315080046601C60F8BD98230020A41E0020702300209B
S31508004670AC1E0020A81E00204C230020064A136802
S315080046801968064B19B94FF0FF321A60704712685D
S31508004690D2681268F9E700BFA81E00204C23002044
S315080046A010B590F85D3004463BB9006B00F06AFF20
S315080046B02046BDE8104000F065BF012BF9D0022B5B
S315080046C006D0BDE8104040F69771024801F031BDAA
S315080046D010BD00BFEE70000880B50F4C0F4F104D8F
S315080046E0236833B90F4B1B68012BF8D902F00BF876
S315080046F0F5E700F0EFFDFB68DE68301D01F0C2FE4D
S315080047002B68013B2B602368013B236000F0F0FD1A
S315080047103046FFF7C5FFE3E7142300208423002073
S3150800472010230020B01E00202DE9F04387B005466F
S31508004730DDE90F940E4617469846B9F1000F04D1E5
S3150800474040F25521184801F0F4FC24B940F25621EC
S31508004750154801F0EEFC60230593059B602B04D0F9
S3150800476040F25E21104801F0E4FC059BCCB1B9F19A
S31508004770000F16D0022384F85D3004ABC4F83090DD
S3150800478001930E9B284600933A46434631460294C7
S3150800479001F060FF2046FFF7BFFE049807B0BDE8AA
S315080047A0F08300230493F8E7EE70000830B589B06B
S315080047B0002507AA06A905A8CDE90555FFF770FA49
S315080047C0059B079A0293069B1249CDE900531248A6
S315080047D02B46FFF7A9FF80B100F0BEFB012804466F
S315080047E00FD101F0ADFF4FF0FF320C4B1A600C4BA6
S315080047F01C600C4B1D6000F0E7FD0B4B1B6809B0F5
S3150800480030BD0134F9D140F64301084801F091FC66
S31508004810F3E700BF42710008D94600084C23002080
S315080048206C2300209823002018100020EE70000842
S31508004830024A136801331360704700BF182300202B
S31508004840014B1868704700BF982300202DE9F74FE1
S315080048503C4B1B68002B6ED13B4B1D6801351D6018
S315080048609DB93A4C23681B6823B140F6C9213848DC
S3150800487001F05FFC374B2268196821601A60364AD6
S31508004880136801331360FFF7F9FE344E00243368CA
S31508004890334F9D42DFF8D48011D21422D8F8003065
S315080048A0DB6A5343FB58022B2E4B28BF01241B6897
S315080048B0002B18BF0124204603B0BDE8F08FDFF8AF
S315080048C08C90DFF8ACA0D9F800301B681BB94FF004
S315080048D0FF333360E1E7D9F80030DB68D3F80CB072
S315080048E0DBF80420954201D23260D6E70BF10401C9
S315080048F00846019101F0C6FDDBF82820019922B18E
S315080049000BF1180001F0BEFD01991423DBF82C0009
S31508004910DAF80020904288BFCAF8000003FB00704E
S3150800492001F08DFDD8F80010DBF82C20CB6A9A42EE
S3150800493028BF0124C7E70C4A002413680133136013
S31508004940B9E700BF1823002098230020A81E0020DE
S31508004950EE700008AC1E0020502300204C230020D7
S31508004960B01E00209C23002054230020A41E0020F3
S3150800497020230020F7B52B4C236823B940F6B6014F
S31508004980294801F0D6FB00F0A5FC2368013B23600B
S3150800499024682CB1002400F0ABFC204603B0F0BD1F
S315080049A0224B1B68002BF5D0214D224E224F1EE0CC
S315080049B0EB68DC6804F1180001F064FD211D084667
S315080049C0019101F05FFD1420E36A326800FB037071
S315080049D09342019988BF336001F031FD174BE26AB3
S315080049E01B68DB6A9A4202D30122154B1A602B68B0
S315080049F0002BDDD10CB1FFF741FE124D2C6844B1F6
S31508004A0001270F4EFFF722FF00B13760013CF9D1AD
S31508004A102C600B4B1B68002BBCD001F074FE0124E4
S31508004A20B9E700BF18230020EE7000081023002005
S31508004A305823002020230020B01E0020A41E00209A
S31508004A409C2300205423002010B5044618B9BDE85D
S31508004A50104001F058BE094B1B6823B140F24C5177
S31508004A60074801F066FB00212046FFF7E1FEFFF745
S31508004A70CDFDFFF77FFF0028E9D010BD18230020E1
S31508004A80EE7000082DE9F041224B1A68224B1AB144
S31508004A9001221A60BDE8F081204E1A6033681B6B4C
S31508004AA01A68B2F1A53F0BD15A68B2F1A53F07D1F2
S31508004AB09A68B2F1A53F03D1DB68B3F1A53F04D0EC
S31508004AC0306831683431FFF7E3F8154F154D3C6807
S31508004AD0DFF8548014236343E958EA1889B151680A
S31508004AE0083349682B44994208BF4B68516008BF90
S31508004AF05360142303FB04556B68DB6833603C6022
S31508004B00C8E724B940F60441404601F012FB013CCF
S31508004B10E0E700BF182300209C230020A41E0020E5
S31508004B2020230020B01E0020EE70000838B50D4680
S31508004B30044620B940F61E41074801F0FAFA074B29
S31508004B4020461968183101F086FC2846BDE8384029
S31508004B500121FFF75BBD00BFEE700008A41E002010
S31508004B6070B50E461446054620B940F64D410A482A
S31508004B7001F0DFFA094B28461968183101F05FFC85
S31508004B80002C214608BF3046BDE8704018BF4FF0DC
S31508004B90FF30FFF73BBD00BFEE700008A41E0020E3
S31508004BA013B5C368DC6824B940F67D41164801F0A0
S31508004BB0C0FA04F118010846019101F063FC134B91
S31508004BC001991B68F3B9211D0846019101F05AFCA9
S31508004BD00F4AE36A1068019983424FF0140088BFB0
S31508004BE013600C4A00FB032001F029FC0A4BE26A19
S31508004BF01B68DB6A9A4289BF01200020074B1860B0
S31508004C0002B010BD0648EFE7EE7000081823002032
S31508004C1020230020B01E0020A41E00209C23002074
S31508004C2058230020034B1B680360034B1B68436033
S31508004C30704700BF502300209823002070B50D460A
S31508004C40044620B940F6F841144801F072FA25B92D
S31508004C5040F6F941114801F06CFA00F03BFB104BA5
S31508004C6019682B685A1C17D00E48266800686268AF
S31508004C70864208D08A4206D8002301242B6000F019
S31508004C8037FB204670BD881A8342F5D95B1A134450
S31508004C9020462B60FFF7C6FF0024F0E7EE700008F9
S31508004CA098230020502300200122014B1A607047E8
S31508004CB09C230020012906DC08B9044B1868143126
S31508004CC050F8210070470020704700BFA41E00203E
S31508004CD0014B1868704700BFA41E0020054B1B68CF
S31508004CE033B1054B1B68002B0CBF02200020704710
S31508004CF0012070476C2300201823002073B5044652
S31508004D0048B31C4DC36A2A68D26A934229D282697B
S31508004D10194E002AA1BF2A68D26AC2F138028261F6
S31508004D20142202FB036342699A4216D1011D084602
S31508004D30019101F0A7FB2B68104ADB6A10680199FC
S31508004D4083424FF01400E36200FB036088BF1360E0
S31508004D5001F075FB012002B070BD2B68DB6AC362E7
S31508004D60F8E72B68806CDC6AA0422CBF0020012083
S31508004D70F1E700BFA41E0020B01E0020202300205B
S31508004D8013B5044610B9002002B010BD184B1B68B5
S31508004D90834204D041F24A01164801F0CAF9E36C8D
S31508004DA023B941F24B01134801F0C3F9E36CE16AF8
S31508004DB0A26C013B9142E364E5D0002BE3D1211DAF
S31508004DC00846019101F05EFBA36C0199C3F1380214
S31508004DD0A261094AE362106883424FF0140088BF53
S31508004DE01360064A00FB032001F029FB0120CBE7EC
S31508004DF0A41E0020EE70000820230020B01E00200C
S31508004E0037B50D46044600283ED0C36C23B941F297
S31508004E109A011E4801F08DF9A16CE36A8D4238BFEC
S31508004E200D46AB4230D0E36C012B2DD1184B1B68D5
S31508004E30A34204D141F2B501144801F07AF9A269F6
S31508004E40E36A002A4FF01402E562A4BFC5F13805EB
S31508004E50A561104D02FB035362699A4214D1211DC4
S31508004E600846019101F00EFB0B4AE36A10680199A6
S31508004E7083424FF0140000FB035088BF136003B051
S31508004E80BDE8304001F0DBBA03B030BDEE70000873
S31508004E90A41E0020B01E002020230020044B1A6800
S31508004EA01AB11968CA6C0132CA641868704700BF1B
S31508004EB0A41E0020F7B5114C00F00CFA2568BDB900
S31508004EC00F4F104E384601F0ACFA304601F0A9FAF9
S31508004ED00D4B10211F600D4B0A201E600C4A0D4B0E
S31508004EE00095FEF72BFF206010B10B49FFF7D8FAA3
S31508004EF003B0BDE8F04000F0FBB900BF2424002051
S31508004F00A8230020BC230020A0230020A4230020DF
S31508004F1067280020D42300204771000808B591426D
S31508004F20416000610AD8D21A83699A420DD2084BA9
S31508004F30011D186801F08FFA002008BD9A4201D2B7
S31508004F40994202D2034B011DF3E70120F5E700BFA2
S31508004F50A4230020A023002010B588B0FFF7AAFFDD
S31508004F60114B1B68CBB1002407AA06A905A8CDE9F1
S31508004F700544FEF7A1FE059B079A0293069B0B497B
S31508004F80019328230A4800932346FFF7CDFB094BD4
S31508004F90186010B1012008B010BD07484FF48D7194
S31508004FA001F0C7F80020F6E7242400204C71000819
S31508004FB0C55000082824002054710008F0B587B0B1
S31508004FC017460C461A46054630B940F28F110F4867
S31508004FD0019301F0AEF8019A0D4E306878B1052CB0
S31508004FE0CDE9024704950CDCFFF778FE002302287A
S31508004FF014BF1A460C9A306802A9FEF751FF07B08B
S31508005000F0BD002302A9FEF7FDFFF8E7547100087A
S31508005010242400202DE9F04F85B00646FFF710FC42
S31508005020DFF898800546D8F8003083423FD94FF01C
S315080050300009204FDFF888A03B681A685AB91E4A4B
S31508005040116813600123396028463360C8F8005098
S3150800505005B0BDE8F08FDB68DC68D3F800B0211D29
S315080050600846039101F00EFA236A2046984794F8F9
S315080050702830039913F0040FDED0A3695B449B45DF
S3150800508005D238686360246101F0E5F9D4E70023A6
S315080050905A4619462046CDF80090FFF78FFF00289C
S315080050A0CAD140F2B631504601F043F8C4E70023AE
S315080050B0CAE700BFA0230020A4230020D023002095
S315080050C0547100082DE9F0478AB0694E694D336876
S315080050D0D3F80080B8F1000F56D00024DB68D3F867
S315080050E00080FFF7A5FB06A8FFF794FF069B8246FC
S315080050F0614F002B62D1002C4DD1404551D3FFF7AB
S3150800510039FC3368DB68D3F80C9009F1040001F028
S31508005110B9F999F82830580738D5D9F818104346F8
S31508005120524648464144FFF7F9FE60B123464246D7
S31508005130214648460094FFF741FF20B940F2212155
S31508005140284600F0F6FF4846D9F82030984700224E
S31508005150386806A9FEF7FAFF0028B8D0069B089813
S31508005160002B2EDB089C6369002B31D105A8FFF7BD
S3150800517051FF069B0246092BE9D8DFE803F02D2DDF
S315080051802D535A712D2D535A0124AAE723F00103F2
S3150800519089F82830D7E7394B1B681C68B4FA84F4B9
S315080051A0640922463868A8EB0A0101F030FAFFF7CD
S315080051B0E1FB0028CBD101F0A6FAC8E7FFF7DAFB36
S315080051C0C5E7079B09999847069B002BBFDBC9E7EC
S315080051D0201D01F057F9C9E794F82830A16943F072
S315080051E0010384F82830079B20461944FFF796FEEA
S315080051F00028ACD0236A2046984794F828305907E7
S31508005200A5D50023A269079920460A4400931946A2
S31508005210FFF7D4FE00289AD140F24331284600F021
S3150800522088FF94E794F8283023F0010384F828309F
S315080052308DE794F8283043F0010384F82830079B5B
S31508005240A36133B903904FF45771284600F071FFF4
S31508005250039AA169134620461144FFF75FFE76E7D5
S3150800526094F828309A07DFD4204600F08BF96EE7C9
S31508005270A02300205471000824240020A423002021
S3150800528007B500230193084B1B68013304D04FF47C
S315080052901571064800F04DFF01F052FA019B002BEC
S315080052A0FCD003B05DF804FB1C100020A9710008AF
S315080052B04FF0E02200234FF47A7113619361044B97
S315080052C01B68B3FBF1F3013B536107231361704776
S315080052D00410002008B501F033FA044A13680133B4
S315080052E01360BFF34F8FBFF36F8F08BD1C100020EC
S315080052F010B5094C236823B940F2ED21074800F0A0
S3150800530018FF2368013B2360206818B9BDE81040E0
S3150800531001F021BA10BD00BF1C100020A9710008B9
S31508005320836913F8023C022B0FD14FF0E023D3F820
S31508005330882D42F47002C3F8882DD3F8342F42F032
S315080053404042C3F8342FFAF713BF40F277310148C9
S3150800535000F0EFBEA971000810B54FF0807440E95F
S315080053600224184A4FF0123440F80C2C4FF003323E
S315080053704FF0023C40E905244FF0013240F8203C4A
S3150800538040E9072C4FF010334FF011324FF0093433
S3150800539040E90A324FF008334FF0073C40E90C3435
S315080053A04FF006334FF0053240E90E3C4FF0043318
S315080053B040E910326FF0020340F8443C40F8481DBB
S315080053C010BD00BF8152000810B54FF0E02300243D
S315080053D0D3F8202D42F47F02C3F8202DD3F8202DD0
S315080053E042F07F42C3F8202DFFF762FF044B1C6092
S315080053F0FAF7DEFEFFF746FBFFF742FF204610BD31
S315080054001C10002010B50F4B1A461B688342FBD3AD
S3150800541054681119884201BF41681046091951603C
S31508005420446801198B4207D1074909688B421FBF97
S3150800543059681B68091941609042036018BF1060DB
S3150800544010BD00BF442400202C2400202DE9F84379
S315080054500646FFF7EDF94349434D0B680BBB434A34
S31508005460434C50071DBFD01D20F0070002F500531E
S315080054704FF400531CBF02461B1A00201344083B76
S3150800548023F0070360602260C3E90000981AC2E9A6
S3150800549000300B60374B1860374B18604FF00043ED
S315080054A02B602C6834405AD1731E0A3308D8720709
S315080054B006F108074DD027F007030833BB4247D843
S315080054C0FFF758FA630704D040F21B112B4800F087
S315080054D030FE2046BDE8F883254B1E687268BA423E
S315080054E002D23068002830D10968B14237D01C682A
S315080054F03168D21B102A04F10804196010D906EB8A
